:400000000080002011000000710800007108000008B5044B1A6803F53F5302331A6000F047FC00BFFA46004010B5054C237833B9044B13B10448AFF300800123237010BD42
:400040004881FF1F00000000781C0000084B10B51BB108490848AFF300800848036803B910BD074B002BFBD0BDE81040184700BF000000004C81FF1F781C0000C880FF1FDA
:400080000000000008B562B600F0ECFC00F040FF0A2000F037FD00F001F91C4801F068F91B4800F079FC1B4800F09EFC01F066F801F036F9184B00221A701B78DBB2174AC2
:4000C00013700A2000F01EFD134B1A78D2B2134B1B78DBB29A4207D00F4C207800F0C4F82378DBB20D4A13700D4B1B78DBB2012BEAD10C4C204600F017FA204600F02CFA68
:4001000000F04EFA0022064B1A70DDE77101000029010000490100009C82FF1F9D82FF1F3482FF1F7481FF1F064B1B78DBB2022B03D00222034B1A7070470022014B1A7064
:40014000704700BF9C82FF1F084B1B78DBB2012B03D10022054B1A707047044B1B7813F0FF0F02D10122014B1A7070479C82FF1F0122014B1A7070473482FF1F10B5044662
:40018000002000F073FF204600F066FD002000F063FD00F039FD10F0010FFAD000F0C6FD00F0C4FD0446012000F060FF204610BD2DE9F04383B006460C46174698460020CE
:4001C00000F054FF64B2002511E02146082CA8BF0821C9B206EBC50000F024FE00F014FD10F0010FFAD0083C64B201356DB2002CEBDC00F027FE00F0CBFD00260096019685
:400200004FFA88F820E0C146B8F1080FA8BF4FF008095FFA89F1684600F004FE00F0F4FC10F0010FFAD0002406E004EBC60500F07DFD78550134E4B24C45F6DBA8F1080879
:400240004FFA88F8013676B2B8F1000FDBDC012000F00CFF00F0F6FD00F09AFD00F0B8FD03B0BDE8F08300BF10B510B900F09CFF10BD044600F0BEFF10F0800F01D100F004
:40028000F9FF012C03D1FF2000F0A2FF10BD022C02D17F2000F09CFF10BD00BF2DE9F0438BB08E4800F0F8FB8F20FFF767FF8C4C02468C49204601F0BBF8204600F0ECFB8D
:4002C000894D284600F0E8FBA720FFF757FF02468649204601F0ACF8204600F0DDFB284600F0DAFBA020FFF749FF02468049204601F09EF8204600F0CFFB284600F0CCFB20
:40030000DFF82082C14639F8043BADF8243000260AAF07F8056D33463A46022109A8FFF747FFA020FFF72AFF02467249204601F07FF8204600F0B0FB284600F0ADFBA22002
:40034000FFF71CFF02466C49204601F071F8204600F0A2FB284600F09FFBB9F80030ADF820308DF8236033463A46022108A8FFF71FFFA220FFF702FF02466049204601F005
:4003800057F8204600F088FB284600F085FBA320FFF7F4FE02465A49204601F049F8204600F07AFB284600F077FBB8F80830ADF81C308DF8236033463A46022107A8FFF7CC
:4003C000F7FEA320FFF7DAFE02464E49204601F02FF8204600F060FB284600F05DFBA420FFF7CCFE02464849204601F021F8204600F052FB284600F04FFBB8F80C30ADF80A
:4004000018308DF8236033463A46022106A8FFF7CFFEA420FFF7B2FE02463C49204601F007F8204600F038FB284600F035FB0CE0E8238DF80730062302AA01210DF107008C
:40044000FFF7B6FE324800F027FBAF20FFF796FE10F0200FECD02F4800F01EFB2E238DF8143000248DF815400AAE06F8054D23463246022105A8FFF79BFE012000F058FBBE
:40048000AE20FFF77BFE164D02462349284600F0CFFF284600F000FB134F384600F0FCFA1E4B1B88ADF810308DF8234023463246022104A8FFF77CFEAE20FFF75FFE02463B
:4004C0001749284600F0B4FF284600F0E5FA384600F0E2FA0BB0BDE8F08300BF901C00003882FF1FB81C0000E01C0000081D0000201D0000381D00005C1D0000741D00005D
:40050000981D0000B01D0000D41D0000EC1D0000101E00002C1E0000441E00008C1C0000601E00007C1C000030B583B00546E8238DF8073000240AE004EB44035A000623B6
:400540002A4401210DF10700FFF732FE01341F2CF2DD03B030BD00BF30B583B00546A0238DF80030C0238DF80730002414E004EB44014B0013442B4413F8011C02AB13440F
:4005800003F8081C013200E00122062AEFDD0821684600F093FA01341F2CF5DD03B030BD30B583B02E238DF8043000248DF8054002AD05F8054D23462A46022101A8FFF7FB
:4005C000F7FD012000F0B4FA064B1B88ADF800308DF8034023462A4602216846FFF7E8FD03B030BD8C1C0000FEE700BFF0B40022174611E050F82760F3B226F0FF0608E0BB
:4006000001EB420511F812406D78A5550132013BDBB2002BF4D10137212FEBD9F0BC7047064B1B78DBB203F00701054A11701B09013213704422034B1A707047CF0100498E
:400640006E5800407658004008B50A46002100F0E6FE08BD38B50B222D4B1A8018232D4A137019250232158002321370EF21023211800232137047F22F530232138002323E
:40068000157002321380244B1D70022203F26E231A7008224FF040231A70032103F5007319701E4B1B78DBB21D490B701D4B1A8041F25122023B1A8000240CE01A4B1B785F
:4006C00003F0010343EA440404F003044FF4F07000F05EFE013D0DB1032CEFD115B90320FFF782FF114B4FF480721A8007221A7000220F490A704820023108701A700222BE
:40070000033B1A700B4A137843F01F03137038BD80400040824000409240004008010049A146004022420040254200400440004006400040A243004008B500F065FE08BD68
:4007400038B572B6374A137843F00403137000240CE0354D630019194A0011462A44084691882858FFF770FF0134E4B2092CF0D900240BE02C49A300181942008818802274
:40078000016CC06BFFF7D8FF0134E4B2002CF1D026494FF09040FFF729FF254A254B1A60254A137843F0020313701032137843F002031370214C237843F040032370A2F542
:4007C0008632513A137843F0100313700A221C491C48FFF7B1FF0A221B491C48FFF7ACFF0A221B491B48FFF7A7FF08221A491B48FFF7A2FF1A4A137843F008031370194D06
:4008000061232B70FFF726FF81232B700122164B1A70FFF705FF0E2221461448FFF78CFF38BD00BFE8460040881E000088000048040404445818014003500140A043004073
:4008400094080048C0510040A008004810510040AC08004820510040B808004832510040224300400048004004000840B043004008B500F09DFD03680C2B00D1FEE7FEE70A
:4008800008B5094B1A681044084BC31A802B02DC054B186005E000F08BFD0C2303604FF0FF32104608BD00BFCC80FF1FC882FF1F08B5104E104D16E029686B68AC680022BD
:4008C00004E051F8040B43F8040B0432A242F8D1E868002203E0002143F8041B04328242F9D11035013E002EE6D100F067FDFFF7C9FBFEE701000000281F000008B5104A40
:40090000104B1A60104A136843F40073136000230AE0032B03D80D4A52F8231000E00C490C4A42F8231001332F2BF2D90A4B1A780A4B1A70074A0A4B1A60FFF701FF08BD14
:400940000004FA050CED00E014ED00E000000000710800000080FF1FBC760040C080FF1F08ED00E0014B1B681864704708ED00E04001C0B2014B1870704700BF00E400E066
:400980000122014B1A60704700E100E00122014B1A60704780E100E010B50446FFF7F6FF2046FFF7DFFF0520FFF7E2FFFFF7E8FF10BD00BF014B1B689864704708ED00E005
:4009C0004001C0B2014B1870704700BF02E400E00422014B1A60704700E100E00422014B1A60704780E100E010B50446FFF7F6FF2046FFF7DFFF0620FFF7E2FFFFF7E8FFDE
:400A000010BD00BF7222074B1A700023064A137006219B321170472110321170AC3A1370704700BF8A6400408964004010B500F0B7FC04460A4A137843F020031370013A45
:400A4000137843F010031370013A137843F01003137000F047F8204600F0A6FC10BD00BF9A64004008B5054B1B7823B9FFF7CAFF0122024B1A70FFF7D9FF08BD6481FF1FD7
:400A8000034B1B7813F0040FFAD1024B18707047686400404864004038B5074B1B782BB938BDFFF7EDFF0134A4B201E005460024285D0028F5D138BD6481FF1F084B1B7837
:400AC00033B97047305DFFF7DBFF0134E4B203E070B50D4606460024AC42F3D370BD00BF6481FF1F054A137843F0020313701032137843F002031370704700BFA243004005
:400B000001BE704710B5044605E0084B186800F03FFCA4F50044B4F5004FF6D8034B586800FB04F000F034FC10BD00BFD080FF1F08B5034B1B7A00FB03F000F029FC08BD2B
:400B4000D080FF1F70B504460E46074B1D681F2802D90020FFF7D4FF04F01F04103455F8240045F8246070BD08ED00E038B504460D46072902D90020FFF7C2FF1F2C02D941
:400B80000020FFF7BDFF04F01F0000F1604000F564406D01EDB2057038BD00BF1022014B1A60704700E100E00822014B1A60704700E100E008B500F0F3FB0C4A137843F069
:400BC00020031370023A137843F0100313700332137843F01003137000F0E6FB00F052FAFFF7DCFFFFF7E0FF08BD00BF966500401022014B1A60704780E100E00822014B5E
:400C00001A60704780E100E010B5FFF7F1FF064B1C78064A137803F009031C4300231370FFF7BCFF204610BD64650040AC82FF1F10B5FFF7E3FF064B1B78064A147804F049
:400C400040041C4300231370FFF7AEFF204610BD67650040BD82FF1F10B504462B4B1A7802F0FF0312B1013BDBB200E00723284A1278D2B29342F1D0FFF7BAFF254B197885
:400C8000254A137803F009030B4313701F4B1A78D2B21F4B1B78DBB29A4207D11E4B1B7813F0040F02D01D4B1C702CE0184A13780133DBB213701378DBB2072B02D9002250
:400CC000134B1A70124B1A78D2B2104B1B78DBB29A420ED10D4A13780133DBB213701378DBB2072B02D90022084B1A7001220C4B1A70074B1B78DBB20A4AD4540A4A137848
:400D000043F004031370FFF749FF10BDB982FF1FBB82FF1F64650040AC82FF1F47650040B882FF1FA482FF1F8465004010B5FFF765FF134B1A78D2B2124B1B78DBB29A4245
:400D400014D0114B1B7813F0FF0F0CD10C4A13780133DBB213701378DBB2072B06D90022074B1A7002E00022074B1A70044B1B78DBB2064AD45CE4B2FFF716FF204610BDC3
:400D8000BC82FF1FBA82FF1FA082FF1FB082FF1F08B501E0094B1B78094B1B7813F0200FF8D1FFF72BFF0023064A1370064A1370064A1370FFF7F8FE08BD00BF576500405E
:400DC00067650040A082FF1FBC82FF1FBA82FF1F08B500F0E5FA0E4B1A7842F001021A701A7802F0FE021A7000F0DEFAFFF700FF0023084A1370084A1370084A1370084AFC
:400E0000137803F0FB031370FFF7C8FE08BD00BF97650040B882FF1FB982FF1FBB82FF1F8465004070B506460C46002506E0705DFFF712FF0135EDB2013CE4B2002CF6D1C5
:400E400070BD00BF08B501E00A4B1B780A4B1B7813F0200FF8D100F0A3FA084B1A7842F001021A701A7802F0FE021A7000F09CFA08BD00BF57650040676500409765004090
:400E800010B50F22174B1A70174C1023236007210420FFF76BFE15490420FFF753FE0823236007210320FFF761FE11490320FFF749FEFFF7C7FF00240E4B1C700E4B1C7011
:400EC0000E4B1C700E4B1C700E4B1C700E4B1C70FFF79AFEFFF7ACFE0C4B1C70202203331A7010BD8665004080E100E02D0F0000CD0F0000A082FF1FBC82FF1FBA82FF1F04
:400F0000B882FF1FB982FF1FBB82FF1F8465004008B5054B1B7823B9FFF7B2FF0122024B1A70FFF747FE08BD6681FF1F28E01F4B19781F4A137803F009030B431370137808
:400F400013F0040F24D01B4B1B7813F0FF0F0CD1194A13780133DBB213701378DBB2072B06D90022144B1A7002E00022114B1A70114B1B78DBB2114AD35CDBB2104A1370C0
:400F80000D4B1A78D2B20F4B1B78DBB29A42CED1094B1A78D2B20B4B1B78DBB29A4204D1094A137803F0FB031370704764650040AC82FF1FB882FF1FB982FF1FA482FF1FEA
:400FC00047650040BB82FF1F84650040204B1A7820490B7803F0400313430B7032E01E4B1A78D2B21D490B780133DBB20B700B78DBB2072B02D90021184B1970174B1978BE
:40100000C9B2174B1B78DBB299420ED114490B780133DBB20B700B78DBB2072B02D900210F4B197001210F4B19700C4B1B78DBB20D49CA54064B1A7806490B7803F04003E1
:4010400013430B70034B1B7813F0200FC7D1704767650040BD82FF1F57650040BA82FF1FBC82FF1FA082FF1FB082FF1F044A137803F07F03C001C0B218431070704700BFC0
:4010800010510040054A137843F0010313701032137843F001031370704700BFA2430040084A137843F0010313701032137843F00103137002F64D32137843F001031370FF
:4010C000704700BFA3430040014B1870704700BF034F0040014B1880704700BF044F0040014B1880704700BF064F004008B5204A137803F0010313701E4B197801F0FC0188
:401100001970117841F0040111701A7802F0F3021A701A7842F00C021A701A7802F07F021A701A7842F080021A701A78D2B21A7009331A7802F0CF021A701A7842F0300277
:401140001A701A7802F0F0021A701A7842F00F021A70094A137843F001031370C720FFF7B9FFC720FFF7BCFF0820FFF7ADFF08BD004F0040024F0040014F004008B5054B75
:401180001B7823B9FFF7B2FF0122024B1A70FFF787FF08BD6781FF1F024A137843F080031370704779650040024A137803F07F031370704779650040014B1870704700BF05
:4011C0000B650040014B1870704700BF4B650040014B1870704700BF2B650040014B1870704700BF89650040014B1878704700BF69650040014B1878704700BF79650040A3
:40120000014B1878704700BF5B65004008B501E0FFF7F6FFFFF7E8FF10F0100FF8D108BD08B5124A137803F0C00343F00A0313702232137843F001031370C820FFF7BCFFFA
:40124000C820FFF7BFFF6420FFF7C2FF0020FFF7C5FF00F0A5F8064A137843F01003137000F0A2F8FFF7D2FF08BD00BF796500409965004008B5054B1B7823B9FFF7D0FF1A
:401280000122024B1A70FFF787FF08BD6881FF1F024A137843F080031370704778650040014B1870704700BF88650040014B1878704700BF68650040014B1870704700BFE8
:4012C00028650040014B1878704700BF48650040014B1870704700BF0865004008B501E0FFF7F0FFFFF7E2FF10F0080FF8D108BD08B56320FFF7E0FF6320FFF7E9FF00F086
:401300004FF8064A137843F01003137000F04CF8FFF7E4FF0120FFF7C3FF08BD9865004008B5054B1B7823B9FFF7E2FF0122024B1A70FFF7ADFF08BD6981FF1F014B1B684F
:401340005864704708ED00E04001C0B2014B1870704700BF01E400E00222014B1A60704700E100E00222014B1A60704780E100E010B50446FFF7F6FF2046FFF7DFFF0720C4
:40138000FFF7E2FFFFF7E8FF10BD00BF000000000230800803D000BF01380046FCD17047EFF3108072B6704780F31088704700BF014B1868704700BF4081FF1F0E4B70B52D
:4013C0001E460E4C0025E41AA410A54204D056F8253098470135F8E700F094FD084B094C1E46E41AA4100025A54204D056F8253098470135F8E770BD101F0000101F0000C5
:40140000101F0000181F000010B5431E0A44914204D011F8014B03F8014FF8E710BD03460244934202D003F8011BFAE7704700000EB400B54FF402719CB0ADF814106FF059
:401440000041049107914FF6FF711DAB02900690084853F8042BADF81610006802A9019300F064F8029B00221A701CB05DF804EB03B070474081FF1F2DE9F0478E68824624
:401480009E420C46914698463ED88A8912F4906F3AD02568096902236F1A656905EB450595FBF3F57B1C43449D4238BF1D4653050FD5294600F040FB064698B13A46216914
:4014C000FFF7A2FFA38923F4906343F08003A38113E02A4600F08EFB064670B92169504600F0DEFA0C23CAF80030A3894FF0FF3043F04003A381BDE8F08726613E4426600C
:4015000046466561ED1BA560464528BF464649463246206800F0A8FAA36800209B1BA36023681E442660BDE8F08700002DE9F04F9DB003938B8980461C060D4616460DD5F5
:401540000B695BB9402100F0F7FA2860286118B90C23C8F80030CDE040236B610023099320238DF82930DFF89CB130238DF82A3037463C4614F8013B1BB9B7EB060910D0E2
:4015800003E0252BF9D02746F3E74B46324629464046FFF771FF013000F0A780099B4B4409933B78002B00F0A08000234FF0FF3204930793059206938DF853301A930126AF
:4015C000052221784E4800F041FA671C049B38B14B4A3C46801A06FA00F018430490EFE7D90644BF20228DF853201A0744BF2B228DF8532022782A2A03D0079A00210A20C7
:401600000BE0039A111D12680391002A10DA524243F00200079204900BE027463B780134303B092B03D800FB02320121F5E701B107923B782E2B1ED17B782A2B0AD1039BEE
:4016400002371A1D1B680392002BB8BF4FF0FF33059310E0002319460593781C0A2407463A780130303A092A03D804FB01210123F5E703B1059103223978224800F0E6F949
:4016800040B14023CBEB000003FA00F0049B013718430490397806221B487E1C8DF8281000F0D4F988B1194B33B9039B073323F007030833039314E003AB00932A46144BCA
:4016C00004A94046AFF3008007E003AB00932A460F4B04A9404600F093F8B0F1FF3F824603D0099B5344099342E7AB895B0601D4099801E04FF0FF301DB0BDE8F08F00BF71
:40170000D01E0000D61E0000DA1E000000000000791400002DE9F04791461F460A698B6806469342B8BF1346C9F8003091F843200C46DDF8208012B10133C9F8003023684B
:40174000990642BFD9F800300233C9F80030256815F0060510D104F1190A07E00123524639463046C04701301AD00135E368D9F800209B1A9D42F1DB94F8433022680033C4
:4017800018BF012392060FD5E118302081F843005A1C94F845102244023382F8431003E04FF0FF30BDE8F08704F1430239463046C0470130F4D02268D9F80050E36802F06E
:4017C0000602042A08BF5D1B2269A3680CBF25EAE57500259342C4BF9B1AED184FF000091A344D4509D00123224639463046C0470130D5D009F10109F3E70020BDE8F087FA
:401800002DE9F04317460A7E85B06E2A984606460C460C9B01F1430E00F0AE8011D8632A22D009D8002A00F0BB80582A40F0CA8081F84520834955E0642A1ED0692A1CD0B5
:40184000C0E0732A00F0B08009D86F2A2ED0702A40F0B8800A6842F020020A603EE0752A24D0782A3AD0ADE01A6801F14205111D1960136884F84230A8E021681A6811F018
:40188000800F02D0111D196008E011F0400F02F10401196002D0B2F9003000E01368002B3CDA2D225B4284F8432037E021681A6811F0800F02D0111D196007E011F0400F01
:4018C00002F10401196001D0138800E01368227E5C496F2A14BF0A2208221BE078225A4984F845202268186812F0800F00F104051D6003D1550601D5038800E00368D007CC
:4019000044BF42F0200222601BB9226822F0200222601022002084F8430001E049490A226568002DA56008DB206820F0040020602BB9002D7DD175460CE0002B79D07546D7
:40194000B3FBF2F002FB1033CB5C05F8013D03460028F5D1082A0BD12368DA0708D5236962689A42DEBF302305F8013C05F1FF35C5EB0E0323612EE008681A6810F0800F4D
:40198000496903D0101D1860136808E010F0400F02F104001860136801D0198000E0196000232361754616E01A68111D1960156800216268284600F049F808B1401B606042
:4019C000636804E004F1420584F8422001232361002384F84330CDF800803B4603AA21463046FFF797FE013002D14FF0FF3026E023692A4639463046C0470130F5D0236898
:401A00009B0710D5002504F1190907E001234A4639463046C0470130E7D00135E368039A9B1A9D42F2DBE068039B9842B8BF184605E00B7804F1420584F842308AE705B098
:401A4000BDE8F083E11E0000F21E000010B5C9B202449042034605D01C7801308C42F8D1184610BD002010BD884210B501EB020301D8421E0BE09842FBD28118D21AD34270
:401A800004D013F8014D01F8014DF8E710BD994204D011F8014B02F8014FF8E710BD000038B50546002944D051F8043C0C1F002BB8BFE41800F0D4F81E4A1368114613B983
:401AC0006360146030E0A3420DD92268A018834201BF18685B681218226063600C6023E0A24203D813465A68002AF9D118681918A1420BD12168014458188242196013D14F
:401B000010685268014419605A600DE002D90C232B6009E021686018824201BF106852680918216062605C602846BDE8384000F098B838BD7081FF1F70B5CD1C25F00305BF
:401B400008350C2D38BF0C25002D064601DBA94202D90C23336046E000F082F8234B1C681A462146A1B10B685B1B0ED40B2B03D90B60CC18CD501EE08C420BBF63684B68F2
:401B80001360636018BF0C4615E00C464968E9E7174C23681BB9304600F052F820602946304600F04DF8431C18D0C41C24F00304A0420DD12560304600F053F804F10B00BA
:401BC000231D20F00700C31A0ED05A42E25070BD211A304600F034F80130EBD10C233360304600F03EF8002070BD00BF7081FF1F6C81FF1FF8B5074615460E4621B91146C0
:401C0000BDE8F840FFF798BF1AB9FFF749FF2846F8BD00F027F885420ED929463846FFF78BFF044650B131462A46FFF7EDFB31463846FFF735FF01E03046F8BD2046F8BDC6
:401C400038B5064C0023054608462360FEF718FE431C02D1236803B12B6038BDC082FF1F7047704751F8040C0028BEBF091851F8043CC0180438704700000000207F00000A
:401C80002202000023800000244000002E4000002A2A2A2A2A2A2A2A2A202020204C49533344482054455354202020202A2A2A2A2A2A2A2A2A0D0A0057484F20414D204974
:401CC000205245473A20307825303258205B45787065637465643A20307833335D0D0A002A2A2A2A2A2A2A2A2A2A2A2A2A2A2A2A2A2A2A2A2A2A2A2A2A2A2A2A2A2A2A2A3C
:401D00002A2A2A2A2A0D0A00535441545553205245473A20307825303258200D0A0000004354524C20524547313A20307825303258200D0A000000004354524C2052454711
:401D4000312041465445522057524954453A20307825303258200D0A000000004354524C20524547333A20307825303258200D0A000000004354524C205245473320414652
:401D80005445522057524954453A20307825303258200D0A000000004354524C20524547343A20307825303258200D0A000000004354524C205245473420414654455220DD
:401DC00057524954453A20307825303258200D0A000000004354524C20524547353A20307825303258200D0A000000004354524C2052454735204146544552205752495460
:401E0000453A20307825303258200D0A000000002D2D2D2D4649464F20464C555348494E472D2D2D2D2D0D0A000000002A2A2A2A2A2A2A2A2A4649464F20464C5553484570
:401E4000440D0A004649464F204354524C205245473A20307825303258200D0A000000004649464F204354524C205245472041465445522057524954453A2030782530323B
:401E800058200D0A00000000004F00400C00005100401000405100403000F0510040100000000140000A800A0140800500140140000800400140000A004C01400002005063
:401EC00001402000000A01401408004880004300232D302B2000686C4C006566674546470030313233343536373839414243444546003031323334353637383961626364E7
:401F000065660000F8B500BFF8BC08BC9E4670474D000000FD080000F8B500BFF8BC08BC9E46704729000000381F0000C880FF1F800000008001000000000000C882FF1F37
:401F40000000E02EC05D00001800000000366E010000000000000000000000000000000000000000000000000000000000000000CE1E00000000000000000000000000008D
:401F8000000000000000000000000000000000000000000000000000000000000000000000000000000000000000000000000000E080FF1F000000000000000000000000A3
:401FC00000000000000000000000000000000000000000000000000000000000000000000000000000000000000000000000000000000000000000000000000000000000E1
:4020000000000000000000000000000000000000000000000000000000000000000000000000000000000000000000000000000000000000000000000000000000000000A0
:402040000000000000000000000000000000000000000000000000000000000000000000000000000000000000000000000000000000000000000000000000000000000060
:402080000000000000000000000000000000000000000000000000000000000000000000000000000000000000000000000000000000000000000000000000000000000020
:020000040003F7
:0200000480007A
:40000000024F00400452004003640040056500400303014003050140020701404C080140430901400B0A0140350B0140010D01405E1401404B150140611601403D17014085
:400040005318014046190140631A01404A1B014006400140074101400542014004430140024401400545014003460140014701400A48014012490140044C01400A4D014033
:40008000055001400251014001400A7218A0192060046180880F89388A72850F860F880D890D8A0D8D01E640EE0190029D01B40190029D01001C0222082C09010A110B0682
:4000C00011021315160317081814191F1C091E102430260C2840291F2C10321F3304351836603703388040324106450B460E470C481549FF4AFF4BFF4EF04F44500C54019D
:40010000580459045A045B045C415D115F0166C06A406B0285038603880189038D028F09900494049C04A404AB04AD01AF0AB004B103B202B30CB601BB20BE01BF04D418EF
:40014000D804D904DB04DC12DD10DF01001001080608074009080A410E220F08122015801718181019411E221F042040222023502408272529A02A402E1030403140372505
:40018000384039143C20402043084402454047184E084F08554057085A025C225E886004630279087A20911492439380950897509D219E40A040A108A284A540A620C056E7
:4001C000C2EDC4E4CA2CCCE0CE2ED060D220D6F1D80C8D01A401A801AC01B001B301BF04D804D904DC01DF0101A0026009080A400B02108813441580172419901AC11B400D
:400200001F0321082281260429242A402B40311832403302382039083A023B403D80400841044302484049804B105340590169946B24709871047202730488088A80C00FBF
:40024000C20DC4EFCA0FCC0FCE1FD007D20CD601EA40EE01021803040455062208060D080E200F03106B1214190124702609303831083207330135023640370438083E407F
:400280003F014003460449FF4A074BFF4C404D204EF04F05500854095604580459045A045B045C405D015F01604061A86240632087018A098B0E950896059E04AB02AD016D
:4002C000AE02B008B108B202B302B404B504B601B701BE10C060C104C5D0C610C725C83AC9FFCAFFCBFFCDA0CF04D018D280D407D804D904DA04DB04DC22DD22DF01E04065
:40030000E2C0E440E540E6C0E8C0EAC0ECC0EEC0000401020201030806080B800E100F1211081740180119021B081C021E181F012160220823402440268027142E102F0197
:4003400031203704380239803E083F20402045014F11505055015608571159245A815C405D105E085F016001610177408070840189108A888B408D428F10900692819380E1
:4003800099249A019D01A104AC04C04FC2A8C484CA30CC44CE69D082D220D6FFD809E005E260E655EE02007201D9040105D906F4082209D10B080C220DD90E5014A315081E
:4003C00016581704192E1B811CE31D201E0C1FD0207221112322245025242622274928722DD82F013080330F341F366037F038223B8C56025728580459045B045F018003FA
:40040000822C8423861488028A1D8CD090D09401963AA280A4D0A8D0AED0B020B21FB480B640BA08BE51C023C105C210C406C5DEC6F0C7BCC83BC9FFCAFFCBFFCC22CEF028
:40044000CF0CD004D440D604D804DA04DB04DF01E2C0E440E501E610E711E8C0E901EB11EC40ED01EE40EF0100860308040405200604074109090D080E02102811401280A4
:400480001716180119081A811B181C061E421F60250C264027202D402F60364837203C803D023E1440054108480549044A805120520D61206280636065086C286D426E14F0
:4004C0006F55744077028240874090029D01C0FFC2ACC47FCAD0CC70CEF0D00ED20CD84FEA0104010513060607C40B200D8A0F54120613881513174C1B551E0423202780AD
:4005000029032B142F2030013120320433C83402350F37103B283E113F414025410445EC4602480749FF4AFF4BFF4F01501852805401580459045A045B045C145D445E80CA
:400540005F056040624064406540668068806A806C806E8080028201840888018A068E10920896089C08A210A407A807AC04AE01B010B208B407B808BE01D280D405D804B0
:40058000DB04DC01DD30DF010080012002600408062009080A410C82111412801340182019201B011D221E1024402504264827082CA22F08360137183DA83E2845224F8534
:4005C0005480574059025A805B045C405F05700174027D20818090089114924193C894049580961098409A409DA89E089F58A040A108A2A1A308A410A648A701AB20C02FAA
:40060000C29DC40FCAF0CCE0CE70D0A0D210D6DBDE20E204070408030B080F08130518041A02270128042A012F0230033102320433043508370138083F144040410645D105
:400640004702481349FF4AFF4BFF4DA04F04501852805405580459045A045B045C235D225F01604062C06440654066C068C06AC06CC06EC08201851C87E08A028F02920637
:4006800093C0951C960497609B349DC89F30A780A901AF02B001B101B30CB406B502B7F0B908BB80BF15C010C105C5D0C612C81EC9FFCAFFCBFFCDA0CF04D018D804D904F1
:4006C000DA04DC13DD03DF01E040E2C0E440E540E6C0E8C0EAC0ECC0EEC000100402060409100E400F20120418101A801E44200421822204248025402684270429082A807A
:400700002C212E402F0431023681375838283B803D083F8041024401480849094D024F80500C551056045750584059015A087280802081C08204831088108A048C40902245
:40074000938894049580968098409B089D0A9F54A104A201A430A540C052C232C402CA7ACCF1CE5ED011D214D60BE480EE023102328037423820CCF0CE108C1094209F024F
:40078000A502A680AB40EE8012809F02A502A680C41062049F02A502D8401302C40801405210AB02C002D4049E10B540EA029E106520822087029E049F02A902D880E22079
:4007C000E640EA805C0263026601700176208002870189208C018E059A209D209E04D6C0D880DC80DE20E690088080809E10C202108079808A108D409E10A480AC80C408DA
:40080000DC01E40C00160C16101F1A171C1E00FF01030000011020001FFF00000308000013800C000F0010E30C3C13C200000004001C13E108E70018041800000CC00000FB
:40084000024400001CC0001F20000F3800008208000000005403020006C00E0006FFFFFF62A0F0410C000000000002130404040411110001000000000000400200103010FD
:4008800000101012000000000000000000000000000000008400508C8C008C00000000008000408B8B0000000000000004000006020002000000000000E0E000E00000000A
:4008C00000000000000000000000000000000000000000000000000000000000000000000000000000000000000000000000000000000000000000000000000000000000F8
:4009000000000000000000000000000000000000000000000000000000000000000000000000000000000000000000000000000000000000000000000000000000000000B7
:400940000000000000000000000000000000000000000000000000000000000000000000000000000000000000000000000000000000000000000000000000000000000077
:400980000000000000000000000000000000000000000000000000000000000000000000000000000000000000000000000000000000000000000000000000000000000037
:0200000490006A
:0400000000004005B7
:0200000490105A
:04000000BC90ACAF55
:0200000490303A
:020000001EA43C
:0200000490402A
:4000000000000000000000000000000000000000000000000000000000000000000000000000000000000000000000000000000000000000000000000000000000000000C0
:400040000000000000000000000000000000000000000000000000000000000000000000000000000000000000000000000000000000000000000000000000000000000080
:400080000000000000000000000000000000000000000000000000000000000000000000000000000000000000000000000000000000000000000000000000000000000040
:4000C0000000000000000000000000000000000000000000000000000000000000000000000000000000000000000000000000000000000000000000000000000000000000
:0200000490501A
:0C00000000012E16106900012E242F0DA7
:00000001FF