:4000000000800020110000007D1300007D13000008B5044B1A6803F53F5302331A6001F0CDF900BFFA46004010B5054C237833B9044B13B10448AFF300800123237010BD90
:400040004881FF1F0000000008360000084B10B51BB108490848AFF300800848036803B910BD074B002BFBD0BDE81040184700BF000000004C81FF1F08360000C880FF1F86
:40008000000000002DE9F04FBDB062B601F052FB01F032FF02F098F90A2001F09BFB00F02BFC4E4801F060FD4D4801F0FBF94D4801F002FB01F048FC01F02EFD02F0A8FAF5
:4000C00002F08EFC00F08EFB0024474B1C70474B1C700A2001F07EFB00F060FB424B1B78DBB2022B0DD105E0204600F009FF044600F08AFB00F08CFA0128F5D0204600F058
:400100008FFA3A4B1B78DBB2012B63D12F2000F0EDFB10F0400F1ED0354D284600F0B8FD284600F0CDFD284600F04CFE00F07CFE284600F0CBFB4AE02F2000F0D7FB10F09F
:40014000400F08D02A4D284600F0A2FD284600F0B7FD00F069FE312000F0C8FB074610F0400FE9D100F090FA824600F015FF83464FF0000828E00DAD4146284600F0E8FD3F
:400180000DF170090095BBB25FFA8BF25146484600F0E4FE6D4620AE0FCE0FC50FCE0FC596E80F0085E80F0099E80F0000F0A2FA424651462CA800F0D5FA2CA800F036FF46
:4001C00008F101085FFA88F8B8F1040FD3D90022064B1A70312000F089FB7FE791020000F50100004D020000CC83FF1FCD83FF1F8481FF1F10B5144B1B78DBB2022B0AD073
:400200000222114B1A70012000F0EEF900F06CFE02F0FAFB10BD00F0DFF90B4C2070002000F0E2F9237813F0FF0F02D100F046FE06E0054B1B78DBB2012B01D100F048FED7
:4002400002F0E2FB10BD00BFCC83FF1F08B50F4B1B78DBB2012B09D100F01CFE00200B4B187000F0A5F900F029FE08BD074B1B7813F0FF0F08D100F0FBFD0120034B187059
:4002800000F096F900F024FE08BD00BFCC83FF1F0122014B1A707047CD83FF1F10B50446002001F05FFB204601F0CAFC002001F0C7FC01F09DFC10F0010FFAD001F02AFDB7
:4002C00001F028FD0446012001F04CFB204610BD2DE9F04383B006460C4617469846002001F040FB64B2002511E02146082CA8BF0821C9B206EBC50001F088FD01F078FC0E
:4003000010F0010FFAD0083C64B201356DB2002CEBDC01F08BFD01F02FFD0026009601964FFA88F820E0C146B8F1080FA8BF4FF008095FFA89F1684601F068FD01F058FCF5
:4003400010F0010FFAD0002406E004EBC60501F0E1FC78550134E4B24C45F6DBA8F108084FFA88F8013676B2B8F1000FDBDC012001F0F8FA01F05AFD01F0FEFC01F01CFD96
:4003800003B0BDE8F08300BF10B50446002001F0F5FA204601F0BCFE01F092FE10F0080FFAD001F01FFF0446012001F0E7FA204610BD00BF10B50446002001F0DFFA204694
:4003C00001F0A6FE002001F0A3FE01F079FE10F0010FFAD001F006FF01F004FF0446012001F0CCFA204610BD2DE9F04383B006460C4617469846002001F0C0FA64B20025DA
:4004000011E02146082CA8BF0821C9B206EBC50001F064FF01F054FE10F0010FFAD0083C64B201356DB2002CEBDC01F067FF01F00BFF0026009601964FFA88F820E0C146E7
:40044000B8F1080FA8BF4FF008095FFA89F1684601F044FF01F034FE10F0010FFAD0002406E004EBC60501F0BDFE78550134E4B24C45F6DBA8F108084FFA88F8013676B218
:40048000B8F1000FDBDC012001F078FA01F036FF01F0DAFE01F0F8FE03B0BDE8F08300BF08B50520FFF786FF08BD00BF08B50620FFF76AFF08BD00BF00B583B003218DF8B1
:4004C0000410030A8DF805308DF8060002AA002302F8053D012301A8FFF786FF9DF8030003B05DF804FB00BF30B583B004460D46FFF7DCFF02238DF80430230A8DF805309A
:400500008DF806408DF80750002302AA02F8053D04210DEB0100FFF767FF03B030BD00BF10B582B003248DF80440030A8DF805308DF8060013460A46214601A8FFF754FFF5
:4005400002B010BD2DE9F04182B000AF054688461446FFF7ABFF012001F052F9E61C04F10A0323F00703ADEB030D02238DF800302B0A8DF801308DF80250224641460DF112
:40058000030002F009FC002307F1080202F8013DF1B26846FFF728FF0837BD46BDE8F08108B5FFF77DFF10F0010FFAD108BD00BF10B504460020FFF77FFF012C03D140F0BC
:4005C0000101C9B201E000F0FE010020FFF78CFFFFF7E6FF10BD00BF08B50020FFF76CFF00F0010008BD00BF10B504460020FFF763FF012C03D140F00201C9B201E000F0EC
:40060000FD010020FFF770FFFFF7CAFF10BD00BF08B50020FFF750FFC0F3400008BD00BF10B504460020FFF747FF012C03D140F00401C9B201E000F0FB010020FFF754FF01
:40064000FFF7AEFF10BD00BF10B504460020FFF733FF012C03D140F00801C9B201E000F0F7010020FFF740FFFFF79AFF10BD00BF10B51620FFF720FF000284B20820FFF7A0
:400680001BFF204380B210BD08B5FFF7F1FF034BA3FB0030C0F3870008BD00BFCDCCCCCC00B583B0FFF7E4FFB0F5007F0DD2013080B28DF80400000A8DF80500022201A9FE
:4006C0000820FFF73FFFFFF76BFF03B05DF804FB10B50446FFF7CCFF0130800180B247F6BF73984205D840222146FFF72BFFFFF757FF10BD84B000B591B00DF1480E8EE867
:400700000F007146684600F04DFC6846FFF7E0FFFFF7C6FF11B05DF804EB04B0704700BF38B50546402405E04034A4B247F6FE739C4206D82046FFF7BFFEA842F4D12046BC
:4007400038BD4FF6FF7038BD38B5054614460846FFF7E6FF00EB84104022294680B2FFF7DFFE38BDF0B5A1B0074610A8FFF7ECFF10A9684600F038FC6C463D460DF1400EEE
:4007800026460FCE28606960AA60EB60344610357645F5D1384621B0F0BD00BF30B591B040220021684602F002FB002425460DE0402269462846FFF7C5FEFFF7F1FE4035FB
:4007C000ADB2052001F006F80134A4B2B4F5007FEED30120FFF738FF052000F0FBFF11B030BD00BF08B500F0D3FE00F03DFF08BD10B50446007800F077FEA07800F07AFE6D
:40080000607800F0E7FE10BD00B583B0FF238DF8043001388DF805008DF8063001A8FFF7E7FF03B05DF804FBF0B482B00026ADF80060ADF80260ADF8046015E006EB46052F
:400840006B00013365002B44C75602AB2B4433F8085C3D4423F8085C0134E4B200E00024022CEBD90136F6B29642F8D3002309E002A800EB430030F9080C90FBF2F0C85450
:400880000133DBB2022BF3D902B0F0BC704700BFC31718445840C0B2704700BF70B50546002410E02E192857FFF7F2FF285510F0800F01D07F232B5533785B00DBB2DB4313
:4008C00033700134E4B2022CECD970BD10B5064C20222146FFF7A8FF2046FFF7DFFF2046FFF786FF10BD00BF4482FF1F08B540F08000FFF7D3FC08BD2DE9F0478CB0CC48EE
:4009000000F032FF0F20FFF7F1FFCA4C0246CA49204602F055FA204600F026FFC74D284600F022FF2720FFF7E1FF0246C449204602F046FA204600F017FF284600F014FF74
:400940002020FFF7D3FF0246BE49204602F038FA204600F009FF284600F006FFDFF82C93C84638F8043BADF82C3000260CAF07F8056D33463A4602210BA8FFF7A9FC2020C5
:40098000FFF7B4FF0246B049204602F019FA204600F0EAFE284600F0E7FE2220FFF7A6FF0246AA49204602F00BFA204600F0DCFE284600F0D9FE4FF0220A8DF828A08DF84A
:4009C00029608DF82B6033463A4602210AA8FFF77FFC5046FFF78AFF02469D49204602F0EFF9204600F0C0FE284600F0BDFE2320FFF77CFF02469749204602F0E1F92046FB
:400A000000F0B2FE284600F0AFFEB8F80030ADF824308DF82B6033463A46022109A8FFF757FC2320FFF762FF02468B49204602F0C7F9204600F098FE284600F095FE24201D
:400A4000FFF754FF02468549204602F0B9F9204600F08AFE284600F087FEB9F80830ADF820308DF82B6033463A46022108A8FFF72FFC2420FFF73AFF02467949204602F09C
:400A80009FF9204600F070FE284600F06DFE0CE0E8238DF80330062301AA01210DF10300FFF716FC6F4800F05FFE2F20FFF71EFF10F0200FECD06C4800F056FE4FF02E09A4
:400AC0008DF81C9000258DF81D500CAF07F8055D2B463A46022107A8FFF7FAFB012000F08FFE4846FFF702FF524C02465F49204602F066F9204600F037FE504E304600F0ED
:400B000033FEDFF88881B8F80C30ADF818308DF82B502B463A46022106A8FFF7D9FB4846FFF7E4FE02465249204602F049F9204600F01AFE304600F017FE3020FFF7D6FE59
:400B400002464C49204602F03BF9204600F00CFE304600F009FEB8F81030ADF814308DF82B502B463A46022105A8FFF7B1FB3020FFF7BCFE02464049204602F021F920465A
:400B800000F0F2FD304600F0EFFD3220FFF7AEFE02463A49204602F013F9204600F0E4FD304600F0E1FDB8F81430ADF810308DF82B502B463A46022104A8FFF789FB322001
:400BC000FFF794FE02462E49204602F0F9F8204600F0CAFD304600F0C7FD3320FFF786FE02462849204602F0EBF8204600F0BCFD304600F0B9FDB8F81830ADF80C308DF8D4
:400C00002B502B463A46022103A8FFF761FB3320FFF76CFE02461C49204602F0D1F8204600F0A2FD304600F09FFD0CB0BDE8F0872C3600006883FF1F543600007C36000031
:400C4000A4360000BC360000D4360000F836000010370000343700004C3700007037000088370000AC370000C8370000E0370000FC370000243800003C3800006038000041
:400C8000783800009C380000BC3800000C36000030B583B00546E8238DF8073000240AE004EB44035A0006232A4401210DF10700FFF70EFB01341F2CF2DD03B030BD00BF47
:400CC000F0B5A5B0002308E000EB4302517824AA1A4402F8601C0133DBB25F2BF4D900211DE001EB41035A0024A8104410F8604C24A8184400F8904C581C541C24AD2C449F
:400D000014F8604C284400F8904C023302322A4412F8602C2B4403F8902C0131C9B20F29DFD90A48A0F13004F022214602F034F86E460CAF35460FCD20606160A260E36091
:400D40002E461034BD42F5D125B0F0BD7882FF1F70B50131C9B2052915D104463C22002102F025F8164B204603F130021E685D689C68D968066045608460C160103310308E
:400D80009342F3D170BDA1EB01118B0003F590720B4B134403F130021E685D689C68D968066045608460C160103310309342F3D119685A689B6801604260836070BD00BFA3
:400DC0004882FF1F10B59AB0A0238DF86030C0238DF86430002308E000EB430251781AAA1A4402F8681C0133DBB25F2BF4D9002415E004EB44031344013B1AA90B4413F86D
:400E0000681C1AAB134403F8081C013200E00122032AEEDD052118A800F0B8FC01341F2CF5DD1AB010BD00BF30B583B02E238DF8043000248DF8054002AD05F8054D23461C
:400E40002A46022101A8FFF743FA012000F0D8FC064B1B88ADF800308DF8034023462A4602216846FFF734FA03B030BD1836000000B583B022238DF8043000238DF805300E
:400E800002AA02F8053D022101A8FFF721FA03B05DF804FB00B583B0074B1B88ADF80430002302AA02F8053D022101A8FFF710FA03B05DF804FB00BF2836000008B500F008
:400EC00097FD10F0800F01D000F06CFD08BD00BF08B500F08DFD10F0800F01D100F0C6FDFF2000F073FD08BD08B500F081FD10F0800F01D100F0BAFD7F2000F067FD08BDA7
:400F000010B5044601F0D0FDFF2802DC002803DA01E0FF2000E00020C0B23F2803D9BE2802D9012400E00024204610BD70B40B46043030311E685D689C68DA680660456062
:400F40008460C260103310308B42F3D119685A689B6801604260836070BC7047F0B591B007468DF800108DF80120ADF8023016996846FFF7DBFF6C463D460DF1400E2646E9
:400F80000FCE28606960AA60EB60344610357645F5D1384611B0F0BD08B501F047FBC04380B208BD70B40B7803704B7843704B8883704B881B0AC3700B1D043034311E68D0
:400FC0005D689C68DA68066045608460C260103310308B42F3D119685A689B6801604260836070BC704700BF70B40B7803704B784370CA788B7843EA022343800B1D0430AD
:4010000034311E685D689C68DA68066045608460C260103310308B42F3D119685A689B6801604260836070BC704700BF00B591B001466846FFF7B6FF4021684600F0A6FB91
:4010400011B05DF804FB00BFFEE700BFF0B40022174611E050F82760F3B226F0FF0608E001EB420511F812406D78A5550132013BDBB2002BF4D10137242FEBD9F0BC704762
:401080000A4B1B78DBB203F00701094A11701B09013213700822074B1A708023064A1370583213704422054B1A707047CF0100496E5800403D510040005B004076580040FC
:4010C00008B50A46002101F072FE08BD08B501F063FE08BD70B500243E4B1C80502202331A70032602331E8018233B4A13700B210232118002321370192502321580023207
:401100001370EF21023211800232137047F22F530232138002321570023213802F4B1D7040F2E73202331A801B2202331A7004222B492C48FFF7CAFF02222B4B1A70082266
:401140004FF040231A7003F500731E70274B1B78DBB227490B70274B1A8041F25122023B1A800CE0244B1B7803F0010343EA440404F003044FF4F07001F0D2FD013D0DB190
:40118000032CEFD115B90320FFF75EFF1B4B4FF480721A8007221A70002219490A704820023108701A700222033B1A7004220A331A7003F297331A78FF221A70114A1378BE
:4011C00043F001031370013A137843F08003137070BD00BF80400040864000409A400040A00A0048004100400043004008010049A1460040224200402542004004400040EC
:4012000006400040A1430040012807D8044B53F820201844017A13780B431370704700BFE8380000012808D8044B53F820201844017A137823EA010313707047E8380000A9
:4012400038B572B6394A137843F00403137000240BE0374863001A19510001440A46098AD068FFF72DFF0134E4B20B2CF1D900240CE02F48A20011194B000344B3F85C20BF
:40128000996D586DFFF722FF0134E4B2032CF0D928494FF09040FFF7D9FE0A24264B1C70264A137843F0020313701032137843F002031370224D2B7843F040032B70A2F519
:4012C0008632513A137843F01003137008221D491D48FFF7FBFE22461C491D48FFF7F6FE22461C491C48FFF7F1FE22461B491C48FFF7ECFE08221B491B48FFF7E7FE1B4A00
:40130000137843F008031370194C61232370FFF7E1FE812323700122164B1A70FFF7B0FE0E2229461448FFF7D1FE38BDE8460040E838000094000048835800400350014059
:40134000A04300406C0A004802510040740A0048C0510040800A0048105100408C0A004820510040980A004832510040224300400048004004000840B043004008B501F0D9
:40138000DFFC03680C2B00D1FEE7FEE708B5094B1A681044084BC31A802B02DC054B186005E001F0CDFC0C2303604FF0FF32104608BD00BFCC80FF1F1884FF1F08B5104EF3
:4013C000104D16E029686B68AC68002204E051F8040B43F8040B0432A242F8D1E868002203E0002143F8041B04328242F9D11035013E002EE6D101F0A9FCFEF743FEFEE7E9
:4014000001000000C039000008B5104A104B1A60104A136843F40073136000230AE0032B03D80D4A52F8231000E00C490C4A42F8231001332F2BF2D90A4B1A780A4B1A70D3
:40144000074A0A4B1A60FFF7FBFE08BD0004FA050CED00E014ED00E0000000007D1300000080FF1FBC760040C080FF1F08ED00E0014B1B681864704708ED00E04001C0B27E
:40148000014B1870704700BF00E400E00122014B1A60704700E100E00122014B1A60704780E100E010B50446FFF7F6FF2046FFF7DFFF0520FFF7E2FFFFF7E8FF10BD00BF43
:4014C000024A137843F080031370704777640040014B1870704700BF07650040014B1870704700BF47650040014B1870704700BF27650040014B1870704700BF37650040A2
:40150000014B1870704700BF87650040014B1878704700BF67650040014B1878704700BF5765004008B501E0FFF7F6FFFFF7EEFF10F0100FF8D108BD10B5134A137803F0D0
:40154000C00343F009031370104C237843F001032370FF20FFF7BCFFFF20FFF7BFFF7F20FFF7C2FF3F20FFF7C5FF0020FFF7C8FF01F0DEFB237843F01003237001F0DCFB30
:40158000FFF7D0FF10BD00BF776400409765004008B5054B1B7823B9FFF7CEFF0122024B1A70FFF78DFF08BD6481FF1F024A137843F080031370704775650040014B18704B
:4015C000704700BF05650040014B1870704700BF45650040014B1870704700BF25650040014B1870704700BF85650040014B1878704700BF65650040014B1878704700BF61
:401600005565004008B501E0FFF7F6FFFFF7EEFF10F0100FF8D108BD10B5114A137803F0C00343F0090313700E4C237843F001032370FF20FFF7C2FFFF20FFF7C5FF7F2067
:40164000FFF7C8FF0020FFF7CBFF01F071FB237843F01003237001F06FFBFFF7D3FF10BD756500409565004008B5054B1B7823B9FFF7D2FF0122024B1A70FFF797FF08BD2A
:401680006581FF1F014B1B689864704708ED00E04001C0B2014B1870704700BF02E400E00422014B1A60704700E100E00422014B1A60704780E100E010B50446FFF7F6FFCA
:4016C0002046FFF7DFFF0620FFF7E2FFFFF7E8FF10BD00BF7222074B1A700023064A13700621A2F269121170472110321170513213707047886500408965004010B501F034
:4017000017FB04460A4A137843F0200313700132137843F010031370A2F58472137843F01003137000F046F8204601F005FB10BD9865004008B5054B1B7823B9FFF7CAFF63
:401740000122024B1A70FFF7D9FF08BD6681FF1F034B1B7813F0040FFAD1024B18707047616400404164004038B5074B1B782BB938BDFFF7EDFF0134A4B201E00546002437
:40178000285D0028F5D138BD6681FF1F084B1B7833B97047305DFFF7DBFF0134E4B203E070B50D4606460024AC42F3D370BD00BF6681FF1F054A137843F0080313701032BE
:4017C000137843F008031370704700BFA243004001BE704710B5044605E0084B186801F09FFAA4F50044B4F5004FF6D8034B586800FB04F001F094FA10BD00BFD080FF1F22
:4018000008B5034B1B7A00FB03F001F089FA08BDD080FF1F70B504460E46074B1D681F2802D90020FFF7D4FF04F01F04103455F8240045F8246070BD08ED00E038B5044608
:401840000D46072902D90020FFF7C2FF1F2C02D90020FFF7BDFF04F01F0000F1604000F564406D01EDB2057038BD00BF084A137843F0010313701032137843F001031370AA
:4018800002F64D32137843F001031370704700BFA3430040014B1870704700BF034F0040014B1880704700BF044F0040014B1880704700BF064F004008B5204A137803F073
:4018C000010313701E4B197801F0FC011970117841F0040111701A7802F0F3021A701A7842F00C021A701A7802F07F021A701A7842F080021A701A78D2B21A7009331A7884
:4019000002F0CF021A701A7842F030021A701A7802F0F0021A701A7842F00F021A70094A137843F001031370C720FFF7B9FFC720FFF7BCFF0820FFF7ADFF08BD004F004098
:40194000024F0040014F004008B5054B1B7823B9FFF7B2FF0122024B1A70FFF787FF08BD6881FF1F044A137803F07F03C001C0B218431070704700BF10510040044A137895
:4019800003F0EF03000100F0100018431070704720510040024A137843F080031370704774650040024A137803F07F031370704774650040014B1870704700BF046500408C
:4019C000014B1870704700BF44650040014B1870704700BF24650040014B1870704700BF84650040014B1878704700BF64650040014B1878704700BF74650040014B18788C
:401A0000704700BF5465004008B501E0FFF7F6FFFFF7E8FF10F0100FF8D108BD10B5114A137803F0C00343F00A0313700E4C237843F001032370C820FFF7BCFFC820FFF7CA
:401A4000BFFF6420FFF7C2FF0020FFF7C5FF01F06FF9237843F01003237001F06DF9FFF7D3FF10BD746500409465004008B5054B1B7823B9FFF7D2FF0122024B1A70FFF755
:401A800089FF08BD6981FF1F024A137843F080031370704776640040014B1870704700BF86640040014B1878704700BF66640040014B1870704700BF26640040014B187830
:401AC000704700BF46640040014B1870704700BF0664004008B501E0FFF7F0FFFFF7E2FF10F0080FF8D108BD08B56320FFF7E0FF6320FFF7E9FF01F01BF9064A137843F00A
:401B00001003137001F018F9FFF7E4FF0120FFF7C3FF08BD9664004008B5054B1B7823B9FFF7E2FF0122024B1A70FFF7ADFF08BD6A81FF1F014B1B685864704708ED00E088
:401B40004001C0B2014B1870704700BF01E400E00222014B1A60704700E100E00222014B1A60704780E100E010B50446FFF7F6FF2046FFF7DFFF0720FFF7E2FFFFF7E8FF50
:401B800010BD00BF4022014B1A60704700E100E02022014B1A60704700E100E008B501F0C7F80C4A137843F020031370A2F20112137843F010031370013A137843F010034B
:401BC000137001F0B9F800F0ADFCFFF7DBFFFFF7DFFF08BD966500404022014B1A60704780E100E02022014B1A60704780E100E010B5FFF7F1FF064B1C78064A137803F005
:401C000009031C4300231370FFF7BCFF204610BD65640040D183FF1F10B5FFF7E3FF064B1B78064A147804F040041C4300231370FFF7AEFF204610BD64640040E183FF1F3A
:401C400010B504462B4B1A7802F0FF0312B1013BDBB200E00723284A1278D2B29342F1D0FFF7BAFF254B1978254A137803F009030B4313701F4B1A78D2B21F4B1B78DBB229
:401C80009A4207D11E4B1B7813F0040F02D01D4B1C702CE0184A13780133DBB213701378DBB2072B02D90022134B1A70124B1A78D2B2104B1B78DBB29A420ED10D4A1378A1
:401CC0000133DBB213701378DBB2072B02D90022084B1A7001220C4B1A70074B1B78DBB20A4AD4540A4A137843F004031370FFF749FF10BDD283FF1FD083FF1F65640040F6
:401D0000D183FF1F45640040D483FF1FD883FF1F8564004010B5FFF765FF134B1A78D2B2124B1B78DBB29A4214D0114B1B7813F0FF0F0CD10C4A13780133DBB213701378D4
:401D4000DBB2072B06D90022074B1A7002E00022074B1A70044B1B78DBB2064AD45CE4B2FFF716FF204610BDEC83FF1FE083FF1FD383FF1FE483FF1F08B501E0094B1B7898
:401D8000094B1B7813F0200FF8D1FFF72BFF0023064A1370064A1370064A1370FFF7F8FE08BD00BF5564004064640040D383FF1FEC83FF1FE083FF1F08B500F0B9FF0E4BD4
:401DC0001A7842F001021A701A7802F0FE021A7000F0B2FFFFF700FF0023084A1370084A1370084A1370084A137803F0FB031370FFF7C8FE08BD00BF95640040D483FF1F0D
:401E0000D283FF1FD083FF1F8564004070B506460C46002506E0705DFFF712FF0135EDB2013CE4B2002CF6D170BD00BF08B501E00A4B1B780A4B1B7813F0200FF8D100F013
:401E400077FF084B1A7842F001021A701A7802F0FE021A7000F070FF08BD00BF55640040646400409564004038B50F22174B1A70174C4023236004210620FFF7DFFC154950
:401E80000620FFF7C7FC2025256004210520FFF7D5FC11490520FFF7BDFCFFF7C7FF00240E4B1C700E4B1C700E4B1C700E4B1C700E4B1C700E4B1C70FFF79AFEFFF7ACFECE
:401EC0000C4B1C70013B1D7038BD00BF8665004080E100E0151F0000B51F0000D383FF1FEC83FF1FE083FF1FD483FF1FD283FF1FD083FF1F8564004008B5054B1B7823B98E
:401F0000FFF7B2FF0122024B1A70FFF747FE08BD6B81FF1F28E01F4B19781F4A137803F009030B431370137813F0040F24D01B4B1B7813F0FF0F0CD1194A13780133DBB204
:401F400013701378DBB2072B06D90022144B1A7002E00022114B1A70114B1B78DBB2114AD35CDBB2104A13700D4B1A78D2B20F4B1B78DBB29A42CED1094B1A78D2B20B4B2D
:401F80001B78DBB29A4204D1094A137803F0FB031370704765640040D183FF1FD483FF1FD283FF1FD883FF1F45640040D083FF1F85640040204B1A7820490B7803F04003C9
:401FC00013430B7032E01E4B1A78D2B21D490B780133DBB20B700B78DBB2072B02D90021184B1970174B1978C9B2174B1B78DBB299420ED114490B780133DBB20B700B78E7
:40200000DBB2072B02D900210F4B197001210F4B19700C4B1B78DBB20D49CA54064B1A7806490B7803F0400313430B70034B1B7813F0200FC7D1704764640040E183FF1F6A
:4020400055640040E083FF1FEC83FF1FD383FF1FE483FF1F1022014B1A60704700E100E00822014B1A60704700E100E008B500F05FFE0C4A137843F020031370013A1378FE
:4020800043F010031370023A137843F01003137000F052FE00F054FAFFF7DCFFFFF7E0FF08BD00BF936400401022014B1A60704780E100E00822014B1A60704780E100E010
:4020C00010B5FFF7F1FF064B1C78064A137803F009031C4300231370FFF7BCFF204610BD62640040F083FF1F10B5FFF7E3FF064B1B78064A147804F040041C43002313705C
:40210000FFF7AEFF204610BD606400400C84FF1F10B504462B4B1A7802F0FF0312B1013BDBB200E00723284A1278D2B29342F1D0FFF7BAFF254B1978254A137803F00903B7
:402140000B4313701F4B1A78D2B21F4B1B78DBB29A4207D11E4B1B7813F0040F02D01D4B1C702CE0184A13780133DBB213701378DBB2072B02D90022134B1A70124B1A789D
:40218000D2B2104B1B78DBB29A420ED10D4A13780133DBB213701378DBB2072B02D90022084B1A7001220C4B1A70074B1B78DBB20A4AD4540A4A137843F004031370FFF797
:4021C00049FF10BD0984FF1F0A84FF1F62640040F083FF1F43640040FC83FF1FF483FF1F8264004010B5FFF765FF134B1A78D2B2124B1B78DBB29A4214D0114B1B7813F0DB
:40220000FF0F0CD10C4A13780133DBB213701378DBB2072B06D90022074B1A7002E00022074B1A70044B1B78DBB2064AD45CE4B2FFF716FF204610BDF183FF1F0B84FF1F85
:402240000884FF1F0084FF1F08B501E0094B1B78094B1B7813F0200FF8D1FFF72BFF0023064A1370064A1370064A1370FFF7F8FE08BD00BF53640040606400400884FF1FDA
:40228000F183FF1F0B84FF1F08B500F051FD0E4B1A7842F001021A701A7802F0FE021A7000F04AFDFFF700FF0023084A1370084A1370084A1370084A137803F0FB0313700D
:4022C000FFF7C8FE08BD00BF93640040FC83FF1F0984FF1F0A84FF1F8264004070B506460C46002506E0705DFFF712FF0135EDB2013CE4B2002CF6D170BD00BF08B501E086
:402300000A4B1B780A4B1B7813F0200FF8D100F00FFD084B1A7842F001021A701A7802F0FE021A7000F008FD08BD00BF53640040606400409364004010B50F22174B1A7097
:40234000174C1023236004210846FFF777FA15490420FFF75FFA0823236004210320FFF76DFA11490320FFF755FAFFF7C7FF00240E4B1C700E4B1C700E4B1C700E4B1C7010
:402380000E4B1C700E4B1C70FFF79AFEFFF7ACFE0C4B1C702022023B1A7010BD8364004080E100E0E5230000852400000884FF1FF183FF1F0B84FF1FFC83FF1F0984FF1F22
:4023C0000A84FF1F8264004008B5054B1B7823B9FFF7B2FF0122024B1A70FFF747FE08BD6C81FF1F28E01F4B19781F4A137803F009030B431370137813F0040F24D01B4B21
:402400001B7813F0FF0F0CD1194A13780133DBB213701378DBB2072B06D90022144B1A7002E00022114B1A70114B1B78DBB2114AD35CDBB2104A13700D4B1A78D2B20F4B93
:402440001B78DBB29A42CED1094B1A78D2B20B4B1B78DBB29A4204D1094A137803F0FB031370704762640040F083FF1FFC83FF1F0984FF1FF483FF1F436400400A84FF1F20
:4024800082640040204B1A7820490B7803F0400313430B7032E01E4B1A78D2B21D490B780133DBB20B700B78DBB2072B02D90021184B1970174B1978C9B2174B1B78DBB236
:4024C00099420ED114490B780133DBB20B700B78DBB2072B02D900210F4B197001210F4B19700C4B1B78DBB20D49CA54064B1A7806490B7803F0400313430B70034B1B7858
:4025000013F0200FC7D17047606400400C84FF1F536400400B84FF1FF183FF1F0884FF1F0084FF1F054A137843F0040313701032137843F004031370704700BFA24300402A
:40254000054A137843F0020313701032137843F002031370704700BFA2430040084A137843F0020313701032137843F00203137002F65932137843F001031370704700BF45
:40258000A3430040014B1870704700BF0F4F0040014B1880704700BF104F0040014B1880704700BF124F004008B5164A137803F0010313700232137803F0FC031370124B66
:4025C0001A7802F0CF021A701A7842F030021A701A7802F0F0021A701A7842F00F021A700A4A137843F0010313704FF6FF70FFF7CFFF4FF6FF70FFF7D1FF0020FFF7C2FFBB
:4026000008BD00BF0C4F0040174F00400D4F004008B5054B1B7823B9FFF7C6FF0122024B1A70FFF79BFF08BD6D81FF1F024B1B88024B188880B27047124F0040144F00409D
:4026400010B59DF80840012C51D1013809282ED8DFE800F0052D2D052D2D0F192D230F2B03D92548007840B222E02448007840B21EE00F2B03D92248007840B218E02148FE
:40268000007840B214E00F2B03D91F48007840B20EE01E48007840B20AE00F2B03D91C48007840B204E01B48007840B200E0002001EB401101FB02F1C90B8AB20D2B0BD841
:4026C000C3F10E0289B211418AB2611E124800EB810101338B7005E0631E0F4901EB83030F219970013C0C4B23F8242010BD0020FFF76EF810BD00BF180100491C010049DF
:40270000190100491D0100491A0100491E0100491B0100491F0100497081FF1FF8B5074600F006FB06460D4D2B7843F003032B700B4C237843F0030323700A4B1F70032059
:40274000FFF75EF82B7803F0FC032B70237803F0FC032370304600F0EFFAF8BDF8460040F9460040925800400022314B1A7101285CD170B538222F4B1A70042202331A70AB
:40278000062201331A70002401331C7001331C700F2201331A7002331C7001331C7001331C7001250A331D70142203F527631A70052601331E70162201331A7001331C708A
:4027C000442203331A70482201331A7001331D7002331C7001331C700A2201331A70432201331A705220FFF799FF5822124B1A7001331C7005331E70022201331A7001333F
:402800001C7001331C70204600F074F933220B4B1A602946304600F091F92946BA2000F011FA07491D20FEF7F5FF70BD704700BF7081FF1F004E0040945800401084FF1F2D
:40284000D12A0000F0B583B0284D01272F70284E00247471102000F05FF9102000F0E0F907211D20FEF7EAFF0422224B1A7001331C7007331C70204A137843F018031370AD
:402880001E4B1C7003F2F5231C7001331C700A22A3F209331A7001331C7002331C70122205331A70132201331A7004331C701422A3F68C231A70009708234FF4004248F689
:4028C0006B510220FFF7BCFE2B78013B06EB83039A780B4B1A702B78013B36F82320094B1A802878FFF740FF03B0F0BDE080FF1F7081FF1F96580040075B00409358004007
:402900000E4E00400C4E004070B500F011FA06462A4B1B782A4B1A7842F001021A701A7842F010021A7010331A7842F001021A701A7842F010021A70224D2B7843F0020389
:402940002B70214C237843F0020323701F4A137843F0030313700320FEF752FF2B7803F0FD032B70237803F0FD032370184A137843F0060313707A22164B1A70164A137860
:4029800043F0010313701032137843F0010313700F3A137843F0010313701032137843F0010313704FF000530C4A1360A2F5C0721360304600F0C0F970BD00BFE080FF1FA1
:4029C000AA430040F8460040F9460040915800407758004082580040A143004080E200E008B5084B9B794BB9064BDB7913F0FF0F01D1FFF727FF0122024B9A71FFF784FF35
:402A000008BD00BF7081FF1F024A137843F0010313707047004E0040024A137803F0FE0313707047004E0040094B1B7913F0FF0F03D0074B5B79DBB203E0064B1B7803F061
:402A40000103012B01D00028EED01846704700BF7081FF1F014E00400E4B1B7803F00303012B03D80C4B188880B209E00A4A12780A49087842EA0020032B01D1084B1B781C
:402A8000084B1B7913F0FF0F02D00022054B5A7100B27047144E0040104E0040114E0040124E00407081FF1F10B5084A137843F004031370FFF7A8FF0020FFF7B5FFFFF75C
:402AC000CBFF0446FFF7A8FF204610BD014E0040704700BF10B5002404E02046FEF7A2FB0134E4B2012CF8D9FF22014B1A7010BDE180FF1F10B50446FFF7ECFF2046FEF7D1
:402B000083FB014B1C7010BDE180FF1F014B188880B2704780400040034B1A7800F0F80010431870704700BF82400040024B187800F00700704700BF8240004070B5054647
:402B40000E46FFF7F3FF0446FFF7E0FFA84256D02B4B1B7803F0010294B900B185B938B9284B1D80284A137803F0BF03137070BD254A137843F040031370224B1D8070BD22
:402B800022B3002321490B7001240F310C7004310B700C390B7803F07F030B701A4B1B7813F0080F00D08DB9194B18800721013B1970164B1B7813F0010FFAD110490B7830
:402BC00003F0FE030B700021104B19700C4B1B7813F0010F0DD00E4B1D800EB1032200E001220A4B1A70094B1B7813F0010FFAD170BD044B1D8002490B7813430B7070BD21
:402C0000A243004080400040824000400140004002400040014B188880B2704700410040034B1A7800F0F80010431870704700BF02410040024B187800F00700704700BF2E
:402C40000241004070B505460E46FFF7F3FF0446FFF7E0FFA84256D02B4B1B7803F0010294B900B185B938B9284B1D80284A137803F0BF03137070BD254A137843F04003E8
:402C80001370224B1D8070BD22B3002321490B70012413310C7004390B7008390B7803F07F030B701A4B1B7813F0080F00D08DB9194B18800721013B1970164B1B7813F024
:402CC000010FFAD110490B7803F0FE030B700021104B19700C4B1B7813F0010F0DD00E4B1D800EB1032200E001220A4B1A70094B1B7813F0010FFAD170BD044B1D800249EA
:402D00000B7813430B7070BDA143004000410040024100400140004002400040000000000230800803D000BF01380046FCD17047EFF3108072B6704780F31088704700BFC6
:402D4000014B1868704700BF4481FF1F0E4B70B51E460E4C0025E41AA410A54204D056F8253098470135F8E700F018FE084B094C1E46E41AA4100025A54204D056F8253082
:402D800098470135F8E770BDA8390000A8390000A8390000B039000010B5431E0A44914204D011F8014B03F8014FF8E710BD03460244934202D003F8011BFAE7704700001A
:402DC0000EB400B54FF402719CB0ADF814106FF00041049107914FF6FF711DAB02900690084853F8042BADF81610006802A9019300F064F8029B00221A701CB05DF804EB3E
:402E000003B070474481FF1F2DE9F0478E6882469E420C46914698463ED88A8912F4906F3AD02568096902236F1A656905EB450595FBF3F57B1C43449D4238BF1D4653053F
:402E40000FD5294600F040FB064698B13A462169FFF7A2FFA38923F4906343F08003A38113E02A4600F08EFB064670B92169504600F0DEFA0C23CAF80030A3894FF0FF309A
:402E800043F04003A381BDE8F08726613E44266046466561ED1BA560464528BF464649463246206800F0A8FAA36800209B1BA36023681E442660BDE8F08700002DE9F04F87
:402EC0009DB003938B8980461C060D4616460DD50B695BB9402100F0F7FA2860286118B90C23C8F80030CDE040236B610023099320238DF82930DFF89CB130238DF82A3085
:402F000037463C4614F8013B1BB9B7EB060910D003E0252BF9D02746F3E74B46324629464046FFF771FF013000F0A780099B4B4409933B78002B00F0A08000234FF0FF32A6
:402F400004930793059206938DF853301A930126052221784E4800F041FA671C049B38B14B4A3C46801A06FA00F018430490EFE7D90644BF20228DF853201A0744BF2B2295
:402F80008DF8532022782A2A03D0079A00210A200BE0039A111D12680391002A10DA524243F00200079204900BE027463B780134303B092B03D800FB02320121F5E701B105
:402FC00007923B782E2B1ED17B782A2B0AD1039B02371A1D1B680392002BB8BF4FF0FF33059310E0002319460593781C0A2407463A780130303A092A03D804FB0121012390
:40300000F5E703B1059103223978224800F0E6F940B14023CBEB000003FA00F0049B013718430490397806221B487E1C8DF8281000F0D4F988B1194B33B9039B073323F0DA
:4030400007030833039314E003AB00932A46144B04A94046AFF3008007E003AB00932A460F4B04A9404600F093F8B0F1FF3F824603D0099B5344099342E7AB895B0601D498
:40308000099801E04FF0FF301DB0BDE8F08F00BF663900006C3900007039000000000000092E00002DE9F04791461F460A698B6806469342B8BF1346C9F8003091F843208F
:4030C0000C46DDF8208012B10133C9F800302368990642BFD9F800300233C9F80030256815F0060510D104F1190A07E00123524639463046C04701301AD00135E368D9F82D
:4031000000209B1A9D42F1DB94F843302268003318BF012392060FD5E118302081F843005A1C94F845102244023382F8431003E04FF0FF30BDE8F08704F14302394630467C
:40314000C0470130F4D02268D9F80050E36802F00602042A08BF5D1B2269A3680CBF25EAE57500259342C4BF9B1AED184FF000091A344D4509D00123224639463046C0476C
:403180000130D5D009F10109F3E70020BDE8F0872DE9F04317460A7E85B06E2A984606460C460C9B01F1430E00F0AE8011D8632A22D009D8002A00F0BB80582A40F0CA8006
:4031C00081F84520834955E0642A1ED0692A1CD0C0E0732A00F0B08009D86F2A2ED0702A40F0B8800A6842F020020A603EE0752A24D0782A3AD0ADE01A6801F14205111D1B
:403200001960136884F84230A8E021681A6811F0800F02D0111D196008E011F0400F02F10401196002D0B2F9003000E01368002B3CDA2D225B4284F8432037E021681A6831
:4032400011F0800F02D0111D196007E011F0400F02F10401196001D0138800E01368227E5C496F2A14BF0A2208221BE078225A4984F845202268186812F0800F00F1040521
:403280001D6003D1550601D5038800E00368D00744BF42F0200222601BB9226822F0200222601022002084F8430001E049490A226568002DA56008DB206820F00400206044
:4032C0002BB9002D7DD175460CE0002B79D07546B3FBF2F002FB1033CB5C05F8013D03460028F5D1082A0BD12368DA0708D5236962689A42DEBF302305F8013C05F1FF3553
:40330000C5EB0E0323612EE008681A6810F0800F496903D0101D1860136808E010F0400F02F104001860136801D0198000E0196000232361754616E01A68111D1960156832
:4033400000216268284600F049F808B1401B6060636804E004F1420584F8422001232361002384F84330CDF800803B4603AA21463046FFF797FE013002D14FF0FF3026E019
:4033800023692A4639463046C0470130F5D023689B0710D5002504F1190907E001234A4639463046C0470130E7D00135E368039A9B1A9D42F2DBE068039B9842B8BF18463E
:4033C00005E00B7804F1420584F842308AE705B0BDE8F083773900008839000010B5C9B202449042034605D01C7801308C42F8D1184610BD002010BD884210B501EB020322
:4034000001D8421E0BE09842FBD28118D21AD34204D013F8014D01F8014DF8E710BD994204D011F8014B02F8014FF8E710BD000038B50546002944D051F8043C0C1F002BB9
:40344000B8BFE41800F0D4F81E4A1368114613B96360146030E0A3420DD92268A018834201BF18685B681218226063600C6023E0A24203D813465A68002AF9D1186819189E
:40348000A1420BD12168014458188242196013D110685268014419605A600DE002D90C232B6009E021686018824201BF106852680918216062605C602846BDE8384000F087
:4034C00098B838BD8081FF1F70B5CD1C25F0030508350C2D38BF0C25002D064601DBA94202D90C23336046E000F082F8234B1C681A462146A1B10B685B1B0ED40B2B03D94A
:403500000B60CC18CD501EE08C420BBF63684B681360636018BF0C4615E00C464968E9E7174C23681BB9304600F052F820602946304600F04DF8431C18D0C41C24F0030496
:40354000A0420DD12560304600F053F804F10B00231D20F00700C31A0ED05A42E25070BD211A304600F034F80130EBD10C233360304600F03EF8002070BD00BF8081FF1F05
:403580007C81FF1FF8B5074615460E4621B91146BDE8F840FFF798BF1AB9FFF749FF2846F8BD00F027F885420ED929463846FFF78BFF044650B131462A46FFF7EDFB314607
:4035C0003846FFF735FF01E03046F8BD2046F8BD38B5064C0023054608462360FDF7D6FE431C02D1236803B12B6038BD1484FF1F7047704751F8040C0028BEBF091851F839
:40360000043CC0180438704700000000206F000023800000244000002E400000302A00003264000033140000224200002A2A2A2A2A2A2A2A2A202020204C4953334448201F
:4036400054455354202020202A2A2A2A2A2A2A2A2A0D0A0057484F20414D2049205245473A20307825303258205B45787065637465643A20307833335D0D0A002A2A2A2AE4
:403680002A2A2A2A2A2A2A2A2A2A2A2A2A2A2A2A2A2A2A2A2A2A2A2A2A2A2A2A2A2A2A2A2A0D0A00535441545553205245473A20307825303258200D0A0000004354524C5A
:4036C00020524547313A20307825303258200D0A000000004354524C20524547312041465445522057524954453A20307825303258200D0A000000004354524C2052454797
:40370000333A20307825303258200D0A000000004354524C20524547332041465445522057524954453A20307825303258200D0A000000004354524C20524547343A203092
:403740007825303258200D0A000000004354524C20524547342041465445522057524954453A20307825303258200D0A000000004354524C20524547353A2030782530320E
:4037800058200D0A000000004354524C20524547352041465445522057524954453A20307825303258200D0A000000002D2D2D2D4649464F20464C555348494E472D2D2DDE
:4037C0002D2D0D0A000000002A2A2A2A2A2A2A2A2A4649464F20464C55534845440D0A004649464F204354524C205245473A20307825303258200D0A000000004649464FC5
:40380000204354524C205245472041465445522057524954453A20307825303258200D0A00000000494E543120434647205245473A20307825303258200D0A00494E5431A2
:4038400020434647205245472041465445522057524954453A20307825303258200D0A00494E543120544853205245473A20307825303258200D0A00494E54312054485399
:40388000205245472041465445522057524954453A20307825303258200D0A00494E5431204455524154494F4E205245473A20307825303258200D0A00000000494E5431E1
:4038C000204455524154494F4E205245472041465445522057524954453A20307825303258200D0A00000000035B00402443004040000000004F00401800405100403000C2
:40390000F0510040100000000140800200030140800100050140000180060140800900140140000480180140800300400140000A004C014000020050014020008002014094
:403940006C080048800080040140EC0800488000000601406C090048800000180140EC09004880004300232D302B2000686C4C0065666745464700303132333435363738EA
:4039800039414243444546003031323334353637383961626364656600000000F8B500BFF8BC08BC9E4670474D00000009140000F8B500BFF8BC08BC9E4670472900000046
:4039C000D0390000C880FF1F80000000D0020000000000001884FF1F0000E02EC05D00001800000000366E0101FF0000000000000000000000000000000000000000000064
:403A000000000000000000000000000064390000000000000000000000000000000000000000000000000000000000000000000000000000000000000000000000000000E9
:403A4000000000000000000000000000E480FF1F000000000000000000000000000000000000000000000000000000000000000000000000000000000000000000000000C4
:403A80000000000000000000000000000000000000000000000000000000000000000000000000000000000000000000000000000000000000000000000000000000000006
:403AC00000000000000000000000000000000000000000000000000000000000000000000000000000000000000000000000000000000000000000000000000000000000C6
:403B00000000000000000000000000000000000000000000000000000000000000000000000000000000000000000000000000000000000000000000000000000000000085
:403B40000000000000000000000000000000000000000000000000000000000000000000000000000000000000000000000000000000000000000000000000000000000045
:020000040003F7
:0200000480007A
:40000000044F004008520040036400400665004062000140390101401D0201404F0301401C0401404C050140180601404907014002090140020B0140040C0140060D01400E
:40004000611401403F150140511601404C1701401218014038190140061B0140084001400F4101401042014008430140064401400C4501400446014005470140064801408D
:4000800009490140064C0140054D0140065001400251014001600A4B0D70164B004001601002110218C019806004610C810F830F860D840D850D860F870F887289380220E0
:4000C0000412060408020A0D0C2D1011120214121608202D242D282D2C0D2E20320F342036103A083E504002460449FF4A074BFF4C404D204EF04F0550085440560458044C
:400100005A045B045C015D135F01604061A86240632084A0853187C68B538D308F40900191AC9343940295319618974E98489A809B8C9C80A004A308A460A688A880AA60F3
:40014000ACE0AE10B002B10FB2F8B3F0B404B58AB601BB2ABE51C025C103C5E0C6BCC80EC9FFCAFFCBFFCEF0CF44D00CD401D804D904DA04DB04DC33DD33DF01E6C0EA400C
:40018000EB020080010A0280030806200AA00C100D400E901028114013011501176819801B181D411E182514260127682F40304031403410361137083C203D083F80431015
:4001C000472848104A204D014E0151405340566057405C405D015E085F10629063608740C02FC2FCC4FFCA80CCE0CE70D064D210D6F0D80F0001051D091D0F10180819026B
:400200001A031B141D081F112A0430023208330C340435033601371039283E043F4454095604580459045B045C365D105F010010014805010AA40B420E08102813811404AE
:4002400018101A411D411E081F042004221825402610271029083258362037403A403D283F8040044201430849124B44525053015E415F14620865806780686969406B809F
:4002800073017C407D80874088048C108E109440954096A09701984099809B409D0A9E109F10A114A220A340A468A650B261B310B501C017C24FC44FCA02CC3ECE78D00E60
:4002C000D20CD6F0D892E210E610EE0100980202042106D80C9A1013126414FC160318381AC01C9A20022498260228022A983013320F34E03A285440560458045B045C0140
:400300005D205F010082010805410AA40B010D200E1210281240154119081A841B081D201E921F012501272A2E803602372839013B023F124408450A46804C054D044E82E2
:400340004F10571558015B025C015D045E60604062886308640167407A107B108041810887408B048D019004922093099694984099409A409D08A069A204A640A708A91003
:40038000AE40AF10C09DC2EFC49ECA10CCE0CEA0D0E0D230D6F0D89FE290EE0485048739890E8C048F2092059D139F04A505A73AAE02B001B404B50FB602B730B920D2809E
:4003C000D804D904DB04DC14DD40DF0100400420054406800B800E020F601002172A184019101A011D422150240A25402628270829082C082E802F203240350436A037064C
:40040000380439A03D823F60444045104D404F85544057405E805F057002740175017F018008810283208D40900492809302940A95409640984099089D01A284A310A50A27
:40044000A608AB20B408C0F1C2B8C471CA72CCF8CEBED0A0D210D6D0DE10E610EE08AD02EA409902EE04B802BE01D804DF0119028102E404E680EC40EE01061807050C03AE
:4004800011011220140416091B02230228042A12300431043203330234203618370138023F044020410445D046024701481E49FF4AFF4BFF4DA04F04501852805405580433
:4004C00059045A045B045C455D555F01604062C06440654066C068C06AC06CC06EC087048B018E059E049F06A302A609A901AE02B002B102B208B404B504B601B701BE10E6
:40050000C010C104C5D0C610C720C82AC9FFCAFFCBFFCDA0CF04D018D280D405D804D904DA04DB04DC44DD44DF01E040E2C0E440E540E6C0E8C0EAC0ECC0EEC003220440D7
:400540000B600F0212081610174019881B221CC01E192102224424802520264028802B802E102F403102332034403B043C803D803F2440804320454149014D01520853900C
:4005800055015610571159415A085D015E887340774080408548860189209384968098409D80B215B440B620C085C28CC4A2CAA1CC15CE62D095D6DBE680002302140303CD
:4005C0000403062C08500C500F021001123A1402161D1C50225028502F0330203240341F350137023A203E053F5056025728580459045B045C025D205F018002890A8B3124
:400600008C028D1F9501970699149B099D1F9E01A002AA01B120B201B307B518B602BA02BE04C010C106C5D1C605C702C817C9FFCAFFCBFFCDA0CF04D018D407D804D9045C
:40064000DA04DB04DC33DD44DF01E040E2C0E440E540E6C0E8C0EAC0ECC0EEC00282040A070608400A010D020E020F10108816801711184019041A021D081E401F10222441
:400680002340251026402F013080322439803A103C824201480849014B045008534059155A8067306C106D026E026F3577028080814082828740900A9201930294209640FF
:4006C000978099109D809E809F06A041A102A519A641A720AA04B180C0F9C2B1C45ACA10CC0ECE9CD008D204D60FD840E205E402E604EC1082018A028F029702AA02AB0134
:40070000AF01B403B501B702BE10BF50D418D804D904DB04DD30DF010002012003400440062007440C980E4810081602170A1B101C401D401E2820052508271529402B08DB
:400740002C882E402F103108349237043A403C423E284412460247124F20564057085AC05B015E2060056D6874807628770881548480C0FAC2F0C4B2CAFCCCF2CEF8D0F021
:40078000D220D621D80CEC90B009B312B520B642E8F0EE203008328037423B108702CCF0CE10E640338036406204652087108C088D209710A408A680AB40CC30D8C0E210F2
:4007C000EE801280510857085C086302838086408B018F089E04A6C0A780C410D460D6C0E66063088E049E04A908AC08D840EA80EE1013027B027F80C408DC01DE010208D2
:4008000003205D8083808A08A780AB02B702C00AD604E601EC0245029D80AB20D00197029D80A502B701EA0227049F04AB04B704C820EE205A015C016710800187108A011C
:40084000D6C0D880E2900B029702B180B502C202EC091020A420B020C408EE04005E084A0A56103C1A3C1C0800FF013F000000000A0010000100000004408000070038001C
:400880005602090D044900066013002C840000008465001A800004008400000008007F0F0070800008000028000041003205100006DEFCB02FFFFFFF2200F0080400000031
:4008C0000000022804040404111100010000C00040011011C00100114001400100000000000000000000000000000000000020200000000000EB00140400180000950062D3
:400900001F060000080016181F00000000002100000000000000000000F02009034010380C07208000220000000000405406300002DEC0BF3BFFFFFF2200F00C0400000020
:400940000900040004040404262200010000C00040011011C00100114001400100000000000000000000000000000000D8F20100D1000800D94200002001D0D424F24900B8
:4009800008B0044200C3000CD9000020D900000011F222002E438198004200B00F00002000C0F01F00808300000000042504000000EC020007FFFFFF00000001180080003E
:4009C000010000000404040422668005400040004040800080008000800080000000000000000000000000000000000003C000000C0800001C1863001F1C60E102FF00006E
:400A0000013C00C273E70C180800000400102300040000E3004400007F8000002C0010380F1F40C080002220000004003401020006000C0E14FFFFFF62A0F0410C000000C1
:400A4000000002110404040433330001000000000000400200103010001010120000000000000000000000000000000000606000600000008400508C8C008C000000000090
:400A80008000408B8B0000000000000014000116120002000000000000E0E000E0000800BB00180100000000000000000000000000000000000000000000000000000000A5
:400AC00000000000000000000000000000000000000000000000000000000000000000000000000000000000000000000000000000000000000000000000000000000000F6
:400B000000000000000000000000000000000000000000000000000000000000000000000000000000000000000000000000000000000000000000000000000000000000B5
:400B40000000000000000000000000000000000000000000000000000000000000000000000000000000000000000000000000000000000000000000000000000000000075
:400B80000000000000000000000000000000000000000000000000000000000000000000000000000000000000000000000000000000000000000000000000000000000035
:0200000490006A
:0400000000004005B7
:0200000490105A
:04000000BC90ACAF55
:0200000490303A
:02000000DBB86B
:0200000490402A
:4000000000000000000000000000000000000000000000000000000000000000000000000000000000000000000000000000000000000000000000000000000000000000C0
:400040000000000000000000000000000000000000000000000000000000000000000000000000000000000000000000000000000000000000000000000000000000000080
:400080000000000000000000000000000000000000000000000000000000000000000000000000000000000000000000000000000000000000000000000000000000000040
:4000C0000000000000000000000000000000000000000000000000000000000000000000000000000000000000000000000000000000000000000000000000000000000000
:0200000490501A
:0C00000000012E16106900012E2EEC21CC
:00000001FF