:400000000080002011000000311100003111000008B5044B1A6803F53F5302331A6001F08FF800BFFA46004010B5054C237833B9044B13B10448AFF300800123237010BD6B
:400040004881FF1F00000000402B0000084B10B51BB108490848AFF300800848036803B910BD074B002BFBD0BDE81040184700BF000000004C81FF1F402B0000C880FF1F2C
:40008000000000002DE9F047ACB062B601F034FA01F002FE02F068F80A2001F06BFA00F0C7FC464801F030FC454801F0BDF8454801F0E2F901F018FB01F0FEFB02F072F968
:4000C00002F04EFB00F070FB0A2001F053FA00233D4A13703D4A13703D4A13703D4A137000F030FB384B1B78DBB2012B06D013B1022B07D00EE000F043FB0BE0364800F0BA
:40010000D1FB07E0314C207800F0F2FD2070207800F068FB2E4B1B78DBB2012B12D12E4C204600F0D3FC204600F0E8FC00F048FA012802D1204600F063FD00F093FD002296
:40014000234B1A70234B1B78DBB2012BCAD100F0ADFA8046312000F0B5FB814600F01CFE8246312000F0AEFB10F0400FF9D100261CE00DAC3146204600F008FD1CAF00943C
:4001800053464A464146384600F0E8FD6C4620AD0FCD0FC40FCD0FC495E80F0084E80F0097E80F0000F0B8FA0136F6B2042EE0D900F058FD0022074B1A7093E7910200000E
:4001C000DD010000490200006283FF1F6183FF1F6383FF1F6083FF1F7C81FF1F10B5184B1B78DBB2022B0FD0154B1B78DBB2012B01D100F0D9FB0222114B1A70012000F000
:4002000015FA00F069FD10BD00F0D2F90C4C2070002000F00BFA237813F0FF0F02D100F045FD08E0064B1B78DBB2012B03D100F047FD00F003FC034B187800F011FA10BD01
:400240006283FF1F6183FF1F08B5104B1B78DBB2012B0AD100F0A8FB002000F0CDF900F025FD0022094B1A7008BD084B1B7813F0FF0F09D100F0E2FB012000F0BDF900F0A5
:400280001FFD0122014B1A7008BD00BF6283FF1F08B52F2000F016FB10F0400F02D00122054B1A70312000F00DFB10F0400F02D00122024B1A7008BD6383FF1F6083FF1F49
:4002C00010B50446002001F01DFA204601F088FB002001F085FB01F05BFB10F0010FFAD001F0E8FB01F0E6FB0446012001F00AFA204610BD2DE9F04383B006460C4617468B
:400300009846002001F0FEF964B2002511E02146082CA8BF0821C9B206EBC50001F046FC01F036FB10F0010FFAD0083C64B201356DB2002CEBDC01F049FC01F0EDFB002649
:40034000009601964FFA88F820E0C146B8F1080FA8BF4FF008095FFA89F1684601F026FC01F016FB10F0010FFAD0002406E004EBC60501F09FFB78550134E4B24C45F6DB50
:40038000A8F108084FFA88F8013676B2B8F1000FDBDC012001F0B6F901F018FC01F0BCFB01F0DAFB03B0BDE8F08300BF10B50446002001F0B3F9204601F07AFD01F050FD67
:4003C00010F0080FFAD001F0DDFD0446012001F0A5F9204610BD00BF10B50446002001F09DF9204601F064FD002001F061FD01F037FD10F0010FFAD001F0C4FD01F0C2FD27
:400400000446012001F08AF9204610BD2DE9F04383B006460C4617469846002001F07EF964B2002511E02146082CA8BF0821C9B206EBC50001F022FE01F012FD10F0010F24
:40044000FAD0083C64B201356DB2002CEBDC01F025FE01F0C9FD0026009601964FFA88F820E0C146B8F1080FA8BF4FF008095FFA89F1684601F002FE01F0F2FC10F0010F4A
:40048000FAD0002406E004EBC60501F07BFD78550134E4B24C45F6DBA8F108084FFA88F8013676B2B8F1000FDBDC012001F036F901F0F4FD01F098FD01F0B6FD03B0BDE866
:4004C000F08300BF08B50520FFF786FF08BD00BF08B50620FFF76AFF08BD00BF00B583B003218DF80410030A8DF805308DF8060002AA002302F8053D012301A8FFF786FFD9
:400500009DF8030003B05DF804FB00BF30B583B004460D46FFF7DCFF02238DF80430230A8DF805308DF806408DF80750002302AA02F8053D04210DEB0100FFF767FF03B033
:4005400030BD00BF2DE9F04182B000AF054688461446FFF7BDFF012001F022F8E61C04F10A0323F00703ADEB030D02238DF800302B0A8DF801308DF80250224641460DF104
:40058000030002F0C9FA002307F1080202F8013DF1B26846FFF73AFF0837BD46BDE8F08108B5FFF78FFF10F0010FFAD108BD00BF08B50020FFF792FF00F0010008BD00BFD5
:4005C00008B50020FFF78AFFC0F3800008BD00BF10B504460020FFF781FF012C03D140F00801C9B201E000F0F7010020FFF78EFFFFF7D6FF10BD00BF10B504460020FFF7A6
:400600006DFF012C03D140F00104E4B201E000F0FE0421460020FFF779FFFFF7C1FF14F0080F02D00020FFF7D3FF10BD10B504460020FFF753FF012C03D140F00204E4B21E
:4006400001E000F0FD0421460020FFF75FFFFFF7A7FF14F0080F02D00020FFF7B9FF10BD10B504460020FFF739FF012C03D140F00404E4B201E000F0FB0421460020FFF730
:4006800045FFFFF78DFF14F0080F02D00020FFF79FFF10BD10B51620FFF720FF000284B20820FFF71BFF204380B210BD08B5FFF7F1FF034BA3FB0030C0F3870008BD00BFA7
:4006C000CDCCCCCC00B583B0FFF7E4FFB0F5007F0DD2013080B28DF80400000A8DF80500022201A90820FFF72DFFFFF759FF03B05DF804FB10B50446FFF7CCFF0130800196
:4007000080B247F6BF73984205D840222146FFF719FFFFF745FF10BD84B000B591B00DF1480E8EE80F007146684600F041FB6846FFF7E0FFFFF7C6FF11B05DF804EB04B0F8
:40074000704700BF30B591B040220021684602F0EEF9002425460AE0402269462846FFF7F1FEFFF71DFF4035ADB20134A4B2B4F5007FF1D30120FFF72BFF11B030BD00BFEB
:4007800008B500F0DBFD10B1002000F06FFD00F0DBFD10B1002000F06FFD00F04DFE10B1002000F0EBFD08BD08B500F077FD10F0800F01D100F0B4FD00F0F2FD10F0800F28
:4007C00001D100F02BFEFFF7DBFF08BD10B50446007800F04BFDA07800F04EFD607800F0CDFD10BD00B583B000238DF8043040428DF805008DF8063001A8FFF7E7FF03B045
:400800005DF804FBF0B482B00026ADF80060ADF80260ADF8046015E006EB46056B00013365002B44C75602AB2B4433F8085C3D4423F8085C0134E4B200E00024022CEBD926
:400840000136F6B29642F8D3002309E002A800EB430030F9080C90FBF2F0C8540133DBB2022BF3D902B0F0BC704700BFC31718445840C0B2704700BF70B5054600240EE086
:400880002E192857FFF7F2FF285510F0800F01D07F232B5533785B0033700134E4B2022CEED970BD10B5064C20222146FFF7AAFF2046FFF7E1FF2046FFF788FF10BD00BFEC
:4008C0003C82FF1F08B540F08000FFF7F9FC08BD10B582B000248DF8074020238DF8043068238DF8053023460DF10702022101A8FFF700FD22238DF804308DF80540234677
:400900000DF10702022101A8FFF7F4FC23238DF8043080238DF8053023460DF10702022101A8FFF7E7FC24238DF8043040238DF8053023460DF10702022101A8FFF7DAFC68
:400940002E238DF804308DF8054023460DF10702022101A8FFF7CEFC30238DF804308DF8054023460DF10702022101A8FFF7C2FC32238DF8043064238DF8053023460DF12B
:400980000702022101A8FFF7B5FC33238DF8043014238DF8053023460DF10702022101A8FFF7A8FC02B010BD10B582B000248DF8074020238DF8043068238DF805302346D5
:4009C0000DF10702022101A8FFF794FC22238DF804308DF8054023460DF10702022101A8FFF788FC24238DF804308DF8054023460DF10702022101A8FFF77CFC2E238DF8D6
:400A000004308DF8054023460DF10702022101A8FFF770FC30238DF804308DF8054023460DF10702022101A8FFF764FC02B010BD08B5FFF74DFFFFF7B7FF08BD30B583B0AB
:400A400000248DF8074020238DF804306F238DF8053023460DF10702022101A8FFF74AFC22238DF8043042238DF8053023460DF10702022101A8FFF73DFC24238DF804303E
:400A800040258DF8055023460DF10702022101A8FFF730FC2E238DF804308DF8055023460DF10702022101A8FFF724FC30238DF804302A238DF8053023460DF107020221BD
:400AC00001A8FFF717FC03B030BD00BF30B583B00546E8238DF8073000240AE004EB44035A0006232A4401210DF10700FFF702FC01341F2CF2DD03B030BD00BFF0B5A5B0C3
:400B0000002308E000EB4302517824AA1A4402F8601C0133DBB25F2BF4D900211DE001EB41035A0024A8104410F8604C24A8184400F8904C581C541C24AD2C4414F8604CA2
:400B4000284400F8904C023302322A4412F8602C2B4403F8902C0131C9B20F29DFD90A48A0F13004F022214601F0D6FF6E460CAF35460FCD20606160A260E3602E461034AB
:400B8000BD42F5D125B0F0BD7082FF1F70B50131C9B2052915D104463C22002101F0C7FF164B204603F130021E685D689C68D968066045608460C160103310309342F3D1CF
:400BC00070BDA1EB01118B0003F590720B4B134403F130021E685D689C68D968066045608460C160103310309342F3D119685A689B6801604260836070BD00BF4082FF1F1E
:400C000010B59AB0A0238DF86030C0238DF86430002308E000EB430251781AAA1A4402F8681C0133DBB25F2BF4D9002415E004EB44031344013B1AA90B4413F8681C1AABCD
:400C4000134403F8081C013200E00122032AEEDD052118A800F06AFC01341F2CF5DD1AB010BD00BF30B583B02E238DF8043000248DF8054002AD05F8054D23462A460221E2
:400C800001A8FFF737FB012000F08AFC064B1B88ADF800308DF8034023462A4602216846FFF728FB03B030BD442B000008B500F06FFD10F0800F01D000F044FD08BD00BF3B
:400CC00008B500F065FD10F0800F01D100F09EFDFF2000F04BFD08BD08B500F059FD10F0800F01D100F092FD7F2000F03FFD08BD38B5054601F048FD002001F055FD01F0A8
:400D000093FD044601F048FDFF2C02DC002C03DA01E0FF2400E00024E4B23F2C03D9BE2C02D9012500E00025284638BD70B40B46043030311E685D689C68DA6806604560B3
:400D40008460C260103310308B42F3D119685A689B6801604260836070BC7047F0B591B007468DF800108DF80120ADF8023016996846FFF7DBFF6C463D460DF1400E2646EB
:400D80000FCE28606960AA60EB60344610357645F5D1384611B0F0BD08B501F0D5FAC043024BA3FB0030C0F38F1008BDD34D621070B40B7803704B7843704B8883704B8817
:400DC0001B0AC3700B1D043034311E685D689C68DA68066045608460C260103310308B42F3D119685A689B6801604260836070BC704700BFFEE700BFF0B40022174611E09E
:400E000050F82760F3B226F0FF0608E001EB420511F812406D78A5550132013BDBB2002BF4D10137262FEBD9F0BC70470A4B1B78DBB203F00701094A11701B090132137010
:400E40000822074B1A708023064A1370583213704422054B1A707047CF0100496E5800403D510040005B00407658004008B50A46002101F05CFE08BD08B501F04DFE08BD60
:400E800070B500243D4B1C80502202331A70032602331E8018233A4A1370023216800232137019250232158002321370EF21023211800232137045F6BF5102321180023247
:400EC000137047F22F530232138002321570023213802C4B1D7004222B492C48FFF7CCFF02222B4B1A7008224FF040231A7003F500731E70274B1B78DBB227490B70274B38
:400F00001A8041F25122023B1A800CE0244B1B7803F0010343EA440404F003044FF4F07001F0BEFD013D0DB1032CEFD115B90320FFF760FF1B4B4FF480721A8007221A70DD
:400F4000002219490A704820023108701A700222033B1A7004220A331A7003F297331A78FF221A70114A137843F001031370013A137843F08003137070BD00BF8040004076
:400F8000864000409E400040180D0048004100400043004008010049A146004022420040254200400440004006400040A1430040012807D8044B53F820201844017A137866
:400FC0000B431370704700BF482B0000012808D8044B53F820201844017A137823EA010313707047482B000038B572B63B4A137843F00403137000240BE0394863001A192C
:40100000510001440A46098AD068FFF72FFF0134E4B2082CF1D900240BE03149A3001819420088188022816C406CFFF725FF0134E4B2002CF1D02B494FF09040FFF7DCFE73
:401040000A24294B1C70294A03F52743D5331A60274A137843F0020313701032137843F002031370234D2B7843F040032B70A2F58632513A137843F01003137008221E49C9
:401080001E48FFF7F9FE22461D491E48FFF7F4FE22461D491D48FFF7EFFE22461C491D48FFF7EAFE22461C491C48FFF7E5FE1C4A137843F0080313701A4C61232370FFF76C
:4010C000DFFE812323700122174B1A70FFF7AEFE0E2229461548FFF7CFFE38BDE8460040482B00009C000048835800400404048403500140A0430040E00C00480251004089
:40110000E80C0048C0510040F40C004810510040000D0048205100400C0D004830510040224300400048004004000840B043004008B501F0C5FC03680C2B00D1FEE7FEE7B9
:4011400008B5104E104D16E029686B68AC68002204E051F8040B43F8040B0432A242F8D1E868002203E0002143F8041B04328242F9D11035013E002EE6D101F0A7FCFEF778
:4011800081FFFEE701000000BC2B000008B5104A104B1A60104A136843F40073136000230AE0032B03D80D4A52F8231000E00C490C4A42F8231001332F2BF2D90A4B1A78E2
:4011C0000A4B1A70074A0A4B1A60FFF70DFF08BD0004FA050CED00E014ED00E000000000311100000080FF1FBC760040C080FF1F08ED00E0014B1B681864704708ED00E010
:401200004001C0B2014B1870704700BF00E400E00122014B1A60704700E100E00122014B1A60704780E100E010B50446FFF7F6FF2046FFF7DFFF0520FFF7E2FFFFF7E8FF9E
:4012400010BD00BF024A137843F080031370704776650040014B1870704700BF07650040014B1870704700BF47650040014B1870704700BF27650040014B1870704700BF74
:4012800037650040014B1870704700BF87650040014B1878704700BF67650040014B1878704700BF76650040014B1878704700BF5765004008B501E0FFF7F6FFFFF7E8FF5D
:4012C00010F0100FF8D108BD10B5134A137803F0C00343F024031370104C237843F001032370FF20FFF7B6FFFF20FFF7B9FFFF20FFF7BCFFFF20FFF7BFFF0020FFF7C2FF2F
:4013000001F0D6FB237843F01003237001F0D4FBFFF7D0FF10BD00BF766500409765004008B5054B1B7823B9FFF7CEFF0122024B1A70FFF787FF08BD6481FF1F014B1878B6
:40134000704700BF27650040014B1878704700BF37650040024A137843F080031370704775650040014B1870704700BF05650040014B1870704700BF45650040014B187020
:40138000704700BF25650040014B1870704700BF85650040014B1878704700BF65650040014B1878704700BF75650040014B1878704700BF5565004008B501E0FFF7F6FFDC
:4013C000FFF7E8FF10F0100FF8D108BD10B5114A137803F0C00343F00C0313700E4C237843F001032370FF20FFF7BCFFFF20FFF7BFFFFF20FFF7C2FF0020FFF7C5FF01F03A
:4014000057FB237843F01003237001F055FBFFF7D3FF10BD756500409565004008B5054B1B7823B9FFF7D2FF0122024B1A70FFF791FF08BD6581FF1F014B1878704700BFDE
:4014400025650040014B1B689864704708ED00E04001C0B2014B1870704700BF02E400E00422014B1A60704700E100E00422014B1A60704780E100E010B50446FFF7F6FF46
:401480002046FFF7DFFF0620FFF7E2FFFFF7E8FF10BD00BF7222084B1A700023074A13700621A2F25B12117047211032117002F5A8721370704700BF8B65004084650040ED
:4014C00010B501F0F5FA04460A4A137843F020031370073A137843F0100313700532137843F01003137000F035F8204601F0E4FA10BD00BF9B65004008B5054B1B7823B98B
:40150000FFF7C8FF0122024B1A70FFF7D9FF08BD6681FF1F034B1B7813F0040FFAD1024B187070476965004049650040084B1B7833B97047305DFFF7EDFF0134E4B203E06C
:4015400070B50D4606460024AC42F3D370BD00BF6681FF1F054A137843F0080313701032137843F008031370704700BFA243004001BE704710B5044605E0084B186801F0EC
:401580008FFAA4F50044B4F5004FF6D8034B586800FB04F001F084FA10BD00BFCC80FF1F08B5034B1B7A00FB03F001F079FA08BDCC80FF1F70B504460E46074B1D681F289B
:4015C00002D90020FFF7D4FF04F01F04103455F8240045F8246070BD08ED00E038B504460D46072902D90020FFF7C2FF1F2C02D90020FFF7BDFF04F01F0000F1604000F59B
:4016000064406D01EDB2057038BD00BF084A137843F0010313701032137843F00103137002F64D32137843F001031370704700BFA3430040014B1870704700BF034F00407E
:40164000014B1880704700BF044F0040014B1880704700BF064F004008B5204A137803F0010313701E4B197801F0FC011970117841F0040111701A7802F0F3021A701A781C
:4016800042F00C021A701A7802F07F021A701A7842F080021A701A78D2B21A7009331A7802F0CF021A701A7842F030021A701A7802F0F0021A701A7842F00F021A70094A14
:4016C000137843F001031370C720FFF7B9FFC720FFF7BCFF0820FFF7ADFF08BD004F0040024F0040014F004008B5054B1B7823B9FFF7B2FF0122024B1A70FFF787FF08BDDB
:401700006881FF1F044A137803F07F03C001C0B218431070704700BF10510040044A137803F0EF03000100F0100018431070704720510040024A137843F080031370704766
:4017400073640040024A137803F07F031370704773640040014B1870704700BF01640040014B1870704700BF41640040014B1870704700BF21640040014B1870704700BF3E
:4017800081640040014B1878704700BF61640040014B1878704700BF73640040014B1878704700BF5164004008B501E0FFF7F6FFFFF7E8FF10F0100FF8D108BD10B5114ACA
:4017C000137803F0C00343F0090313700E4C237843F001032370C820FFF7BCFFC820FFF7BFFF0020FFF7C2FF0020FFF7C5FF01F05FF9237843F01003237001F05DF9FFF747
:40180000D3FF10BD736400409164004008B5054B1B7823B9FFF7D2FF0122024B1A70FFF789FF08BD6981FF1F024A137843F080031370704770640040014B1870704700BF10
:4018400080640040014B1878704700BF60640040014B1870704700BF20640040014B1878704700BF40640040014B1870704700BF0064004008B501E0FFF7F0FFFFF7E2FF62
:4018800010F0080FF8D108BD08B56320FFF7E0FF6320FFF7E9FF01F00BF9064A137843F01003137001F008F9FFF7E4FF0120FFF7C3FF08BD9064004008B5054B1B7823B95B
:4018C000FFF7E2FF0122024B1A70FFF7ADFF08BD6A81FF1F014B1B685864704708ED00E04001C0B2014B1870704700BF01E400E00222014B1A60704700E100E00222014BFC
:401900001A60704780E100E010B50446FFF7F6FF2046FFF7DFFF0720FFF7E2FFFFF7E8FF10BD00BF4022014B1A60704700E100E02022014B1A60704700E100E008B501F0CC
:40194000B7F80C4A137843F0200313700132137843F010031370FF32137843F01003137001F0AAF800F0AEFCFFF7DCFFFFF7E0FF08BD00BF986400404022014B1A60704780
:4019800080E100E02022014B1A60704780E100E010B5FFF7F1FF064B1C78064A137803F009031C4300231370FFF7BCFF204610BD696400406583FF1F10B5FFF7E3FF064B92
:4019C0001B78064A147804F040041C4300231370FFF7AEFF204610BD686500407583FF1F10B504462B4B1A7802F0FF0312B1013BDBB200E00723284A1278D2B29342F1D08B
:401A0000FFF7BAFF254B1978254A137803F009030B4313701F4B1A78D2B21F4B1B78DBB29A4207D11E4B1B7813F0040F02D01D4B1C702CE0184A13780133DBB213701378CE
:401A4000DBB2072B02D90022134B1A70124B1A78D2B2104B1B78DBB29A420ED10D4A13780133DBB213701378DBB2072B02D90022084B1A7001220C4B1A70074B1B78DBB259
:401A80000A4AD4540A4A137843F004031370FFF749FF10BD6683FF1F6483FF1F696400406583FF1F486400406883FF1F6C83FF1F8964004010B5FFF765FF134B1A78D2B222
:401AC000124B1B78DBB29A4214D0114B1B7813F0FF0F0CD10C4A13780133DBB213701378DBB2072B06D90022074B1A7002E00022074B1A70044B1B78DBB2064AD45CE4B21B
:401B0000FFF716FF204610BD8083FF1F7483FF1F6783FF1F7883FF1F08B501E0094B1B78094B1B7813F0200FF8D1FFF72BFF0023064A1370064A1370064A1370FFF7F8FE01
:401B400008BD00BF58640040686500406783FF1F8083FF1F7483FF1F08B500F0A9FF0E4B1A7842F001021A701A7802F0FE021A7000F0A2FFFFF700FF0023084A1370084ABD
:401B80001370084A1370084A137803F0FB031370FFF7C8FE08BD00BF986400406883FF1F6683FF1F6483FF1F8964004070B506460C46002506E0705DFFF712FF0135EDB247
:401BC000013CE4B2002CF6D170BD00BF08B501E00A4B1B780A4B1B7813F0200FF8D100F067FF084B1A7842F001021A701A7802F0FE021A7000F060FF08BD00BF58640040F3
:401C0000686500409864004038B50F22174B1A70174C4023236004210620FFF7DFFC15490620FFF7C7FC2025256004210520FFF7D5FC11490520FFF7BDFCFFF7C7FF0024C6
:401C40000E4B1C700E4B1C700E4B1C700E4B1C700E4B1C700E4B1C70FFF79AFEFFF7ACFE0C4B1C70FF331D7038BD00BF8864004080E100E0B51C0000551D00006783FF1FCA
:401C80008083FF1F7483FF1F6883FF1F6683FF1F6483FF1F8964004008B5054B1B7823B9FFF7B2FF0122024B1A70FFF747FE08BD6B81FF1F28E01F4B19781F4A137803F09B
:401CC00009030B431370137813F0040F24D01B4B1B7813F0FF0F0CD1194A13780133DBB213701378DBB2072B06D90022144B1A7002E00022114B1A70114B1B78DBB2114A64
:401D0000D35CDBB2104A13700D4B1A78D2B20F4B1B78DBB29A42CED1094B1A78D2B20B4B1B78DBB29A4204D1094A137803F0FB0313707047696400406583FF1F6883FF1FF1
:401D40006683FF1F6C83FF1F486400406483FF1F89640040204B1A7820490B7803F0400313430B7032E01E4B1A78D2B21D490B780133DBB20B700B78DBB2072B02D900214D
:401D8000184B1970174B1978C9B2174B1B78DBB299420ED114490B780133DBB20B700B78DBB2072B02D900210F4B197001210F4B19700C4B1B78DBB20D49CA54064B1A787D
:401DC00006490B7803F0400313430B70034B1B7813F0200FC7D17047686500407583FF1F586400407483FF1F8083FF1F6783FF1F7883FF1F1022014B1A60704700E100E0C2
:401E00000822014B1A60704700E100E008B500F04FFE0C4A137843F020031370013A137843F010031370033A137843F01003137000F042FE00F054FAFFF7DCFFFFF7E0FF52
:401E400008BD00BF966400401022014B1A60704780E100E00822014B1A60704780E100E010B5FFF7F1FF064B1C78064A137803F009031C4300231370FFF7BCFF204610BD79
:401E8000656400408483FF1F10B5FFF7E3FF064B1B78064A147804F040041C4300231370FFF7AEFF204610BD62640040A083FF1F10B504462B4B1A7802F0FF0312B1013B33
:401EC000DBB200E00723284A1278D2B29342F1D0FFF7BAFF254B1978254A137803F009030B4313701F4B1A78D2B21F4B1B78DBB29A4207D11E4B1B7813F0040F02D01D4BB1
:401F00001C702CE0184A13780133DBB213701378DBB2072B02D90022134B1A70124B1A78D2B2104B1B78DBB29A420ED10D4A13780133DBB213701378DBB2072B02D9002293
:401F4000084B1A7001220C4B1A70074B1B78DBB20A4AD4540A4A137843F004031370FFF749FF10BD9D83FF1F9E83FF1F656400408483FF1F426400409083FF1F8883FF1F00
:401F80008564004010B5FFF765FF134B1A78D2B2124B1B78DBB29A4214D0114B1B7813F0FF0F0CD10C4A13780133DBB213701378DBB2072B06D90022074B1A7002E00022FB
:401FC000074B1A70044B1B78DBB2064AD45CE4B2FFF716FF204610BD8583FF1F9F83FF1F9C83FF1F9483FF1F08B501E0094B1B78094B1B7813F0200FF8D1FFF72BFF0023C0
:40200000064A1370064A1370064A1370FFF7F8FE08BD00BF52640040626400409C83FF1F8583FF1F9F83FF1F08B500F041FD0E4B1A7842F001021A701A7802F0FE021A7075
:4020400000F03AFDFFF700FF0023084A1370084A1370084A1370084A137803F0FB031370FFF7C8FE08BD00BF926400409083FF1F9D83FF1F9E83FF1F8564004070B5064693
:402080000C46002506E0705DFFF712FF0135EDB2013CE4B2002CF6D170BD00BF08B501E00A4B1B780A4B1B7813F0200FF8D100F0FFFC084B1A7842F001021A701A7802F0EC
:4020C000FE021A7000F0F8FC08BD00BF52640040626400409264004010B50F22174B1A70174C1023236004210846FFF777FA15490420FFF75FFA0823236004210320FFF72A
:402100006DFA11490320FFF755FAFFF7C7FF00240E4B1C700E4B1C700E4B1C700E4B1C700E4B1C700E4B1C70FFF79AFEFFF7ACFE0C4B1C702022033B1A7010BD8664004026
:4021400080E100E085210000252200009C83FF1F8583FF1F9F83FF1F9083FF1F9D83FF1F9E83FF1F8564004008B5054B1B7823B9FFF7B2FF0122024B1A70FFF747FE08BD9A
:402180006C81FF1F28E01F4B19781F4A137803F009030B431370137813F0040F24D01B4B1B7813F0FF0F0CD1194A13780133DBB213701378DBB2072B06D90022144B1A706B
:4021C00002E00022114B1A70114B1B78DBB2114AD35CDBB2104A13700D4B1A78D2B20F4B1B78DBB29A42CED1094B1A78D2B20B4B1B78DBB29A4204D1094A137803F0FB03C2
:4022000013707047656400408483FF1F9083FF1F9D83FF1F8883FF1F426400409E83FF1F85640040204B1A7820490B7803F0400313430B7032E01E4B1A78D2B21D490B78E6
:402240000133DBB20B700B78DBB2072B02D90021184B1970174B1978C9B2174B1B78DBB299420ED114490B780133DBB20B700B78DBB2072B02D900210F4B197001210F4B95
:4022800019700C4B1B78DBB20D49CA54064B1A7806490B7803F0400313430B70034B1B7813F0200FC7D1704762640040A083FF1F526400409F83FF1F8583FF1F9C83FF1FAC
:4022C0009483FF1F054A137843F0020313701032137843F002031370704700BFA2430040054A137843F0040313701032137843F004031370704700BFA2430040024A13785E
:4023000043F080031370704777640040014B1870704700BF84640040014B1878704700BF64640040014B1860704700BF24640040014B1868704700BF44640040014B1860D6
:40234000704700BF04640040024B1B78024B1868704700BF046400404464004008B501E0FFF7E6FFFFF7D8FF10F0080FF8D108BD08B54FF0FF30FFF7D5FF4FF0FF30FFF748
:40238000DDFF00F095FB064A137843F01003137000F092FBFFF7E2FF0020FFF7B7FF08BD9464004008B5054B1B7823B9FFF7E0FF0122024B1A70FFF7A1FF08BD6D81FF1F4E
:4023C00010B59DF80840012C51D1013809282ED8DFE800F0052D2D052D2D0F192D230F2B03D92548007840B222E02448007840B21EE00F2B03D92248007840B218E0214881
:40240000007840B214E00F2B03D91F48007840B20EE01E48007840B20AE00F2B03D91C48007840B204E01B48007840B200E0002001EB401101FB02F1C90B8AB20D2B0BD8C3
:40244000C3F10E0289B211418AB2611E124800EB810101338B7005E0631E0F4901EB83030F219970013C0C4B23F8242010BD0020FFF77EF810BD00BF180100491C01004951
:40248000190100491D0100491A0100491E0100491B0100491F0100497081FF1FF8B5074600F006FB06460D4D2B7843F003032B700B4C237843F0030323700A4B1F700320DC
:4024C000FFF76EF82B7803F0FC032B70237803F0FC032370304600F0EFFAF8BDF8460040F9460040925800400022314B1A7101285CD170B538222F4B1A70042202331A701E
:40250000062201331A70002401331C7001331C700F2201331A7002331C7001331C7001331C7001250A331D70142203F527631A70052601331E70162201331A7001331C700C
:40254000442203331A70482201331A7001331D7002331C7001331C700A2201331A70432201331A705220FFF799FF5822124B1A7001331C7005331E70022201331A700133C1
:402580001C7001331C70204600F074F933220B4B1A602946304600F091F92946BA2000F011FA07491D20FFF705F870BD704700BF7081FF1F004E004094580040A483FF1F13
:4025C00051280000F0B583B0284D01272F70284E00247471102000F05FF9102000F0E0F907211D20FEF7FAFF0422224B1A7001331C7007331C70204A137843F018031370A2
:402600001E4B1C7003F2F5231C7001331C700A22A3F209331A7001331C7002331C70122205331A70132201331A7004331C701422A3F68C231A70009708234FF4004248F60B
:402640006B510220FFF7BCFE2B78013B06EB83039A780B4B1A702B78013B36F82320094B1A802878FFF740FF03B0F0BDDC80FF1F7081FF1F96580040075B0040935800408D
:402680000E4E00400C4E004070B500F011FA06462A4B1B782A4B1A7842F001021A701A7842F010021A7010331A7842F001021A701A7842F010021A70224D2B7843F002030C
:4026C0002B70214C237843F0020323701F4A137843F0030313700320FEF762FF2B7803F0FD032B70237803F0FD032370184A137843F0060313707A22164B1A70164A1378D3
:4027000043F0010313701032137843F0010313700F3A137843F0010313701032137843F0010313704FF000530C4A1360A2F5C0721360304600F0C0F970BD00BFDC80FF1F27
:40274000AA430040F8460040F9460040915800407758004082580040A143004080E200E008B5084B9B794BB9064BDB7913F0FF0F01D1FFF727FF0122024B9A71FFF784FFB7
:4027800008BD00BF7081FF1F024A137843F0010313707047004E0040024A137803F0FE0313707047004E0040094B1B7913F0FF0F03D0074B5B79DBB203E0064B1B7803F0E4
:4027C0000103012B01D00028EED01846704700BF7081FF1F014E00400E4B1B7803F00303012B03D80C4B188880B209E00A4A12780A49087842EA0020032B01D1084B1B789F
:40280000084B1B7913F0FF0F02D00022054B5A7100B27047144E0040104E0040114E0040124E00407081FF1F10B5084A137843F004031370FFF7A8FF0020FFF7B5FFFFF7DE
:40284000CBFF0446FFF7A8FF204610BD014E0040704700BF10B5002404E02046FEF7B6FB0134E4B2012CF8D9FF22014B1A7010BDDD80FF1F10B50446FFF7ECFF2046FEF743
:4028800097FB014B1C7010BDDD80FF1F014B188880B2704780400040034B1A7800F0F80010431870704700BF82400040024B187800F00700704700BF8240004070B50546BA
:4028C0000E46FFF7F3FF0446FFF7E0FFA84256D02B4B1B7803F0010294B900B185B938B9284B1D80284A137803F0BF03137070BD254A137843F040031370224B1D8070BDA5
:4029000022B3002321490B7001240F310C7004310B700C390B7803F07F030B701A4B1B7813F0080F00D08DB9194B18800721013B1970164B1B7813F0010FFAD110490B78B2
:4029400003F0FE030B700021104B19700C4B1B7813F0010F0DD00E4B1D800EB1032200E001220A4B1A70094B1B7813F0010FFAD170BD044B1D8002490B7813430B7070BDA3
:40298000A243004080400040824000400140004002400040014B188880B2704700410040034B1A7800F0F80010431870704700BF02410040024B187800F00700704700BFB1
:4029C0000241004070B505460E46FFF7F3FF0446FFF7E0FFA84256D02B4B1B7803F0010294B900B185B938B9284B1D80284A137803F0BF03137070BD254A137843F040036B
:402A00001370224B1D8070BD22B3002321490B70012413310C7004390B7008390B7803F07F030B701A4B1B7813F0080F00D08DB9194B18800721013B1970164B1B7813F0A6
:402A4000010FFAD110490B7803F0FE030B700021104B19700C4B1B7813F0010F0DD00E4B1D800EB1032200E001220A4B1A70094B1B7813F0010FFAD170BD044B1D8002496C
:402A80000B7813430B7070BDA143004000410040024100400140004002400040000000000230800803D000BF01380046FCD17047EFF3108072B6704780F31088704700BF49
:402AC000014B1868704700BF4081FF1F0E4B70B51E460E4C0025E41AA410A54204D056F8253098470135F8E700F056F8084B094C1E46E41AA4100025A54204D056F82530D1
:402B000098470135F8E770BDA42B0000A42B0000A42B0000AC2B000010B5431E0A44914204D011F8014B03F8014FF8E710BD03460244934202D003F8011BFAE770470000E4
:402B4000000000002E400000035B00402443004040000000004F00400C00405100403000F0510040100000000140000880080140800700140140000800400140000A004C68
:402B800001400002005001402000000000080140600C004880004300F8B500BFF8BC08BC9E4670474D0000008D110000F8B500BFF8BC08BC9E46704729000000D02B000054
:402BC000C880FF1F800000006002000000000000000000000000E02EC05D00001800000000366E0101FF0000000000000000000000000000000000000000000000000000A5
:402C00000000000000000000962B000000000000000000000000000000000000000000000000000000000000000000000000000000000000000000000000000000000000D3
:402C40000000000000000000E080FF1F00000000000000000000000000000000000000000000000000000000000000000000000000000000000000000000000000000000D6
:402C80000000000000000000000000000000000000000000000000000000000000000000000000000000000000000000000000000000000000000000000000000000000014
:402CC00000000000000000000000000000000000000000000000000000000000000000000000000000000000000000000000000000000000000000000000000000000000D4
:402D00000000000000000000000000000000000000000000000000000000000000000000000000000000000000000000000000000000000000000000000000000000000093
:402D40000000000000000000000000000000000000000000000000000000000000000000000000000000000000000000000000000000000000000000000000000000000053
:020000040003F7
:0200000480007A
:40000000024F00400652004005640040056500406000014038010140550201403C03014067040140410501406506014056070140140801403C090140020B0140040C014012
:40004000030D01405D1401404B1501404C160140471701405B18014052190140461A01404C1B0140084001400C4101400F4201400E43014004440140084501400646014012
:40008000024701400A48014009490140084C0140084D0140075001400251014001700A870020012018C0194060046188800D810D840D860F880F8438850D870F890F8B7227
:4000C00006010F011102120114061701180619021C041E021F022402260427022A012B01310234013502360637013F404063410245EC4702481349FF4AFF4BFF4F01501847
:4001000052805401580459045A045B045C775D775E805F056040624064406540668068806A806C806E80830287018801941C99039C069E08A00AA214A808A903AA12B21EAA
:40014000B401B503B808BE10C050C104C5D1C720C823C9FFCAFFCBFFCDA0CF04D018D405D804D904DA04DB04DC72DD66DF01E040E2C0E440E540E6C0E8C0EAC0ECC0EEC0A7
:4001800000040320070409200A510E2210101208171119701A011E24212322602404270428102B182D202E103152330436203A803C043E0142044308450149064B104D08D3
:4001C0004E014F01520853085501570259065A805C405F0972C07B208E01C044C2AFC456CA26CC2FCEC8D086D214D6DBDE02E64001010280040108840C84100412801303FF
:400200001460170218041B031C84200A22102480260428562A092C072E38327F3303348038083E10404241054210440645DE46FC470B481F49FF4AFF4BFF4C224EF04F085A
:40024000500454405604580459045A045B045C225D225F0162C0644065016610671168C069016B116C406D016E406F018401870292029304940297019C01A401AF02B001FE
:40028000B101B302B402B504BE01BF04D280D804D904DB04DC77DD60DF01022004A00506088009020A200C800D080E84110817551A801B101D041F1021022210231026087B
:4002C0002A80300831023608371138043D02458047114D264E024F015548565058405A40661167217240900494409602971099089A809E019F19A302A601A710AD01C0F474
:40030000C2FDC4F4CA08CCE3CE82D0B0D230D8F0EE01004D044D05060C920D060E641001110112B2140D15021640170418101A601C021D041E0D1F02204D28722A882C4D81
:40034000308033013470360F37063AA03E013F04404349FF4AFF4BFF4F0150185401580459045A045B045C325D555F016040624064406540668068806A806C806E808133C5
:400380008344851886018D8291C1933895029718999C9B039D189F02A11AA518A702A801AD1AB001B113B3E0B70FBB88C043C9FFCAFFCBFFCD83CE03CF01D018D409D60427
:4003C000D804D904DA04DB04DC26DD25DF01E040E240E440E540E680E880EA80EC80EE8001010321050809010A1510801140120817201A451C40210822802501260B275123
:400400002C812F203004310232803640371539803A043D823E044020410442804420468059855D045E405F12674187409104928094E09606984099089A409C809F5DA1429A
:40044000A302A480A585A663A904AA08B008B120C02DC20FC44BCAD0CCFBCEDAD0C3D6FBD8900C050E0A1301170218021A0D1C031E0C28092A062F013302340F35013A207D
:400480003F10404649FF4AFF4BFF4D834E034F01501856025728580459045A045B045C625D255F016040624064406540668068806A806C806E8080C084A386548C108F023B
:4004C0009210930494109702980299019A1D9C019D019E3AA010A308A463A68CA704A810AD01B0E0B108B302B41FB504B701B802BA20BF44C043C5ECC702C813C9FFCAFF21
:40050000CBFFCD83CE03CF01D018D280D804D904DA04DB04DC61DD55DF01E040E240E440E540E680E880EA80EC80EE8000800102022005400701088009080A040B800E0A28
:40054000111A171019021A041E081F102028220323012728284029482F0232093350350836023A8041044280468049054E085104520867206C506D416E906F24728074803C
:4005800078017901810184408740891094A095C996129701984099089B519C859D059E849F2EA281A302A490A584A660A720A902AA40AC10AD80B108B240B310C08DC2CFFD
:4005C000C44ECA1BCCCFCE08D083D220D840E20AE603E804EC01EE24C004C540C9FFCA07CBFFCC40CD20CEF0CF05D008D409D604DA04DB04DD13DF01E040E1A8E240E320D5
:4006000004080502060A0D080E4A150417211C201D0B1E081F08240C251027702D022F0A37143C803D254040450A47104B024C044D0A4E0250105628570159195B4060024C
:40064000634067046C206D056E626F06744077018201842087428A129802A604A802AA04C0F0C2F0C470CAB0CC60CEF0D0E1D230D60FD829E280E804EA20EE2038203E1036
:4006800058045F011C088804EE01000406020B010C04100115011B021C041F02200123012501260228042C013201340235013604370239203B083E503F404051410342066E
:4006C0004404450C46E0480949FF4AFF4BFF4C624DA04EF04F41500C5418580459045A045B045C335D335F016640670269106A306B106D106E106F1287028901A302A50172
:40070000AE01B502B601B701BF10C010C102C5D2C610C80BC9FFCAFFCBFFCDA0CF04D018D280D405D804D904DA04DB04DC44DD44DF01E040E2C0E440E540E6C0E8C0EAC0FA
:40074000ECC0EEC00082021008800902128A13041740180419041A021D801F4020212104220823042640270828A02F603020324839203E183F08400241044240458046081E
:40078000482149204F095210573058015E805F09600577408120824084F1851088018A418C028D448E829250958097809E40A102A710A820A902AA04B340B680C00DC20913
:4007C000C48FCAC3CC0ECE64D03BD20CD6D1D80CE008E202E60BEA01EE0409020E010F04140219011F082302240125043108320233043401350137025280580459045B04D6
:400800005C445D405F0181048202850189048A048E018F049408950499029D04A204A408A508A901AA01B006B108B302B401B501B608B704BE11BF41C040C106C5D1C65040
:40084000C702C81BC9FFCAFFCBFFCDA0CF04D018D407D804D904DA04DB04DC44DD44DF01E040E2C0E440E540E6C0E8C0EAC0ECC0EEC000400248044009080F2010281280A2
:40088000161019401A441D101E1021882210234224442540271028202A102C202F4030A0330436203780382439413C403F204040482849015008523059415A247780811006
:4008C00083108404854086089020914195809B049C049E049F02A080A280A580AA20AD08B004B204B480B504C08BC224C42ECAC6CC3ECE3FD001D204D60FE268EA02EE01B9
:40090000041C050206020724080C09220A110B080D1D12031409151D1610181419211B021C101D021E0C1F0D2010211D251D2B102D0D2F10301F3320341F3510370F3908F3
:400940003B803F1054405604580459045B045C135D105F0184288611880289028B04900D923096209D0DA00CA211A508A615A701A80DA90DAA10B03CB10CB303B402B60125
:40098000B90ABA02BE50BF01C043C106C5E0C6BCC70EC81EC9FFCAFFCBFFCEF0CF44D00CD401D804D904DA04DB04DC33DD33DF01E6C0EA40EB02010802040514088009086E
:4009C0000A800B020D180E800F0210841210148019401AC41B011E801F2020402108251026842804291C2D052E202F0232403680372438303A103CA440104240451046080E
:400A0000491150805110520459415A045B10640865806608674085048B408E04902491059302944098089A209B24A050A302A804AF01B008B305B512B602B718C066C2FCC7
:400A4000C41ECAF6CC78CE74D003D204D60FD8F0E268E820EA10EC20EE4000200210060308010A0E0C8C0E0310011286168C18401A101E082010226024702870320F348A9D
:400A800036703A2858045C035F0181C08213840C8508880489448C0C8D108E13900893E3940195FF9620981399809A0C9C039D3C9FC2A11CA3E1A402A5E7A718A81FA91807
:400AC000AC0FAE10AF04B020B21CB3C0B40FB538B71FBA28BB80D602D710D804D904DB04DC33DD30DF01000201200211058106200708082009080A400B020C400D040E29AE
:400B00000FA01060112014261602182019341A011E081F2A254026A027202E222F2234243581368037023C803E093FA05C806C206D6074407628770882208406854087286C
:400B400088818A118B208C108D508E018F0291089240930298209A109D14A108A420A8A0AB30B180B220B420C0FFC2FFC4EECAF0CCF0CEF0D610E030E240E6B0E860328005
:400B80003308360837403B208E08CCF0CE10318036205B0266019720A680AB40AF08CC30D640D880EEC0128053205B0187109720A580A6A0AA01AB02C410D420D640E640E2
:400BC000EA20EE8070208620A020A5A0A620A820A920AB20B301DC20E640E820EA80EE2013027F08C408DE01008853108B08A708AB02C00AD404E00447089720B044D00158
:400C0000EA04EE049720AB08252082028308868089808D02A5A0C820E260E6205B086682750299029A829B08D6C0D880DE200B0185019701B310B701C202E804EE0811019E
:400C4000734093409501B340C408DC01E80400EE08C40A6E0C0A101A1A181C0A00FF013F4072200022724C00008104748872400040008800765009220063038CC80000006F
:400C8000C8220000C80000000D2312D80022005080807860071F000000200C00000001016302400005CED0FB3BFFFFFF2200F00C04000000000002240404040411110001D4
:400CC0000000C00040011011C0010011400140010000000000000000000000000000000000606000600000008400508C8C008C00000000008000408B8B0000000000000010
:400D0000140001161200020000000000E00000E0E000E00008000000BB00180100000000000000000000000000000000000000000000000000000000000000000000000018
:400D40000000000000000000000000000000000000000000000000000000000000000000000000000000000000000000000000000000000000000000000000000000000073
:400D80000000000000000000000000000000000000000000000000000000000000000000000000000000000000000000000000000000000000000000000000000000000033
:400DC00000000000000000000000000000000000000000000000000000000000000000000000000000000000000000000000000000000000000000000000000000000000F3
:400E000000000000000000000000000000000000000000000000000000000000000000000000000000000000000000000000000000000000000000000000000000000000B2
:0200000490006A
:0400000000004005B7
:0200000490105A
:04000000BC90ACAF55
:0200000490303A
:02000000F29775
:0200000490402A
:4000000000000000000000000000000000000000000000000000000000000000000000000000000000000000000000000000000000000000000000000000000000000000C0
:400040000000000000000000000000000000000000000000000000000000000000000000000000000000000000000000000000000000000000000000000000000000000080
:400080000000000000000000000000000000000000000000000000000000000000000000000000000000000000000000000000000000000000000000000000000000000040
:4000C0000000000000000000000000000000000000000000000000000000000000000000000000000000000000000000000000000000000000000000000000000000000000
:0200000490501A
:0C00000000012E16106900012E2B0300D9
:00000001FF