:400000000080002011000000450E0000450E000008B5044B1A6803F53F5302331A6000F031FF00BFFA46004010B5054C237833B9044B13B10448AFF300800123237010BDA1
:400040004881FF1F00000000982F0000084B10B51BB108490848AFF300800848036803B910BD074B002BFBD0BDE81040184700BF000000004C81FF1F982F0000C880FF1F74
:400080000000000038B562B601F0B8F801F070FC01F0D6FE0A2001F001F900F0D5FA284800F064FF274801F06BF801F0B1F901F097FA02F05FF900F03DFA0024224B1C7073
:4000C000224B1C70224B1C70224B1C700A2001F0E5F81D4B1B78DBB2022B0DD105E0204600F0FEFC044600F037FA00F0FBF90128F5D0204600F0FEF9144B1B78DBB2012B20
:40010000E7D12F2000F09AFA10F0400F0CD0124D284600F063FC284600F078FC00F09AFC284600F07BFA07E0312000F087FA00F0F5F90122074B1A700022044B1A70C8E792
:400140005D010000B5010000AC82FF1FAD82FF1FAE82FF1F4782FF1F8481FF1F10B5144B1B78DBB2022B0AD00222114B1A70012000F0A4F900F0A8FC02F010F910BD00F02B
:4001800095F90B4C2070002000F098F9237813F0FF0F02D100F082FC06E0054B1B78DBB2012B01D100F084FC02F0F8F810BD00BFAC82FF1F08B50D4B1B78DBB2012B07D185
:4001C00000200A4B187000F05DF900F067FC08BD064B1B7813F0FF0F06D10120034B187000F050F900F064FC08BD00BFAC82FF1F10B50446002001F019F9204601F05CFAA9
:40020000002001F059FA01F02FFA10F0010FFAD001F0BCFA01F0BAFA0446012001F006F9204610BD2DE9F04383B006460C4617469846002001F0FAF864B2002511E02146A1
:40024000082CA8BF0821C9B206EBC50001F01AFB01F00AFA10F0010FFAD0083C64B201356DB2002CEBDC01F01DFB01F0C1FA0026009601964FFA88F820E0C146B8F1080F7A
:40028000A8BF4FF008095FFA89F1684601F0FAFA01F0EAF910F0010FFAD0002406E004EBC60501F073FA78550134E4B24C45F6DBA8F108084FFA88F8013676B2B8F1000FCE
:4002C000DBDC012001F0B2F801F0ECFA01F090FA01F0AEFA03B0BDE8F08300BF10B50446002001F0AFF8204601F04EFC01F024FC10F0080FFAD001F0B1FC0446012001F0C2
:40030000A1F8204610BD00BF10B50446002001F099F8204601F038FC002001F035FC01F00BFC10F0010FFAD001F098FC01F096FC0446012001F086F8204610BD2DE9F04384
:4003400083B006460C4617469846002001F07AF864B2002511E02146082CA8BF0821C9B206EBC50001F0F6FC01F0E6FB10F0010FFAD0083C64B201356DB2002CEBDC01F044
:40038000F9FC01F09DFC0026009601964FFA88F820E0C146B8F1080FA8BF4FF008095FFA89F1684601F0D6FC01F0C6FB10F0010FFAD0002406E004EBC60501F04FFC785587
:4003C0000134E4B24C45F6DBA8F108084FFA88F8013676B2B8F1000FDBDC012001F032F801F0C8FC01F06CFC01F08AFC03B0BDE8F08300BF08B50520FFF786FF08BD00BF64
:4004000008B50620FFF76AFF08BD00BF00B583B003218DF80410030A8DF805308DF8060002AA002302F8053D012301A8FFF786FF9DF8030003B05DF804FB00BF30B583B036
:4004400004460D46FFF7DCFF02238DF80430230A8DF805308DF806408DF80750002302AA02F8053D04210DEB0100FFF767FF03B030BD00BF08B5FFF7BDFF10F0010FFAD174
:4004800008BD00BF10B504460020FFF7BFFF012C03D140F00101C9B201E000F0FE010020FFF7CCFFFFF7E6FF10BD00BF08B50020FFF7ACFF00F0010008BD00BF10B504460D
:4004C0000020FFF7A3FF012C03D140F00201C9B201E000F0FD010020FFF7B0FFFFF7CAFF10BD00BF08B50020FFF790FFC0F3400008BD00BF10B504460020FFF787FF012C05
:4005000003D140F00401C9B201E000F0FB010020FFF794FFFFF7AEFF10BD00BF10B51620FFF774FF000284B20820FFF76FFF204380B210BD08B500F08FFD00F0F9FD08BD24
:4005400010B50446007800F033FDA07800F036FD607800F0A3FD10BD00B583B0FF238DF8043001388DF805008DF8063001A8FFF7E7FF03B05DF804FBF0B482B00026ADF8F6
:400580000060ADF80260ADF8046015E006EB46056B00013365002B44C75602AB2B4433F8085C3D4423F8085C0134E4B200E00024022CEBD90136F6B29642F8D3002309E010
:4005C00002A800EB430030F9080C90FBF2F0C8540133DBB2022BF3D902B0F0BC704700BFC31718445840C0B2704700BF70B50546002410E02E192857FFF7F2FF285510F06B
:40060000800F01D07F232B5533785B00DBB2DB4333700134E4B2022CECD970BD10B5064C20222146FFF7A8FF2046FFF7DFFF2046FFF786FF10BD00BF4482FF1F08B540F024
:400640008000FFF7D5FD08BD2DE9F0438DB0CB4800F0EEFD0F20FFF7F1FFC94C0246C949204602F075F8204600F0E2FDC64D284600F0DEFD2720FFF7E1FF0246C349204658
:4006800002F066F8204600F0D3FD284600F0D0FD2020FFF7D3FF0246BD49204602F058F8204600F0C5FD284600F0C2FDDFF82883C14639F8043BADF82C3000260CAF07F88C
:4006C000056D33463A4602210BA8FFF7ABFD2020FFF7B4FF0246AF49204602F039F8204600F0A6FD284600F0A3FD2220FFF7A6FF0246A949204602F02BF8204600F098FDF5
:40070000284600F095FDB9F80030ADF828308DF82B6033463A4602210AA8FFF783FD2220FFF78CFF02469D49204602F011F8204600F07EFD284600F07BFD2320FFF77EFFE8
:4007400002469749204602F003F8204600F070FD284600F06DFDB8F80830ADF824308DF82B6033463A46022109A8FFF75BFD2320FFF764FF02468B49204601F0E9FF20460A
:4007800000F056FD284600F053FD2420FFF756FF02468549204601F0DBFF204600F048FD284600F045FDB8F80C30ADF820308DF82B6033463A46022108A8FFF733FD242010
:4007C000FFF73CFF02467949204601F0C1FF204600F02EFD284600F02BFD0CE0E8238DF80330062301AA01210DF10300FFF71AFD6F4800F01DFD2F20FFF720FF10F0200F99
:40080000ECD06C4800F014FD4FF02E098DF81C9000258DF81D500CAF07F8055D2B463A46022107A8FFF7FEFC012000F04DFD4846FFF704FF524C02465F49204601F088FF6C
:40084000204600F0F5FC504E304600F0F1FCDFF88881B8F81030ADF818308DF82B502B463A46022106A8FFF7DDFC4846FFF7E6FE02465249204601F06BFF204600F0D8FCBC
:40088000304600F0D5FC3020FFF7D8FE02464C49204601F05DFF204600F0CAFC304600F0C7FCB8F81430ADF814308DF82B502B463A46022105A8FFF7B5FC3020FFF7BEFEC9
:4008C00002464049204601F043FF204600F0B0FC304600F0ADFC3220FFF7B0FE02463A49204601F035FF204600F0A2FC304600F09FFCB8F81830ADF810308DF82B502B46EE
:400900003A46022104A8FFF78DFC3220FFF796FE02462E49204601F01BFF204600F088FC304600F085FC3320FFF788FE02462849204601F00DFF204600F07AFC304600F0FF
:4009400077FCB8F81C30ADF80C308DF82B502B463A46022103A8FFF765FC3320FFF76EFE02461C49204601F0F3FE204600F060FC304600F05DFC0DB0BDE8F083BC2F000036
:400980004882FF1FE42F00000C300000343000004C3000006430000088300000A0300000C4300000DC30000000310000183100003C31000058310000703100008C31000036
:4009C000B4310000CC310000F0310000083200002C3200004C3200009C2F000030B583B00546E8238DF8073000240AE004EB44035A0006232A4401210DF10700FFF712FC89
:400A000001341F2CF2DD03B030BD00BF30B583B00546A0238DF80030C0238DF80730002414E004EB44014B0013442B4413F8011C02AB134403F8081C013200E00122062A80
:400A4000EFDD0821684600F005FC01341F2CF5DD03B030BD30B583B02E238DF8043000248DF8054002AD05F8054D23462A46022101A8FFF7D7FB012000F026FC064B1B884E
:400A8000ADF800308DF8034023462A4602216846FFF7C8FB03B030BDAC2F000008B500F00BFD10F0800F01D000F0E0FC08BD00BF08B500F001FD10F0800F01D100F03AFD23
:400AC000FF2000F0E7FC08BD08B500F0F5FC10F0800F01D100F02EFD7F2000F0DBFC08BD10B5044601F0AAFCFF2802DC002803DA01E0FF2000E00020C0B23F2803D9BE28AF
:400B000002D9012400E00024204610BDFEE700BFF0B40022174611E050F82760F3B226F0FF0608E001EB420511F812406D78A5550132013BDBB2002BF4D10137252FEBD9A6
:400B4000F0BC70470A4B1B78DBB203F00701094A11701B09013213700822074B1A708023064A1370583213704422054B1A707047CF0100496E5800403D510040005B0040EC
:400B80007658004008B50A46002101F0D8FD08BD08B501F0C9FD08BD38B500243E4B1C80502202331A700B2202331A8018233B490B7002310A803A4A1370192502321580CD
:400BC00002321370EF21023211800232137047F22F53023213800232157002321380314B1D7040F2E73202331A801B2202331A7004222D492D48FFF7CBFF02222C4B1A709B
:400C000008224FF040231A70032103F500731970284B1B78DBB228490B70284B1A8041F25122023B1A800CE0254B1B7803F0010343EA440404F003044FF4F07001F038FD1E
:400C4000013D0DB1032CEFD115B90320FFF75EFF1C4B4FF480721A8007221A7000221A490A704820023108701A700222033B1A7004220A331A7003F297331A78FF221A70EB
:400C8000124A137843F001031370013A137843F08003137038BD00BF80400040864000408A4000409A400040540B0048004100400043004008010049A146004022420040EE
:400CC000254200400440004006400040A1430040012807D8044B53F820201844017A13780B431370704700BF78320000012808D8044B53F820201844017A137823EA010394
:400D0000137070477832000038B572B6394A137843F00403137000240BE0374863001A19510001440A46098AD068FFF72BFF0134E4B2082CF1D900240BE02F49A3001819D6
:400D4000420088188022816C406CFFF721FF0134E4B2002CF1D029494FF09040FFF7D8FE0A24274B1C70274A137843F0020313701032137843F002031370234D2B7843F08A
:400D800040032B70A2F58632513A137843F01003137008221D491E48FFF7FAFE22461D491D48FFF7F5FE22461C491D48FFF7F0FE22461C491C48FFF7EBFE08221B491C480F
:400DC000FFF7E6FE1B4A137843F0080313701A4C61232370FFF7E0FE812323700122174B1A70FFF7AFFE0E2229461548FFF7D0FE38BD00BFE84600407832000098000048C2
:400E00008358004003500140A0430040200B004802510040280B0048C0510040340B004810510040400B0048205100404C0B004832510040224300400048004004000840C7
:400E4000B043004008B501F043FC03680C2B00D1FEE7FEE708B5094B1A681044084BC31A802B02DC054B186005E001F031FC0C2303604FF0FF32104608BD00BFCC80FF1F64
:400E8000F882FF1F08B5104E104D16E029686B68AC68002204E051F8040B43F8040B0432A242F8D1E868002203E0002143F8041B04328242F9D11035013E002EE6D101F03B
:400EC0000DFCFFF7DFF8FEE7010000002033000008B5104A104B1A60104A136843F40073136000230AE0032B03D80D4A52F8231000E00C490C4A42F8231001332F2BF2D9CA
:400F00000A4B1A780A4B1A70074A0A4B1A60FFF7FBFE08BD0004FA050CED00E014ED00E000000000450E00000080FF1FBC760040C080FF1F08ED00E0014B1B6818647047C2
:400F400008ED00E04001C0B2014B1870704700BF00E400E00122014B1A60704700E100E00122014B1A60704780E100E010B50446FFF7F6FF2046FFF7DFFF0520FFF7E2FF69
:400F8000FFF7E8FF10BD00BF024A137843F080031370704775650040014B1870704700BF05650040014B1870704700BF45650040014B1870704700BF25650040014B1870D7
:400FC000704700BF35650040014B1870704700BF85650040014B1878704700BF65650040014B1878704700BF5565004008B501E0FFF7F6FFFFF7EEFF10F0100FF8D108BD6C
:4010000010B5134A137803F0C00343F009031370104C237843F001032370FF20FFF7BCFFFF20FFF7BFFF7F20FFF7C2FF3F20FFF7C5FF0020FFF7C8FF01F042FB237843F0DF
:401040001003237001F040FBFFF7D0FF10BD00BF756500409565004008B5054B1B7823B9FFF7CEFF0122024B1A70FFF78DFF08BD6481FF1F024A137843F0800313707047AF
:4010800074650040014B1870704700BF04650040014B1870704700BF44650040014B1870704700BF24650040014B1870704700BF84650040014B1878704700BF6465004010
:4010C000014B1878704700BF5465004008B501E0FFF7F6FFFFF7EEFF10F0100FF8D108BD10B5114A137803F0C00343F0090313700E4C237843F001032370FF20FFF7C2FFD4
:40110000FF20FFF7C5FF7F20FFF7C8FF0020FFF7CBFF01F0D5FA237843F01003237001F0D3FAFFF7D3FF10BD746500409465004008B5054B1B7823B9FFF7D2FF0122024B0E
:401140001A70FFF797FF08BD6581FF1F014B1B689864704708ED00E04001C0B2014B1870704700BF02E400E00422014B1A60704700E100E00422014B1A60704780E100E02E
:4011800010B50446FFF7F6FF2046FFF7DFFF0620FFF7E2FFFFF7E8FF10BD00BF7222074B1A700023064A13700621603A11704721103211704F321370704700BF866400401E
:4011C0008564004010B501F07BFA04460A4A137843F020031370013A137843F010031370013A137843F01003137000F047F8204601F06AFA10BD00BF9664004008B5054BBE
:401200001B7823B9FFF7CAFF0122024B1A70FFF7D9FF08BD6681FF1F034B1B7813F0040FFAD1024B18707047646400404464004038B5074B1B782BB938BDFFF7EDFF0134EE
:40124000A4B201E005460024285D0028F5D138BD6681FF1F084B1B7833B97047305DFFF7DBFF0134E4B203E070B50D4606460024AC42F3D370BD00BF6681FF1F054A137860
:4012800043F0080313701032137843F008031370704700BFA243004001BE704710B5044605E0084B186801F003FAA4F50044B4F5004FF6D8034B586800FB04F001F0F8F997
:4012C00010BD00BFD080FF1F08B5034B1B7A00FB03F001F0EDF908BDD080FF1F70B504460E46074B1D681F2802D90020FFF7D4FF04F01F04103455F8240045F8246070BDFD
:4013000008ED00E038B504460D46072902D90020FFF7C2FF1F2C02D90020FFF7BDFF04F01F0000F1604000F564406D01EDB2057038BD00BF084A137843F001031370103228
:40134000137843F00103137002F64D32137843F001031370704700BFA3430040014B1870704700BF034F0040014B1880704700BF044F0040014B1880704700BF064F004018
:4013800008B5204A137803F0010313701E4B197801F0FC011970117841F0040111701A7802F0F3021A701A7842F00C021A701A7802F07F021A701A7842F080021A701A7800
:4013C000D2B21A7009331A7802F0CF021A701A7842F030021A701A7802F0F0021A701A7842F00F021A70094A137843F001031370C720FFF7B9FFC720FFF7BCFF0820FFF702
:40140000ADFF08BD004F0040024F0040014F004008B5054B1B7823B9FFF7B2FF0122024B1A70FFF787FF08BD6881FF1F044A137803F07F03C001C0B218431070704700BF54
:4014400010510040044A137803F0EF03000100F0100018431070704720510040024A137843F08003137070477C640040024A137803F07F03137070477C640040014B187068
:40148000704700BF0C640040014B1870704700BF4C640040014B1870704700BF2C640040014B1870704700BF8C640040014B1878704700BF6C640040014B1878704700BF84
:4014C0007C640040014B1878704700BF5C64004008B501E0FFF7F6FFFFF7E8FF10F0100FF8D108BD10B5114A137803F0C00343F00A0313700E4C237843F001032370C8209C
:40150000FFF7BCFFC820FFF7BFFF6420FFF7C2FF0020FFF7C5FF01F0D3F8237843F01003237001F0D1F8FFF7D3FF10BD7C6400409C64004008B5054B1B7823B9FFF7D2FF27
:401540000122024B1A70FFF789FF08BD6981FF1F024A137843F080031370704773640040014B1870704700BF83640040014B1878704700BF63640040014B1870704700BF34
:401580002D640040014B1878704700BF4D640040014B1870704700BF0D64004008B501E0FFF7F0FFFFF7E2FF10F0080FF8D108BD08B56320FFF7E0FF6320FFF7E9FF01F0B6
:4015C0007FF8064A137843F01003137001F07CF8FFF7E4FF0120FFF7C3FF08BD9364004008B5054B1B7823B9FFF7E2FF0122024B1A70FFF7ADFF08BD6A81FF1F4022014B52
:401600001A60704700E100E02022014B1A60704700E100E008B501F053F80C4A137843F020031370A2F58072137843F010031370FF32137843F01003137001F045F800F005
:40164000ADFCFFF7DBFFFFF7DFFF08BD976500404022014B1A60704780E100E02022014B1A60704780E100E010B5FFF7F1FF064B1C78064A137803F009031C43002313708D
:40168000FFF7BCFF204610BD67640040B182FF1F10B5FFF7E3FF064B1B78064A147804F040041C4300231370FFF7AEFF204610BD66650040C182FF1F10B504462B4B1A78F7
:4016C00002F0FF0312B1013BDBB200E00723284A1278D2B29342F1D0FFF7BAFF254B1978254A137803F009030B4313701F4B1A78D2B21F4B1B78DBB29A4207D11E4B1B7816
:4017000013F0040F02D01D4B1C702CE0184A13780133DBB213701378DBB2072B02D90022134B1A70124B1A78D2B2104B1B78DBB29A420ED10D4A13780133DBB21370137807
:40174000DBB2072B02D90022084B1A7001220C4B1A70074B1B78DBB20A4AD4540A4A137843F004031370FFF749FF10BDB282FF1FB082FF1F67640040B182FF1F476500404D
:40178000B482FF1FB882FF1F8764004010B5FFF765FF134B1A78D2B2124B1B78DBB29A4214D0114B1B7813F0FF0F0CD10C4A13780133DBB213701378DBB2072B06D9002235
:4017C000074B1A7002E00022074B1A70044B1B78DBB2064AD45CE4B2FFF716FF204610BDCC82FF1FC082FF1FB382FF1FC482FF1F08B501E0094B1B78094B1B7813F0200F49
:40180000F8D1FFF72BFF0023064A1370064A1370064A1370FFF7F8FE08BD00BF5765004066650040B382FF1FCC82FF1FC082FF1F08B500F045FF0E4B1A7842F001021A70F2
:401840001A7802F0FE021A7000F03EFFFFF700FF0023084A1370084A1370084A1370084A137803F0FB031370FFF7C8FE08BD00BF97650040B482FF1FB282FF1FB082FF1FD3
:401880008764004070B506460C46002506E0705DFFF712FF0135EDB2013CE4B2002CF6D170BD00BF08B501E00A4B1B780A4B1B7813F0200FF8D100F003FF084B1A7842F062
:4018C00001021A701A7802F0FE021A7000F0FCFE08BD00BF57650040666500409765004038B50F22174B1A70174C4023236004210620FFF707FD15490620FFF7EFFC20255A
:40190000256004210520FFF7FDFC11490520FFF7E5FCFFF7C7FF00240E4B1C700E4B1C700E4B1C700E4B1C700E4B1C700E4B1C70FFF79AFEFFF7ACFE0C4B1C70FF331D7085
:4019400038BD00BF8765004080E100E08D1900002D1A0000B382FF1FCC82FF1FC082FF1FB482FF1FB282FF1FB082FF1F8764004008B5054B1B7823B9FFF7B2FF0122024B86
:401980001A70FFF747FE08BD6B81FF1F28E01F4B19781F4A137803F009030B431370137813F0040F24D01B4B1B7813F0FF0F0CD1194A13780133DBB213701378DBB2072BD4
:4019C00006D90022144B1A7002E00022114B1A70114B1B78DBB2114AD35CDBB2104A13700D4B1A78D2B20F4B1B78DBB29A42CED1094B1A78D2B20B4B1B78DBB29A4204D1AF
:401A0000094A137803F0FB031370704767640040B182FF1FB482FF1FB282FF1FB882FF1F47650040B082FF1F87640040204B1A7820490B7803F0400313430B7032E01E4B71
:401A40001A78D2B21D490B780133DBB20B700B78DBB2072B02D90021184B1970174B1978C9B2174B1B78DBB299420ED114490B780133DBB20B700B78DBB2072B02D90021FD
:401A80000F4B197001210F4B19700C4B1B78DBB20D49CA54064B1A7806490B7803F0400313430B70034B1B7813F0200FC7D1704766650040C182FF1F57650040C082FF1F6D
:401AC000CC82FF1FB382FF1FC482FF1F1022014B1A60704700E100E00822014B1A60704700E100E008B500F0EBFD0C4A137843F0200313700132137843F010031370023AD9
:401B0000137843F01003137000F0DEFD00F054FAFFF7DCFFFFF7E0FF08BD00BF916400401022014B1A60704780E100E00822014B1A60704780E100E010B5FFF7F1FF064B15
:401B40001C78064A137803F009031C4300231370FFF7BCFF204610BD62640040D082FF1F10B5FFF7E3FF064B1B78064A147804F040041C4300231370FFF7AEFF204610BD28
:401B800060640040EC82FF1F10B504462B4B1A7802F0FF0312B1013BDBB200E00723284A1278D2B29342F1D0FFF7BAFF254B1978254A137803F009030B4313701F4B1A7868
:401BC000D2B21F4B1B78DBB29A4207D11E4B1B7813F0040F02D01D4B1C702CE0184A13780133DBB213701378DBB2072B02D90022134B1A70124B1A78D2B2104B1B78DBB2F1
:401C00009A420ED10D4A13780133DBB213701378DBB2072B02D90022084B1A7001220C4B1A70074B1B78DBB20A4AD4540A4A137843F004031370FFF749FF10BDE982FF1F7D
:401C4000EA82FF1F62640040D082FF1F41640040DC82FF1FD482FF1F8264004010B5FFF765FF134B1A78D2B2124B1B78DBB29A4214D0114B1B7813F0FF0F0CD10C4A1378DB
:401C80000133DBB213701378DBB2072B06D90022074B1A7002E00022074B1A70044B1B78DBB2064AD45CE4B2FFF716FF204610BDD182FF1FEB82FF1FE882FF1FE082FF1F12
:401CC00008B501E0094B1B78094B1B7813F0200FF8D1FFF72BFF0023064A1370064A1370064A1370FFF7F8FE08BD00BF5164004060640040E882FF1FD182FF1FEB82FF1FD4
:401D000008B500F0DDFC0E4B1A7842F001021A701A7802F0FE021A7000F0D6FCFFF700FF0023084A1370084A1370084A1370084A137803F0FB031370FFF7C8FE08BD00BF7B
:401D400091640040DC82FF1FE982FF1FEA82FF1F8264004070B506460C46002506E0705DFFF712FF0135EDB2013CE4B2002CF6D170BD00BF08B501E00A4B1B780A4B1B78E2
:401D800013F0200FF8D100F09BFC084B1A7842F001021A701A7802F0FE021A7000F094FC08BD00BF51640040606400409164004010B50F22174B1A70174C1023236004219D
:401DC0000846FFF79FFA15490420FFF787FA0823236004210320FFF795FA11490320FFF77DFAFFF7C7FF00240E4B1C700E4B1C700E4B1C700E4B1C700E4B1C700E4B1C706A
:401E0000FFF79AFEFFF7ACFE0C4B1C702022023B1A7010BD8164004080E100E05D1E0000FD1E0000E882FF1FD182FF1FEB82FF1FDC82FF1FE982FF1FEA82FF1F8264004086
:401E400008B5054B1B7823B9FFF7B2FF0122024B1A70FFF747FE08BD6C81FF1F28E01F4B19781F4A137803F009030B431370137813F0040F24D01B4B1B7813F0FF0F0CD1F7
:401E8000194A13780133DBB213701378DBB2072B06D90022144B1A7002E00022114B1A70114B1B78DBB2114AD35CDBB2104A13700D4B1A78D2B20F4B1B78DBB29A42CED1FF
:401EC000094B1A78D2B20B4B1B78DBB29A4204D1094A137803F0FB031370704762640040D082FF1FDC82FF1FE982FF1FD482FF1F41640040EA82FF1F82640040204B1A78C7
:401F000020490B7803F0400313430B7032E01E4B1A78D2B21D490B780133DBB20B700B78DBB2072B02D90021184B1970174B1978C9B2174B1B78DBB299420ED114490B7844
:401F40000133DBB20B700B78DBB2072B02D900210F4B197001210F4B19700C4B1B78DBB20D49CA54064B1A7806490B7803F0400313430B70034B1B7813F0200FC7D17047F6
:401F800060640040EC82FF1F51640040EB82FF1FD182FF1FE882FF1FE082FF1F054A137843F0020313701032137843F002031370704700BFA2430040054A137843F00403CC
:401FC00013701032137843F004031370704700BFA243004010B59DF80840012C51D1013809282ED8DFE800F0052D2D052D2D0F192D230F2B03D92548007840B222E0244890
:40200000007840B21EE00F2B03D92248007840B218E02148007840B214E00F2B03D91F48007840B20EE01E48007840B20AE00F2B03D91C48007840B204E01B48007840B26B
:4020400000E0002001EB401101FB02F1C90B8AB20D2B0BD8C3F10E0289B211418AB2611E124800EB810101338B7005E0631E0F4901EB83030F219970013C0C4B23F82420AB
:4020800010BD0020FFF708F910BD00BF180100491C010049190100491D0100491A0100491E0100491B0100491F0100497081FF1FF8B5074600F004FB06460D4D2B7843F010
:4020C00003032B700B4C237843F0030323700A4B1F700320FFF7F8F82B7803F0FC032B70237803F0FC032370304600F0EDFAF8BDF8460040F9460040925800400022314B7D
:402100001A7101285CD170B538222F4B1A70042202331A70062201331A70002401331C7001331C700F2201331A7002331C7001331C7001331C7001250A331D70142203F57E
:4021400027631A70052601331E70162201331A7001331C70442203331A70482201331A7001331D7002331C7001331C700A2201331A70432201331A705220FFF799FF582291
:40218000124B1A7001331C7005331E70022201331A7001331C7001331C70204600F074F933220B4B1A602946304600F091F92946BA2000F011FA07491D20FFF78FF870BD8E
:4021C000704700BF7081FF1F004E004094580040F082FF1F65240000F0B583B0284D01272F70284E00247471102000F05FF9102000F0E0F907211D20FFF784F80422224B19
:402200001A7001331C7007331C70204A137843F0180313701E4B1C7003F2F5231C7001331C700A22A3F209331A7001331C7002331C70122205331A70132201331A70043352
:402240001C701422A3F68C231A70009708234FF4004248F66B510220FFF7BCFE2B78013B06EB83039A780B4B1A702B78013B36F82320094B1A802878FFF740FF03B0F0BDFC
:40228000E080FF1F7081FF1F96580040075B0040935800400E4E00400C4E004070B500F00FFA06462A4B1B782A4B1A7842F001021A701A7842F010021A7010331A7842F0C1
:4022C00001021A701A7842F010021A70224D2B7843F002032B70214C237843F0020323701F4A137843F0030313700320FEF7ECFF2B7803F0FD032B70237803F0FD03237034
:40230000184A137843F0060313707A22164B1A70164A137843F0010313701032137843F0010313700F3A137843F0010313701032137843F0010313704FF000530C4A1360CE
:40234000A2F5C0721360304600F0BEF970BD00BFE080FF1FAA430040F8460040F9460040915800407758004082580040A143004080E200E008B5084B9B794BB9064BDB79EB
:4023800013F0FF0F01D1FFF727FF0122024B9A71FFF784FF08BD00BF7081FF1F024A137843F0010313707047004E0040024A137803F0FE0313707047004E0040094B1B7946
:4023C00013F0FF0F03D0074B5B79DBB203E0064B1B7803F00103012B01D00028EED01846704700BF7081FF1F014E00400E4B1B7803F00303012B03D80C4B188880B209E035
:402400000A4A12780A49087842EA0020032B01D1084B1B78084B1B7913F0FF0F02D00022054B5A7100B27047144E0040104E0040114E0040124E00407081FF1F10B5084AA4
:40244000137843F004031370FFF7A8FF0020FFF7B5FFFFF7CBFF0446FFF7A8FF204610BD014E0040704700BF10B5002404E02046FEF73CFC0134E4B2012CF8D9FF22014B38
:402480001A7010BDE180FF1F10B50446FFF7ECFF2046FEF71DFC014B1C7010BDE180FF1F014B188880B2704780400040034B1A7800F0F80010431870704700BF82400040CE
:4024C000024B187800F00700704700BF8240004070B505460E46FFF7F3FF0446FFF7E0FFA84256D02B4B1B7803F0010294B900B185B938B9284B1D80284A137803F0BF03C7
:40250000137070BD254A137843F040031370224B1D8070BD22B3002321490B7001240F310C7004310B700C390B7803F07F030B701A4B1B7813F0080F00D08DB9194B188077
:402540000721013B1970164B1B7813F0010FFAD110490B7803F0FE030B700021104B19700C4B1B7813F0010F0DD00E4B1D800EB1032200E001220A4B1A70094B1B7813F0CC
:40258000010FFAD170BD044B1D8002490B7813430B7070BDA243004080400040824000400140004002400040014B188880B2704700410040034B1A7800F0F8001043187038
:4025C000704700BF02410040024B187800F00700704700BF0241004070B505460E46FFF7F3FF0446FFF7E0FFA84256D02B4B1B7803F0010294B900B185B938B9284B1D80FE
:40260000284A137803F0BF03137070BD254A137843F040031370224B1D8070BD22B3002321490B70012413310C7004390B7008390B7803F07F030B701A4B1B7813F0080FCE
:4026400000D08DB9194B18800721013B1970164B1B7813F0010FFAD110490B7803F0FE030B700021104B19700C4B1B7813F0010F0DD00E4B1D800EB1032200E001220A4B2D
:402680001A70094B1B7813F0010FFAD170BD044B1D8002490B7813430B7070BDA1430040004100400241004001400040024000400230800803D000BF01380046FCD170476C
:4026C000EFF3108072B6704780F31088704700BF014B1868704700BF4481FF1F0E4B70B51E460E4C0025E41AA410A54204D056F8253098470135F8E700F000FE084B094CE8
:402700001E46E41AA4100025A54204D056F8253098470135F8E770BD0833000008330000083300001033000010B5431E0A44914204D011F8014B03F8014FF8E710BD03463B
:402740000244934202D003F8011BFAE7704700000EB400B54FF402719CB0ADF814106FF00041049107914FF6FF711DAB02900690084853F8042BADF81610006802A90193CD
:4027800000F064F8029B00221A701CB05DF804EB03B070474481FF1F2DE9F0478E6882469E420C46914698463ED88A8912F4906F3AD02568096902236F1A656905EB450548
:4027C00095FBF3F57B1C43449D4238BF1D4653050FD5294600F040FB064698B13A462169FFF7A2FFA38923F4906343F08003A38113E02A4600F08EFB064670B9216950467D
:4028000000F0DEFA0C23CAF80030A3894FF0FF3043F04003A381BDE8F08726613E44266046466561ED1BA560464528BF464649463246206800F0A8FAA36800209B1BA3606E
:4028400023681E442660BDE8F08700002DE9F04F9DB003938B8980461C060D4616460DD50B695BB9402100F0F7FA2860286118B90C23C8F80030CDE040236B61002309939E
:4028800020238DF82930DFF89CB130238DF82A3037463C4614F8013B1BB9B7EB060910D003E0252BF9D02746F3E74B46324629464046FFF771FF013000F0A780099B4B44D3
:4028C00009933B78002B00F0A08000234FF0FF3204930793059206938DF853301A930126052221784E4800F041FA671C049B38B14B4A3C46801A06FA00F018430490EFE78C
:40290000D90644BF20228DF853201A0744BF2B228DF8532022782A2A03D0079A00210A200BE0039A111D12680391002A10DA524243F00200079204900BE027463B78013457
:40294000303B092B03D800FB02320121F5E701B107923B782E2B1ED17B782A2B0AD1039B02371A1D1B680392002BB8BF4FF0FF33059310E0002319460593781C0A2407465D
:402980003A780130303A092A03D804FB01210123F5E703B1059103223978224800F0E6F940B14023CBEB000003FA00F0049B013718430490397806221B487E1C8DF82810F2
:4029C00000F0D4F988B1194B33B9039B073323F007030833039314E003AB00932A46144B04A94046AFF3008007E003AB00932A460F4B04A9404600F093F8B0F1FF3F82462B
:402A000003D0099B5344099342E7AB895B0601D4099801E04FF0FF301DB0BDE8F08F00BFC8320000CE320000D232000000000000992700002DE9F04791461F460A698B680C
:402A400006469342B8BF1346C9F8003091F843200C46DDF8208012B10133C9F800302368990642BFD9F800300233C9F80030256815F0060510D104F1190A07E0012352464E
:402A800039463046C04701301AD00135E368D9F800209B1A9D42F1DB94F843302268003318BF012392060FD5E118302081F843005A1C94F845102244023382F8431003E053
:402AC0004FF0FF30BDE8F08704F1430239463046C0470130F4D02268D9F80050E36802F00602042A08BF5D1B2269A3680CBF25EAE57500259342C4BF9B1AED184FF000097B
:402B00001A344D4509D00123224639463046C0470130D5D009F10109F3E70020BDE8F0872DE9F04317460A7E85B06E2A984606460C460C9B01F1430E00F0AE8011D8632A6F
:402B400022D009D8002A00F0BB80582A40F0CA8081F84520834955E0642A1ED0692A1CD0C0E0732A00F0B08009D86F2A2ED0702A40F0B8800A6842F020020A603EE0752A93
:402B800024D0782A3AD0ADE01A6801F14205111D1960136884F84230A8E021681A6811F0800F02D0111D196008E011F0400F02F10401196002D0B2F9003000E01368002BA5
:402BC0003CDA2D225B4284F8432037E021681A6811F0800F02D0111D196007E011F0400F02F10401196001D0138800E01368227E5C496F2A14BF0A2208221BE078225A491B
:402C000084F845202268186812F0800F00F104051D6003D1550601D5038800E00368D00744BF42F0200222601BB9226822F0200222601022002084F8430001E049490A2252
:402C40006568002DA56008DB206820F0040020602BB9002D7DD175460CE0002B79D07546B3FBF2F002FB1033CB5C05F8013D03460028F5D1082A0BD12368DA0708D52369D5
:402C800062689A42DEBF302305F8013C05F1FF35C5EB0E0323612EE008681A6810F0800F496903D0101D1860136808E010F0400F02F104001860136801D0198000E01960BD
:402CC00000232361754616E01A68111D1960156800216268284600F049F808B1401B6060636804E004F1420584F8422001232361002384F84330CDF800803B4603AA21461B
:402D00003046FFF797FE013002D14FF0FF3026E023692A4639463046C0470130F5D023689B0710D5002504F1190907E001234A4639463046C0470130E7D00135E368039A41
:402D40009B1A9D42F2DBE068039B9842B8BF184605E00B7804F1420584F842308AE705B0BDE8F083D9320000EA32000010B5C9B202449042034605D01C7801308C42F8D194
:402D8000184610BD002010BD884210B501EB020301D8421E0BE09842FBD28118D21AD34204D013F8014D01F8014DF8E710BD994204D011F8014B02F8014FF8E710BD0000FC
:402DC00038B50546002944D051F8043C0C1F002BB8BFE41800F0D4F81E4A1368114613B96360146030E0A3420DD92268A018834201BF18685B681218226063600C6023E050
:402E0000A24203D813465A68002AF9D118681918A1420BD12168014458188242196013D110685268014419605A600DE002D90C232B6009E021686018824201BF1068526829
:402E40000918216062605C602846BDE8384000F098B838BD8081FF1F70B5CD1C25F0030508350C2D38BF0C25002D064601DBA94202D90C23336046E000F082F8234B1C682B
:402E80001A462146A1B10B685B1B0ED40B2B03D90B60CC18CD501EE08C420BBF63684B681360636018BF0C4615E00C464968E9E7174C23681BB9304600F052F82060294614
:402EC000304600F04DF8431C18D0C41C24F00304A0420DD12560304600F053F804F10B00231D20F00700C31A0ED05A42E25070BD211A304600F034F80130EBD10C23336066
:402F0000304600F03EF8002070BD00BF8081FF1F7C81FF1FF8B5074615460E4621B91146BDE8F840FFF798BF1AB9FFF749FF2846F8BD00F027F885420ED929463846FFF7D7
:402F40008BFF044650B131462A46FFF7EDFB31463846FFF735FF01E03046F8BD2046F8BD38B5064C0023054608462360FDF772FF431C02D1236803B12B6038BDF482FF1F09
:402F80007047704751F8040C0028BEBF091851F8043CC0180438704700000000206F00002242000023800000244000002E400000302A000032640000330400002A2A2A2AF9
:402FC0002A2A2A2A2A202020204C49533344482054455354202020202A2A2A2A2A2A2A2A2A0D0A0057484F20414D2049205245473A20307825303258205B4578706563749F
:4030000065643A20307833335D0D0A002A2A2A2A2A2A2A2A2A2A2A2A2A2A2A2A2A2A2A2A2A2A2A2A2A2A2A2A2A2A2A2A2A2A2A2A2A0D0A00535441545553205245473A2086
:40304000307825303258200D0A0000004354524C20524547313A20307825303258200D0A000000004354524C20524547312041465445522057524954453A203078253032EC
:4030800058200D0A000000004354524C20524547333A20307825303258200D0A000000004354524C20524547332041465445522057524954453A20307825303258200D0A48
:4030C000000000004354524C20524547343A20307825303258200D0A000000004354524C20524547342041465445522057524954453A20307825303258200D0A0000000095
:403100004354524C20524547353A20307825303258200D0A000000004354524C20524547352041465445522057524954453A20307825303258200D0A000000002D2D2D2D9E
:403140004649464F20464C555348494E472D2D2D2D2D0D0A000000002A2A2A2A2A2A2A2A2A4649464F20464C55534845440D0A004649464F204354524C205245473A2030D2
:403180007825303258200D0A000000004649464F204354524C205245472041465445522057524954453A20307825303258200D0A00000000494E54312043464720524547AB
:4031C0003A20307825303258200D0A00494E543120434647205245472041465445522057524954453A20307825303258200D0A00494E543120544853205245473A2030782D
:4032000025303258200D0A00494E543120544853205245472041465445522057524954453A20307825303258200D0A00494E5431204455524154494F4E205245473A2030D0
:403240007825303258200D0A00000000494E5431204455524154494F4E205245472041465445522057524954453A20307825303258200D0A00000000035B00402443004086
:4032800040000000004F00401800405100403000F0510040100000000140800000010140000F00140140000800400140000A004C014000020050014020000000800001409A
:4032C000A00A004880004300232D302B2000686C4C00656667454647003031323334353637383941424344454600303132333435363738396162636465660000F8B500BFBA
:40330000F8BC08BC9E4670474D000000D10E0000F8B500BFF8BC08BC9E4670472900000030330000C880FF1F80000000B001000000000000F882FF1F0000E02EC05D0000E9
:403340001800000000366E0101FF00000000000000000000000000000000000000000000000000000000000000000000C63200000000000000000000000000000000000098
:403380000000000000000000000000000000000000000000000000000000000000000000000000000000000000000000E480FF1F000000000000000000000000000000008B
:4033C00000000000000000000000000000000000000000000000000000000000000000000000000000000000000000000000000000000000000000000000000000000000CD
:40340000000000000000000000000000000000000000000000000000000000000000000000000000000000000000000000000000000000000000000000000000000000008C
:40344000000000000000000000000000000000000000000000000000000000000000000000000000000000000000000000000000000000000000000000000000000000004C
:40348000000000000000000000000000000000000000000000000000000000000000000000000000000000000000000000000000000000000000000000000000000000000C
:020000040003F7
:0200000480007A
:40000000044F0040085200400664004003650040270001403E0101404F0201404503014067040140570501405106014046070140020901400E0B01405E0C0140400D0140F0
:40004000020F0140651401404C15014068160140531701400418014007190140021B014008400140114101400B4201400843014006440140104501400646014005470140DB
:400080000D4801400A490140064C0140064D0140065001400251014001600AB10D7016360020012010021102186019406008610C810F830D840F853886728C0D840D850FAD
:4000C000870F01CD09010B320D020F0D1001114D12041380158D174019101B601D121E061F6421CD25CD28012A022B802D722F083206338035703601370F38803BA03F0406
:4001000054405604580459045B045C255D205F0104A0054208020A020C020D100E21120816011716180219081D201E622158223024A025052680274229402A102BA02D80C7
:400140002FA030023290330436A03705382039803A013D0A3F80452447424D424F04561057456108634A66206C026E016FB57580760187408A108C01C0D0C2F9C4F2CADFAA
:40018000CCFFCEDDD0F0D210D82FE2800119030605130640070C08130A040C040E3911151220130A140E1A801D021E801F0D2005223A3030310F320F34C0350F371038086F
:4001C0003B223E103F4054095604580459045B045C225D205F01811084098510861089018A038B3A8DC09010920C9502971D99109A209F10A010A110A414A563A78CA80C96
:40020000A9A3AA11AB54AC1CAE02B21FB31FB41FB620B7E0B980BB08D280D401D804D904DB04DC13DD60DE80DF050010022004A808100B400C100EA00F02102011801280C5
:4002400013201702181019A01D201EA021482310278529182A0231083250378239A53D4A3F8046A0470558415A045C205E425F046680678070027B02864488118B2090A067
:4002800092409304960297809B029C029E20A105A201A340A608A940AD08AF40C0E6C2FAC41FCA07CC9ECECFD6FBD890DE08E203EC08EE05019D059D060109E20B180C025B
:4002C0000D020F0D15421794191D1B801D8D1F102004219D2511272229802B403204340235F03601370F3BB03E1440524103450B460E470C481549FF4AFF4BFF4EF04F4491
:40030000500C5401580459045A045B045C155D335F0166C06A406B028473852086048703914C93139608974C99119A359B0E9C739E0C9F08A04AA111A214A346A403A61426
:40034000B010B260B34AB530B60FB70FB808B920BA80BB88BE05C003C540C9FFCA07CBFFCC40CD20CEF0CF05D008D418D804D904DA04DB04DC33DD33DF01E040E1A8E240AB
:40038000E320032207200E260F081240130214101508170119241A021B801D081E421F40200C2150241025402630272929082A022B082F4032543680372939A53F0840101F
:4003C0004204450848204A014B404E804F0851045240581059045A405B025C026404654089208E018F8093109408952596A2974099809D189E029F20A120A322A420A5404E
:40040000A6A0A701A802AB02AC40AE08B002B120B420B540C025C2E0C438CA87CCFECE4FD046D208D68FD830E002E640EA0CEE090004014204180504082709630A180E0441
:400440000F73101C110F12211370143C15731602170C183F190C1B731C101D21210822232408257F290C311C321F3360350F36383A283B2256025711580459045B045C33F5
:400480005D305F0183038423850E86D887018822902292509463968C988199029A749B0C9C72A072A472A50DA702A850AA22AF04B080B107B260B41FB508B601B820B920EF
:4004C000BE41D409D604D804D904DB04DC11DD10DF01000801200308058007540A940B010C800D020E28111516801709180119181A5C1E2A1F142101230424102503262261
:40050000270429082A402C882F103110348036123744380439023E883F224C044F2059245A415F20600163806D6874887608771883408F40900493109408950796A89980DC
:400540009C069D589E03A004A120A709AD01C0F6C2FFC43ECAEACCF4CEF3D62FD8099F40E2108B088D029D029F40A708A810AA08AC02AF80B240B350E062E820EC800208D0
:40058000060807080A080B010E020F0210011302160417051D0C27012806290C3201330C34063502360837013E443F104040410545D046024701483649FF4AFF4BFF4DA0F4
:4005C0004F04501852805405580459045A045B045C655D555F01604062C06440654066C068C06AC06CC06EC081018201830285028601870188018B048C018F049103A5035B
:40060000B201B503B704BF40C016C103C620C7ECC838C9FFCAFFCBFFCF01D018D804D904DA04DC66DD06DF01E040E240E440E540E680E880EA80EC80EE80001401010341BC
:40064000042006510C080F401408181019041A101C201D101F80200524202684270929042E102F103301350236843702382439013A403C043F904001430847024B204F818F
:40068000510A52105310540A560957405C405F0974018040811082108508881189029808C0FFC230C440CA62CCD1CE7FD08AD214D6D0E2A0E620EC08EE058C08E040020142
:4006C0000301040908100A600C440E120F0E120914091702187619081C221E14200924762C09300631023201330134703504360837083E444030410245D04621480E49FFF9
:400700004AFF4BFF4DA04F04501852805405580459045A045B045C435D445F01604062C06440654066C068C06AC06CC06EC0870D8A0494019A079B069D01A702B001B108B6
:40074000B202B304B502B604B701BF10C020C103C5D1C620C705C81BC9FFCAFFCBFFCDA0CF04D018D280D407D804D904DA04DB04DC44DD44DF01E040E2C0E440E540E6C04F
:40078000E8C0EAC0ECC0EEC00124028003020510088009100A600E100F08108011081380180919281A011B031C401E101F8021052264258827482F20322435103750388299
:4007C0003C0841244610471049014F0950505120540456105720580859015A805C505F0970017680850187808C108D889104926094299609988899109B809D089E80A080C4
:40080000A114A280A701AF40B302C04FC26FC40DCA40CC36CE49D066D6FBE610EA08EE80010202010304050109010F08150619061A021E021F0829022B042D013104330241
:40084000340135083602370139023E403F144035410642044402450C460E480549FF4AFF4BFF4C624DA04EF04F41500C54405604580459045A045B045C345D135F01664046
:40088000670269106A306B106D106E106F1288048B018F029701A401A606B001B101B202B404B502BE01BF01C026C103C210C405C5DEC6FBC70CC81FC9FFCAFFCBFFCC2282
:4008C000CEF0CF0CD004D602D728D804D904DA04DB04DC66DD11DF01E2C0E440E501E610E711E8C0E901EB11EC40ED01EE40EF01001006800C400E020F0813081810192049
:400900001B021D5020402308240227652D402F0432043420362C374038203B403D2A3F804001421444604520480449044A804B824C014E084F0852505308574058045B04DB
:40094000631065086611670269156AE06B80708072027301804887408D208F089140921493189408951596A1970198809C049D449E439F21A004A135A225A709A812AF048A
:40098000C012C2C0C404CA30CC72CEFCD0EED23CD8F2E201E642B982BF41D904DF012002210281028F409F40E010E602B001EA08328237423A4087028A04CCF0CE10E64011
:4009C000308037105A086410820284109208A682AB40AE40CC30D640D880E280E640EA10EE8012805110570887018C809F10A480A680C410D460E0406880831095209F1136
:400A0000AF08DC20E220EE40130273107C08C408DC01DE010108030856028A208B1097109A029C089D08A908AB02AE02C00AD604E204E401450885089C08A308A620D001B5
:400A40008E209C08A308A620E208270167806B2083208C809F01A480AD10C820D880DA40E280EA405A025C086604840886018E04B340D6C0D880E6500A0187089C08A3084A
:400A8000A620C2021220A620AE01B008C408E801006E086E0A2A0E60105A1A5A00FF013F609C000300330044070038005682090004188002010200180418000084C100380D
:400AC0000A1A10008018040284000000841A000008E07F138000800F08000082000051004103200005BEDCDF3FFFFFFF2200F00804000000000002240404040422220001E7
:400B00000000C00040011011C0010011400140010000000000000000000000000000000000606000600000008400508C8C008C00000000008000408B8B00000000000000D1
:400B400014000116120002000000000000E0E000E0000800BB00180100000000000000000000000000000000000000000000000000000000000000000000000000000000BA
:400B80000000000000000000000000000000000000000000000000000000000000000000000000000000000000000000000000000000000000000000000000000000000035
:400BC00000000000000000000000000000000000000000000000000000000000000000000000000000000000000000000000000000000000000000000000000000000000F5
:400C000000000000000000000000000000000000000000000000000000000000000000000000000000000000000000000000000000000000000000000000000000000000B4
:400C40000000000000000000000000000000000000000000000000000000000000000000000000000000000000000000000000000000000000000000000000000000000074
:0200000490006A
:0400000000004005B7
:0200000490105A
:04000000BC90ACAF55
:0200000490303A
:020000008A98DC
:0200000490402A
:4000000000000000000000000000000000000000000000000000000000000000000000000000000000000000000000000000000000000000000000000000000000000000C0
:400040000000000000000000000000000000000000000000000000000000000000000000000000000000000000000000000000000000000000000000000000000000000080
:400080000000000000000000000000000000000000000000000000000000000000000000000000000000000000000000000000000000000000000000000000000000000040
:4000C0000000000000000000000000000000000000000000000000000000000000000000000000000000000000000000000000000000000000000000000000000000000000
:0200000490501A
:0C00000000012E16106900012E2C9B013F
:00000001FF