:400000000080002011000000891300008913000008B5044B1A6803F53F5302331A6001F0D3F900BFFA46004010B5054C237833B9044B13B10448AFF300800123237010BD72
:400040004881FF1F0000000030360000084B10B51BB108490848AFF300800848036803B910BD074B002BFBD0BDE81040184700BF000000004C81FF1F30360000C880FF1F36
:40008000000000002DE9F04FBDB062B601F078FB01F058FF02F0BEF90A2001F0C1FB00F05DFC4B4801F086FD4A4801F001FA4A4801F026FB01F06EFC01F054FD02F0C8FA77
:4000C00002F0A4FC00F0B6FB4FF00009434B83F80090434B83F80090424B83F800900A2001F09EFB00F06EFB3C4B1B78DBB2012B06D013B1022B0DD013E000F087FB10E0E2
:40010000394800F015FC0CE0484600F003FF814600F0AEFB00F088FA0128F5D0484600F08BFA2F4B1B78DBB2012B12D12E4C204600F0DEFD204600F0F3FD00F091FA0128D0
:4001400002D1204600F06EFE00F09EFE0022244B1A70244B1B78DBB2012BC5D1312000F0F7FB064610F0400FF8D100F0A1FA824600F01CFF8346002722E00DAC394620466D
:4001800000F016FE0DF1700800945B4632465146404600F0EDFE6C4620AD0FCD0FC40FCD0FC495E80F0084E80F0098E80F0000F0B5FA3A4651462CA800F0E8FA0137FFB268
:4001C000042FDAD90022074B1A7000F05DFE8BE785020000ED01000045020000D083FF1FD183FF1F6883FF1F8481FF1F10B5144B1B78DBB2022B0AD00222114B1A7001201D
:4002000000F0FEF900F07AFE02F014FC10BD00F0EFF90B4C2070002000F0F2F9237813F0FF0F02D100F054FE06E0054B1B78DBB2012B01D100F056FE02F004FC10BD00BF0F
:40024000D083FF1F08B50E4B1B78DBB2012B08D1002000F0B9F900F03BFE0022084B1A7008BD074B1B7813F0FF0F07D1012000F0ABF900F037FE0122014B1A7008BD00BFFE
:40028000D083FF1F08B52F2000F062FB10F0400F02D00122054B1A70312000F059FB10F0400F02D00122024B1A7008BDD183FF1F6883FF1F10B50446002001F079FB20466C
:4002C00001F0E4FC002001F0E1FC01F0B7FC10F0010FFAD001F044FD01F042FD0446012001F066FB204610BD2DE9F04383B006460C4617469846002001F05AFB64B2002579
:4003000011E02146082CA8BF0821C9B206EBC50001F0A2FD01F092FC10F0010FFAD0083C64B201356DB2002CEBDC01F0A5FD01F049FD0026009601964FFA88F820E0C146F8
:40034000B8F1080FA8BF4FF008095FFA89F1684601F082FD01F072FC10F0010FFAD0002406E004EBC60501F0FBFC78550134E4B24C45F6DBA8F108084FFA88F8013676B265
:40038000B8F1000FDBDC012001F012FB01F074FD01F018FD01F036FD03B0BDE8F08300BF10B50446002001F00FFB204601F0D6FE01F0ACFE10F0080FFAD001F039FF044655
:4003C000012001F001FB204610BD00BF10B50446002001F0F9FA204601F0C0FE002001F0BDFE01F093FE10F0010FFAD001F020FF01F01EFF0446012001F0E6FA204610BD20
:400400002DE9F04383B006460C4617469846002001F0DAFA64B2002511E02146082CA8BF0821C9B206EBC50001F07EFF01F06EFE10F0010FFAD0083C64B201356DB2002C7A
:40044000EBDC01F081FF01F025FF0026009601964FFA88F820E0C146B8F1080FA8BF4FF008095FFA89F1684601F05EFF01F04EFE10F0010FFAD0002406E004EBC60501F0FA
:40048000D7FE78550134E4B24C45F6DBA8F108084FFA88F8013676B2B8F1000FDBDC012001F092FA01F050FF01F0F4FE01F012FF03B0BDE8F08300BF08B50520FFF786FF83
:4004C00008BD00BF08B50620FFF76AFF08BD00BF00B583B003218DF80410030A8DF805308DF8060002AA002302F8053D012301A8FFF786FF9DF8030003B05DF804FB00BF0A
:4005000030B583B004460D46FFF7DCFF02238DF80430230A8DF805308DF806408DF80750002302AA02F8053D04210DEB0100FFF767FF03B030BD00BF10B582B003248DF842
:400540000440030A8DF805308DF8060013460A46214601A8FFF754FF02B010BD2DE9F04182B000AF054688461446FFF7ABFF012001F06CF9E61C04F10A0323F00703ADEBF9
:40058000030D02238DF800302B0A8DF801308DF80250224641460DF1030002F011FC002307F1080202F8013DF1B26846FFF728FF0837BD46BDE8F08108B5FFF77DFF10F04E
:4005C000010FFAD108BD00BF10B504460020FFF77FFF012C03D140F00101C9B201E000F0FE010020FFF78CFFFFF7E6FF10BD00BF08B50020FFF76CFF00F0010008BD00BFC0
:4006000010B504460020FFF763FF012C03D140F00201C9B201E000F0FD010020FFF770FFFFF7CAFF10BD00BF08B50020FFF750FFC0F3400008BD00BF10B504460020FFF727
:4006400047FF012C03D140F00401C9B201E000F0FB010020FFF754FFFFF7AEFF10BD00BF08B50020FFF734FFC0F3800008BD00BF10B504460020FFF72BFF012C03D140F0E1
:400680000801C9B201E000F0F7010020FFF738FFFFF792FF10BD00BF10B51620FFF718FF000284B20820FFF713FF204380B210BD08B5FFF7F1FF034BA3FB0030C0F38700C2
:4006C00008BD00BFCDCCCCCC00B583B0FFF7E4FFB0F5007F0DD2013080B28DF80400000A8DF80500022201A90820FFF737FFFFF763FF03B05DF804FB10B50446FFF7CCFFB0
:400700000130800180B247F6BF73984205D840222146FFF723FFFFF74FFF10BD84B000B591B00DF1480E8EE80F007146684600F049FC6846FFF7E0FFFFF7C6FF11B05DF8CC
:4007400004EB04B0704700BF38B50546402405E04034A4B247F6FE739C4206D82046FFF7B7FEA842F4D1204638BD4FF6FF7038BD38B5054614460846FFF7E6FF00EB8410AD
:400780004022294680B2FFF7D7FE38BDF0B5A1B0074610A8FFF7ECFF10A9684600F034FC6C463D460DF1400E26460FCE28606960AA60EB60344610357645F5D1384621B014
:4007C000F0BD00BF30B591B040220021684602F002FB002425460DE0402269462846FFF7BDFEFFF7E9FE4035ADB2052001F018F80134A4B2B4F5007FEED30120FFF738FF02
:40080000052001F00DF811B030BD00BF08B500F0D9FE10B1002000F06DFE00F0D9FE10B1002000F06DFE00F04BFF10B1002000F0E9FE08BD08B500F075FE10F0800F01D135
:4008400000F0B2FE00F0F0FE10F0800F01D100F029FFFFF7DBFF08BD10B50446007800F049FEA07800F04CFE607800F0CBFE10BD00B583B000238DF8043040428DF80500AE
:400880008DF8063001A8FFF7E7FF03B05DF804FBF0B482B00026ADF80060ADF80260ADF8046015E006EB46056B00013365002B44C75602AB2B4433F8085C3D4423F8085C74
:4008C0000134E4B200E00024022CEBD90136F6B29642F8D3002309E002A800EB430030F9080C90FBF2F0C8540133DBB2022BF3D902B0F0BC704700BFC31718445840C0B23D
:40090000704700BF70B5054600240EE02E192857FFF7F2FF285510F0800F01D07F232B5533785B0033700134E4B2022CEED970BD10B5064C20222146FFF7AAFF2046FFF7C2
:40094000E1FF2046FFF788FF10BD00BF4482FF1F08B540F08000FFF7ADFC08BD2DE9F0438DB0CB4800F026FF0F20FFF7F1FFC94C0246C949204602F037FA204600F01AFF49
:40098000C64D284600F016FF2720FFF7E1FF0246C349204602F028FA204600F00BFF284600F008FF2020FFF7D3FF0246BD49204602F01AFA204600F0FDFE284600F0FAFE98
:4009C000DFF82883C14639F8043BADF82C3000260CAF07F8056D33463A4602210BA8FFF783FC2020FFF7B4FF0246AF49204602F0FBF9204600F0DEFE284600F0DBFE222047
:400A0000FFF7A6FF0246A949204602F0EDF9204600F0D0FE284600F0CDFEB9F80030ADF828308DF82B6033463A4602210AA8FFF75BFC2220FFF78CFF02469D49204602F004
:400A4000D3F9204600F0B6FE284600F0B3FE2320FFF77EFF02469749204602F0C5F9204600F0A8FE284600F0A5FEB8F80830ADF824308DF82B6033463A46022109A8FFF7EC
:400A800033FC2320FFF764FF02468B49204602F0ABF9204600F08EFE284600F08BFE2420FFF756FF02468549204602F09DF9204600F080FE284600F07DFEB8F80C30ADF8B9
:400AC00020308DF82B6033463A46022108A8FFF70BFC2420FFF73CFF02467949204602F083F9204600F066FE284600F063FE0CE0E8238DF80330062301AA01210DF103005B
:400B0000FFF7F2FB6F4800F055FE2F20FFF720FF10F0200FECD06C4800F04CFE4FF02E098DF81C9000258DF81D500CAF07F8055D2B463A46022107A8FFF7D6FB012000F026
:400B400085FE4846FFF704FF524C02465F49204602F04AF9204600F02DFE504E304600F029FEDFF88881B8F81030ADF818308DF82B502B463A46022106A8FFF7B5FB4846E3
:400B8000FFF7E6FE02465249204602F02DF9204600F010FE304600F00DFE3020FFF7D8FE02464C49204602F01FF9204600F002FE304600F0FFFDB8F81430ADF814308DF8A2
:400BC0002B502B463A46022105A8FFF78DFB3020FFF7BEFE02464049204602F005F9204600F0E8FD304600F0E5FD3220FFF7B0FE02463A49204602F0F7F8204600F0DAFD5A
:400C0000304600F0D7FDB8F81830ADF810308DF82B502B463A46022104A8FFF765FB3220FFF796FE02462E49204602F0DDF8204600F0C0FD304600F0BDFD3320FFF788FEBD
:400C400002462849204602F0CFF8204600F0B2FD304600F0AFFDB8F81C30ADF80C308DF82B502B463A46022103A8FFF73DFB3320FFF76EFE02461C49204602F0B5F82046EE
:400C800000F098FD304600F095FD0DB0BDE8F083543600006C83FF1F7C360000A4360000CC360000E4360000FC36000020370000383700005C37000074370000983700009E
:400CC000B0370000D4370000F037000008380000243800004C3800006438000088380000A0380000C4380000E43800003436000030B583B00546E8238DF8073000240AE0CD
:400D000004EB44035A0006232A4401210DF10700FFF7EAFA01341F2CF2DD03B030BD00BFF0B5A5B0002308E000EB4302517824AA1A4402F8601C0133DBB25F2BF4D9002104
:400D40001DE001EB41035A0024A8104410F8604C24A8184400F8904C581C541C24AD2C4414F8604C284400F8904C023302322A4412F8602C2B4403F8902C0131C9B20F2987
:400D8000DFD90A48A0F13004F022214602F018F86E460CAF35460FCD20606160A260E3602E461034BD42F5D125B0F0BD7882FF1F70B50131C9B2052915D104463C220021D7
:400DC00002F009F8164B204603F130021E685D689C68D968066045608460C160103310309342F3D170BDA1EB01118B0003F590720B4B134403F130021E685D689C68D968A4
:400E0000066045608460C160103310309342F3D119685A689B6801604260836070BD00BF4882FF1F10B59AB0A0238DF86030C0238DF86430002308E000EB430251781AAADB
:400E40001A4402F8681C0133DBB25F2BF4D9002415E004EB44031344013B1AA90B4413F8681C1AAB134403F8081C013200E00122032AEEDD052118A800F0AEFC01341F2C92
:400E8000F5DD1AB010BD00BF30B583B02E238DF8043000248DF8054002AD05F8054D23462A46022101A8FFF71FFA012000F0CEFC064B1B88ADF800308DF8034023462A4603
:400EC00002216846FFF710FA03B030BD4436000008B500F0B3FD10F0800F01D000F088FD08BD00BF08B500F0A9FD10F0800F01D100F0E2FDFF2000F08FFD08BD08B500F0C1
:400F00009DFD10F0800F01D100F0D6FD7F2000F083FD08BD10B5044601F0DCFDFF2802DC002803DA01E0FF2000E00020C0B23F2803D9BE2802D9012400E00024204610BD6A
:400F400070B40B46043030311E685D689C68DA68066045608460C260103310308B42F3D119685A689B6801604260836070BC7047F0B591B007468DF800108DF80120ADF88F
:400F8000023016996846FFF7DBFF6C463D460DF1400E26460FCE28606960AA60EB60344610357645F5D1384611B0F0BD08B501F021FBC043024BA3FB0030C0F38F1008BD37
:400FC000D34D621070B40B7803704B7843704B8883704B881B0AC3700B1D043034311E685D689C68DA68066045608460C260103310308B42F3D119685A689B68016042601E
:40100000836070BC704700BF70B40B7803704B784370CA788B7843EA022343800B1D043034311E685D689C68DA68066045608460C260103310308B42F3D119685A689B6884
:4010400001604260836070BC704700BFFEE700BFF0B40022174611E050F82760F3B226F0FF0608E001EB420511F812406D78A5550132013BDBB2002BF4D10137262FEBD90F
:40108000F0BC70470A4B1B78DBB203F00701094A11701B09013213700822074B1A708023064A1370583213704422054B1A707047CF0100496E5800403D510040005B0040A7
:4010C0007658004008B50A46002101F084FE08BD08B501F075FE08BD70B500243D4B1C80502202331A70032602331E8018233A4A1370023216800232137019250232158032
:4011000002321370EF21023211800232137045F6BF51023211800232137047F22F530232138002321570023213802C4B1D7004222B492C48FFF7CCFF02222B4B1A70082282
:401140004FF040231A7003F500731E70274B1B78DBB227490B70274B1A8041F25122023B1A800CE0244B1B7803F0010343EA440404F003044FF4F07001F0E6FD013D0DB17C
:40118000032CEFD115B90320FFF760FF1B4B4FF480721A8007221A70002219490A704820023108701A700222033B1A7004220A331A7003F297331A78FF221A70114A1378BC
:4011C00043F001031370013A137843F08003137070BD00BF80400040864000409E400040180D0048004100400043004008010049A14600402242004025420040044000406D
:4012000006400040A1430040012807D8044B53F820201844017A13780B431370704700BF10390000012808D8044B53F820201844017A137823EA0103137070471039000057
:4012400038B572B63B4A137843F00403137000240BE0394863001A19510001440A46098AD068FFF72FFF0134E4B2082CF1D900240BE03149A3001819420088188022816CFA
:40128000406CFFF725FF0134E4B2002CF1D02B494FF09040FFF7DCFE0A24294B1C70294A03F52743D5331A60274A137843F0020313701032137843F002031370234D2B7886
:4012C00043F040032B70A2F58632513A137843F01003137008221E491E48FFF7F9FE22461D491E48FFF7F4FE22461D491D48FFF7EFFE22461C491D48FFF7EAFE22461C49BC
:401300001C48FFF7E5FE1C4A137843F0080313701A4C61232370FFF7DFFE812323700122174B1A70FFF7AEFE0E2229461548FFF7CFFE38BDE8460040103900009C00004837
:40134000835800400404048403500140A0430040E00C004802510040E80C0048C0510040F40C004810510040000D0048205100400C0D004830510040224300400048004079
:4013800004000840B043004008B501F0EDFC03680C2B00D1FEE7FEE708B5094B1A681044084BC31A802B02DC054B186005E001F0DBFC0C2303604FF0FF32104608BD00BFE9
:4013C000CC80FF1F2084FF1F08B5104E104D16E029686B68AC68002204E051F8040B43F8040B0432A242F8D1E868002203E0002143F8041B04328242F9D11035013E002E0A
:40140000E6D101F0B7FCFEF73DFEFEE701000000B839000008B5104A104B1A60104A136843F40073136000230AE0032B03D80D4A52F8231000E00C490C4A42F82310013356
:401440002F2BF2D90A4B1A780A4B1A70074A0A4B1A60FFF7F5FE08BD0004FA050CED00E014ED00E000000000891300000080FF1FBC760040C080FF1F08ED00E0014B1B6848
:401480001864704708ED00E04001C0B2014B1870704700BF00E400E00122014B1A60704700E100E00122014B1A60704780E100E010B50446FFF7F6FF2046FFF7DFFF0520C8
:4014C000FFF7E2FFFFF7E8FF10BD00BF024A137843F080031370704776650040014B1870704700BF07650040014B1870704700BF47650040014B1870704700BF2765004088
:40150000014B1870704700BF37650040014B1870704700BF87650040014B1878704700BF67650040014B1878704700BF76650040014B1878704700BF5765004008B501E058
:40154000FFF7F6FFFFF7E8FF10F0100FF8D108BD10B5134A137803F0C00343F024031370104C237843F001032370FF20FFF7B6FFFF20FFF7B9FFFF20FFF7BCFFFF20FFF779
:40158000BFFF0020FFF7C2FF01F0E6FB237843F01003237001F0E4FBFFF7D0FF10BD00BF766500409765004008B5054B1B7823B9FFF7CEFF0122024B1A70FFF787FF08BD5E
:4015C0006481FF1F014B1878704700BF27650040014B1878704700BF37650040024A137843F080031370704775650040014B1870704700BF05650040014B1870704700BF7D
:4016000045650040014B1870704700BF25650040014B1870704700BF85650040014B1878704700BF65650040014B1878704700BF75650040014B1878704700BF5565004024
:4016400008B501E0FFF7F6FFFFF7E8FF10F0100FF8D108BD10B5114A137803F0C00343F00C0313700E4C237843F001032370FF20FFF7BCFFFF20FFF7BFFFFF20FFF7C2FFF9
:401680000020FFF7C5FF01F067FB237843F01003237001F065FBFFF7D3FF10BD756500409565004008B5054B1B7823B9FFF7D2FF0122024B1A70FFF791FF08BD6581FF1FC3
:4016C000014B1878704700BF25650040014B1B689864704708ED00E04001C0B2014B1870704700BF02E400E00422014B1A60704700E100E00422014B1A60704780E100E06C
:4017000010B50446FFF7F6FF2046FFF7DFFF0620FFF7E2FFFFF7E8FF10BD00BF7222084B1A700023074A13700621A2F25B12117047211032117002F5A8721370704700BFC9
:401740008B6500408465004010B501F005FB04460A4A137843F020031370073A137843F0100313700532137843F01003137000F047F8204601F0F4FA10BD00BF9B650040F8
:4017800008B5054B1B7823B9FFF7C8FF0122024B1A70FFF7D9FF08BD6681FF1F034B1B7813F0040FFAD1024B18707047696500404965004038B5074B1B782BB938BDFFF773
:4017C000EDFF0134A4B201E005460024285D0028F5D138BD6681FF1F084B1B7833B97047305DFFF7DBFF0134E4B203E070B50D4606460024AC42F3D370BD00BF6681FF1F94
:40180000054A137843F0080313701032137843F008031370704700BFA243004001BE704710B5044605E0084B186801F08DFAA4F50044B4F5004FF6D8034B586800FB04F08F
:4018400001F082FA10BD00BFD080FF1F08B5034B1B7A00FB03F001F077FA08BDD080FF1F70B504460E46074B1D681F2802D90020FFF7D4FF04F01F04103455F8240045F830
:40188000246070BD08ED00E038B504460D46072902D90020FFF7C2FF1F2C02D90020FFF7BDFF04F01F0000F1604000F564406D01EDB2057038BD00BF084A137843F00103B7
:4018C00013701032137843F00103137002F64D32137843F001031370704700BFA3430040014B1870704700BF034F0040014B1880704700BF044F0040014B1880704700BF63
:40190000064F004008B5204A137803F0010313701E4B197801F0FC011970117841F0040111701A7802F0F3021A701A7842F00C021A701A7802F07F021A701A7842F0800201
:401940001A701A78D2B21A7009331A7802F0CF021A701A7842F030021A701A7802F0F0021A701A7842F00F021A70094A137843F001031370C720FFF7B9FFC720FFF7BCFF7E
:401980000820FFF7ADFF08BD004F0040024F0040014F004008B5054B1B7823B9FFF7B2FF0122024B1A70FFF787FF08BD6881FF1F044A137803F07F03C001C0B21843107027
:4019C000704700BF10510040044A137803F0EF03000100F0100018431070704720510040024A137843F080031370704773640040024A137803F07F03137070477364004053
:401A0000014B1870704700BF01640040014B1870704700BF41640040014B1870704700BF21640040014B1870704700BF81640040014B1878704700BF61640040014B1878D7
:401A4000704700BF73640040014B1878704700BF5164004008B501E0FFF7F6FFFFF7E8FF10F0100FF8D108BD10B5114A137803F0C00343F0090313700E4C237843F0010330
:401A80002370C820FFF7BCFFC820FFF7BFFF0020FFF7C2FF0020FFF7C5FF01F05DF9237843F01003237001F05BF9FFF7D3FF10BD736400409164004008B5054B1B7823B950
:401AC000FFF7D2FF0122024B1A70FFF789FF08BD6981FF1F024A137843F080031370704770640040014B1870704700BF80640040014B1878704700BF60640040014B187067
:401B0000704700BF20640040014B1878704700BF40640040014B1870704700BF0064004008B501E0FFF7F0FFFFF7E2FF10F0080FF8D108BD08B56320FFF7E0FF6320FFF7BA
:401B4000E9FF01F009F9064A137843F01003137001F006F9FFF7E4FF0120FFF7C3FF08BD9064004008B5054B1B7823B9FFF7E2FF0122024B1A70FFF7ADFF08BD6A81FF1F8E
:401B8000014B1B685864704708ED00E04001C0B2014B1870704700BF01E400E00222014B1A60704700E100E00222014B1A60704780E100E010B50446FFF7F6FF2046FFF7B2
:401BC000DFFF0720FFF7E2FFFFF7E8FF10BD00BF4022014B1A60704700E100E02022014B1A60704700E100E008B501F0B5F80C4A137843F0200313700132137843F0100367
:401C00001370FF32137843F01003137001F0A8F800F0AEFCFFF7DCFFFFF7E0FF08BD00BF986400404022014B1A60704780E100E02022014B1A60704780E100E010B5FFF730
:401C4000F1FF064B1C78064A137803F009031C4300231370FFF7BCFF204610BD69640040D583FF1F10B5FFF7E3FF064B1B78064A147804F040041C4300231370FFF7AEFF0C
:401C8000204610BD68650040E583FF1F10B504462B4B1A7802F0FF0312B1013BDBB200E00723284A1278D2B29342F1D0FFF7BAFF254B1978254A137803F009030B4313702D
:401CC0001F4B1A78D2B21F4B1B78DBB29A4207D11E4B1B7813F0040F02D01D4B1C702CE0184A13780133DBB213701378DBB2072B02D90022134B1A70124B1A78D2B2104B14
:401D00001B78DBB29A420ED10D4A13780133DBB213701378DBB2072B02D90022084B1A7001220C4B1A70074B1B78DBB20A4AD4540A4A137843F004031370FFF749FF10BDE5
:401D4000D683FF1FD483FF1F69640040D583FF1F48640040D883FF1FDC83FF1F8964004010B5FFF765FF134B1A78D2B2124B1B78DBB29A4214D0114B1B7813F0FF0F0CD138
:401D80000C4A13780133DBB213701378DBB2072B06D90022074B1A7002E00022074B1A70044B1B78DBB2064AD45CE4B2FFF716FF204610BDF083FF1FE483FF1FD783FF1FA6
:401DC000E883FF1F08B501E0094B1B78094B1B7813F0200FF8D1FFF72BFF0023064A1370064A1370064A1370FFF7F8FE08BD00BF5864004068650040D783FF1FF083FF1FB5
:401E0000E483FF1F08B500F0A7FF0E4B1A7842F001021A701A7802F0FE021A7000F0A0FFFFF700FF0023084A1370084A1370084A1370084A137803F0FB031370FFF7C8FEDF
:401E400008BD00BF98640040D883FF1FD683FF1FD483FF1F8964004070B506460C46002506E0705DFFF712FF0135EDB2013CE4B2002CF6D170BD00BF08B501E00A4B1B7861
:401E80000A4B1B7813F0200FF8D100F065FF084B1A7842F001021A701A7802F0FE021A7000F05EFF08BD00BF58640040686500409864004038B50F22174B1A70174C402353
:401EC000236004210620FFF7DFFC15490620FFF7C7FC2025256004210520FFF7D5FC11490520FFF7BDFCFFF7C7FF00240E4B1C700E4B1C700E4B1C700E4B1C700E4B1C70A4
:401F00000E4B1C70FFF79AFEFFF7ACFE0C4B1C70FF331D7038BD00BF8864004080E100E0611F000001200000D783FF1FF083FF1FE483FF1FD883FF1FD683FF1FD483FF1F37
:401F40008964004008B5054B1B7823B9FFF7B2FF0122024B1A70FFF747FE08BD6B81FF1F28E01F4B19781F4A137803F009030B431370137813F0040F24D01B4B1B7813F0B5
:401F8000FF0F0CD1194A13780133DBB213701378DBB2072B06D90022144B1A7002E00022114B1A70114B1B78DBB2114AD35CDBB2104A13700D4B1A78D2B20F4B1B78DBB28E
:401FC0009A42CED1094B1A78D2B20B4B1B78DBB29A4204D1094A137803F0FB031370704769640040D583FF1FD883FF1FD683FF1FDC83FF1F48640040D483FF1F896400404E
:40200000204B1A7820490B7803F0400313430B7032E01E4B1A78D2B21D490B780133DBB20B700B78DBB2072B02D90021184B1970174B1978C9B2174B1B78DBB299420ED126
:4020400014490B780133DBB20B700B78DBB2072B02D900210F4B197001210F4B19700C4B1B78DBB20D49CA54064B1A7806490B7803F0400313430B70034B1B7813F0200F64
:40208000C7D1704768650040E583FF1F58640040E483FF1FF083FF1FD783FF1FE883FF1F1022014B1A60704700E100E00822014B1A60704700E100E008B500F04DFE0C4A05
:4020C000137843F020031370013A137843F010031370033A137843F01003137000F040FE00F054FAFFF7DCFFFFF7E0FF08BD00BF966400401022014B1A60704780E100E09C
:402100000822014B1A60704780E100E010B5FFF7F1FF064B1C78064A137803F009031C4300231370FFF7BCFF204610BD65640040F483FF1F10B5FFF7E3FF064B1B78064AF5
:40214000147804F040041C4300231370FFF7AEFF204610BD626400401084FF1F10B504462B4B1A7802F0FF0312B1013BDBB200E00723284A1278D2B29342F1D0FFF7BAFFA2
:40218000254B1978254A137803F009030B4313701F4B1A78D2B21F4B1B78DBB29A4207D11E4B1B7813F0040F02D01D4B1C702CE0184A13780133DBB213701378DBB2072B37
:4021C00002D90022134B1A70124B1A78D2B2104B1B78DBB29A420ED10D4A13780133DBB213701378DBB2072B02D90022084B1A7001220C4B1A70074B1B78DBB20A4AD45415
:402200000A4A137843F004031370FFF749FF10BD0D84FF1F0E84FF1F65640040F483FF1F426400400084FF1FF883FF1F8564004010B5FFF765FF134B1A78D2B2124B1B782D
:40224000DBB29A4214D0114B1B7813F0FF0F0CD10C4A13780133DBB213701378DBB2072B06D90022074B1A7002E00022074B1A70044B1B78DBB2064AD45CE4B2FFF716FF78
:40228000204610BDF583FF1F0F84FF1F0C84FF1F0484FF1F08B501E0094B1B78094B1B7813F0200FF8D1FFF72BFF0023064A1370064A1370064A1370FFF7F8FE08BD00BFBD
:4022C00052640040626400400C84FF1FF583FF1F0F84FF1F08B500F03FFD0E4B1A7842F001021A701A7802F0FE021A7000F038FDFFF700FF0023084A1370084A1370084A13
:402300001370084A137803F0FB031370FFF7C8FE08BD00BF926400400084FF1F0D84FF1F0E84FF1F8564004070B506460C46002506E0705DFFF712FF0135EDB2013CE4B2DF
:40234000002CF6D170BD00BF08B501E00A4B1B780A4B1B7813F0200FF8D100F0FDFC084B1A7842F001021A701A7802F0FE021A7000F0F6FC08BD00BF526400406264004018
:402380009264004010B50F22174B1A70174C1023236004210846FFF777FA15490420FFF75FFA0823236004210320FFF76DFA11490320FFF755FAFFF7C7FF00240E4B1C7067
:4023C0000E4B1C700E4B1C700E4B1C700E4B1C700E4B1C70FFF79AFEFFF7ACFE0C4B1C702022033B1A7010BD8664004080E100E031240000D12400000C84FF1FF583FF1F83
:402400000F84FF1F0084FF1F0D84FF1F0E84FF1F8564004008B5054B1B7823B9FFF7B2FF0122024B1A70FFF747FE08BD6C81FF1F28E01F4B19781F4A137803F009030B4355
:402440001370137813F0040F24D01B4B1B7813F0FF0F0CD1194A13780133DBB213701378DBB2072B06D90022144B1A7002E00022114B1A70114B1B78DBB2114AD35CDBB27A
:40248000104A13700D4B1A78D2B20F4B1B78DBB29A42CED1094B1A78D2B20B4B1B78DBB29A4204D1094A137803F0FB031370704765640040F483FF1F0084FF1F0D84FF1F53
:4024C000F883FF1F426400400E84FF1F85640040204B1A7820490B7803F0400313430B7032E01E4B1A78D2B21D490B780133DBB20B700B78DBB2072B02D90021184B1970B4
:40250000174B1978C9B2174B1B78DBB299420ED114490B780133DBB20B700B78DBB2072B02D900210F4B197001210F4B19700C4B1B78DBB20D49CA54064B1A7806490B780F
:4025400003F0400313430B70034B1B7813F0200FC7D17047626400401084FF1F526400400F84FF1FF583FF1F0C84FF1F0484FF1F054A137843F0020313701032137843F014
:4025800002031370704700BFA2430040054A137843F0040313701032137843F004031370704700BFA2430040024A137843F080031370704777640040014B1870704700BF10
:4025C00084640040014B1878704700BF64640040014B1860704700BF24640040014B1868704700BF44640040014B1860704700BF04640040024B1B78024B1868704700BF28
:40260000046400404464004008B501E0FFF7E6FFFFF7D8FF10F0080FF8D108BD08B54FF0FF30FFF7D5FF4FF0FF30FFF7DDFF00F093FB064A137843F01003137000F090FB4D
:40264000FFF7E2FF0020FFF7B7FF08BD9464004008B5054B1B7823B9FFF7E0FF0122024B1A70FFF7A1FF08BD6D81FF1F10B59DF80840012C51D1013809282ED8DFE800F0F0
:40268000052D2D052D2D0F192D230F2B03D92548007840B222E02448007840B21EE00F2B03D92248007840B218E02148007840B214E00F2B03D91F48007840B20EE01E483D
:4026C000007840B20AE00F2B03D91C48007840B204E01B48007840B200E0002001EB401101FB02F1C90B8AB20D2B0BD8C3F10E0289B211418AB2611E124800EB8101013393
:402700008B7005E0631E0F4901EB83030F219970013C0C4B23F8242010BD0020FFF77EF810BD00BF180100491C010049190100491D0100491A0100491E0100491B0100499A
:402740001F0100497081FF1FF8B5074600F004FB06460D4D2B7843F003032B700B4C237843F0030323700A4B1F700320FFF76EF82B7803F0FC032B70237803F0FC0323706A
:40278000304600F0EDFAF8BDF8460040F9460040925800400022314B1A7101285CD170B538222F4B1A70042202331A70062201331A70002401331C7001331C700F2201331A
:4027C0001A7002331C7001331C7001331C7001250A331D70142203F527631A70052601331E70162201331A7001331C70442203331A70482201331A7001331D7002331C7069
:4028000001331C700A2201331A70432201331A705220FFF799FF5822124B1A7001331C7005331E70022201331A7001331C7001331C70204600F074F933220B4B1A6029462B
:40284000304600F091F92946BA2000F011FA07491D20FFF705F870BD704700BF7081FF1F004E0040945800401484FF1FFD2A0000F0B583B0284D01272F70284E00247471C8
:40288000102000F05FF9102000F0E0F907211D20FEF7FAFF0422224B1A7001331C7007331C70204A137843F0180313701E4B1C7003F2F5231C7001331C700A22A3F20933A0
:4028C0001A7001331C7002331C70122205331A70132201331A7004331C701422A3F68C231A70009708234FF4004248F66B510220FFF7BCFE2B78013B06EB83039A780B4B48
:402900001A702B78013B36F82320094B1A802878FFF740FF03B0F0BDE080FF1F7081FF1F96580040075B0040935800400E4E00400C4E004070B500F00FFA06462A4B1B786A
:402940002A4B1A7842F001021A701A7842F010021A7010331A7842F001021A701A7842F010021A70224D2B7843F002032B70214C237843F0020323701F4A137843F0030358
:4029800013700320FEF762FF2B7803F0FD032B70237803F0FD032370184A137843F0060313707A22164B1A70164A137843F0010313701032137843F0010313700F3A137896
:4029C00043F0010313701032137843F0010313704FF000530C4A1360A2F5C0721360304600F0BEF970BD00BFE080FF1FAA430040F8460040F9460040915800407758004016
:402A000082580040A143004080E200E008B5084B9B794BB9064BDB7913F0FF0F01D1FFF727FF0122024B9A71FFF784FF08BD00BF7081FF1F024A137843F00103137070477B
:402A4000004E0040024A137803F0FE0313707047004E0040094B1B7913F0FF0F03D0074B5B79DBB203E0064B1B7803F00103012B01D00028EED01846704700BF7081FF1F32
:402A8000014E00400E4B1B7803F00303012B03D80C4B188880B209E00A4A12780A49087842EA0020032B01D1084B1B78084B1B7913F0FF0F02D00022054B5A7100B2704736
:402AC000144E0040104E0040114E0040124E00407081FF1F10B5084A137843F004031370FFF7A8FF0020FFF7B5FFFFF7CBFF0446FFF7A8FF204610BD014E0040704700BFA3
:402B000010B5002404E02046FEF78CFB0134E4B2012CF8D9FF22014B1A7010BDE180FF1F10B50446FFF7ECFF2046FEF76DFB014B1C7010BDE180FF1F014B188880B270472E
:402B400080400040034B1A7800F0F80010431870704700BF82400040024B187800F00700704700BF8240004070B505460E46FFF7F3FF0446FFF7E0FFA84256D02B4B1B780A
:402B800003F0010294B900B185B938B9284B1D80284A137803F0BF03137070BD254A137843F040031370224B1D8070BD22B3002321490B7001240F310C7004310B700C39A3
:402BC0000B7803F07F030B701A4B1B7813F0080F00D08DB9194B18800721013B1970164B1B7813F0010FFAD110490B7803F0FE030B700021104B19700C4B1B7813F0010F32
:402C00000DD00E4B1D800EB1032200E001220A4B1A70094B1B7813F0010FFAD170BD044B1D8002490B7813430B7070BDA24300408040004082400040014000400240004027
:402C4000014B188880B2704700410040034B1A7800F0F80010431870704700BF02410040024B187800F00700704700BF0241004070B505460E46FFF7F3FF0446FFF7E0FFCA
:402C8000A84256D02B4B1B7803F0010294B900B185B938B9284B1D80284A137803F0BF03137070BD254A137843F040031370224B1D8070BD22B3002321490B7001241331F6
:402CC0000C7004390B7008390B7803F07F030B701A4B1B7813F0080F00D08DB9194B18800721013B1970164B1B7813F0010FFAD110490B7803F0FE030B700021104B1970B9
:402D00000C4B1B7813F0010F0DD00E4B1D800EB1032200E001220A4B1A70094B1B7813F0010FFAD170BD044B1D8002490B7813430B7070BDA143004000410040024100402B
:402D400001400040024000400230800803D000BF01380046FCD17047EFF3108072B6704780F31088704700BF014B1868704700BF4481FF1F0E4B70B51E460E4C0025E41AAB
:402D8000A410A54204D056F8253098470135F8E700F000FE084B094C1E46E41AA4100025A54204D056F8253098470135F8E770BDA0390000A0390000A0390000A839000051
:402DC00010B5431E0A44914204D011F8014B03F8014FF8E710BD03460244934202D003F8011BFAE7704700000EB400B54FF402719CB0ADF814106FF00041049107914FF633
:402E0000FF711DAB02900690084853F8042BADF81610006802A9019300F064F8029B00221A701CB05DF804EB03B070474481FF1F2DE9F0478E6882469E420C469146984612
:402E40003ED88A8912F4906F3AD02568096902236F1A656905EB450595FBF3F57B1C43449D4238BF1D4653050FD5294600F040FB064698B13A462169FFF7A2FFA38923F447
:402E8000906343F08003A38113E02A4600F08EFB064670B92169504600F0DEFA0C23CAF80030A3894FF0FF3043F04003A381BDE8F08726613E44266046466561ED1BA560AD
:402EC000464528BF464649463246206800F0A8FAA36800209B1BA36023681E442660BDE8F08700002DE9F04F9DB003938B8980461C060D4616460DD50B695BB9402100F0A2
:402F0000F7FA2860286118B90C23C8F80030CDE040236B610023099320238DF82930DFF89CB130238DF82A3037463C4614F8013B1BB9B7EB060910D003E0252BF9D0274678
:402F4000F3E74B46324629464046FFF771FF013000F0A780099B4B4409933B78002B00F0A08000234FF0FF3204930793059206938DF853301A930126052221784E4800F0F8
:402F800041FA671C049B38B14B4A3C46801A06FA00F018430490EFE7D90644BF20228DF853201A0744BF2B228DF8532022782A2A03D0079A00210A200BE0039A111D126803
:402FC0000391002A10DA524243F00200079204900BE027463B780134303B092B03D800FB02320121F5E701B107923B782E2B1ED17B782A2B0AD1039B02371A1D1B680392BD
:40300000002BB8BF4FF0FF33059310E0002319460593781C0A2407463A780130303A092A03D804FB01210123F5E703B1059103223978224800F0E6F940B14023CBEB0000ED
:4030400003FA00F0049B013718430490397806221B487E1C8DF8281000F0D4F988B1194B33B9039B073323F007030833039314E003AB00932A46144B04A94046AFF30080A5
:4030800007E003AB00932A460F4B04A9404600F093F8B0F1FF3F824603D0099B5344099342E7AB895B0601D4099801E04FF0FF301DB0BDE8F08F00BF6039000066390000B4
:4030C0006A39000000000000312E00002DE9F04791461F460A698B6806469342B8BF1346C9F8003091F843200C46DDF8208012B10133C9F800302368990642BFD9F8003036
:403100000233C9F80030256815F0060510D104F1190A07E00123524639463046C04701301AD00135E368D9F800209B1A9D42F1DB94F843302268003318BF012392060FD514
:40314000E118302081F843005A1C94F845102244023382F8431003E04FF0FF30BDE8F08704F1430239463046C0470130F4D02268D9F80050E36802F00602042A08BF5D1B96
:403180002269A3680CBF25EAE57500259342C4BF9B1AED184FF000091A344D4509D00123224639463046C0470130D5D009F10109F3E70020BDE8F0872DE9F04317460A7E67
:4031C00085B06E2A984606460C460C9B01F1430E00F0AE8011D8632A22D009D8002A00F0BB80582A40F0CA8081F84520834955E0642A1ED0692A1CD0C0E0732A00F0B080AD
:4032000009D86F2A2ED0702A40F0B8800A6842F020020A603EE0752A24D0782A3AD0ADE01A6801F14205111D1960136884F84230A8E021681A6811F0800F02D0111D196093
:4032400008E011F0400F02F10401196002D0B2F9003000E01368002B3CDA2D225B4284F8432037E021681A6811F0800F02D0111D196007E011F0400F02F10401196001D0ED
:40328000138800E01368227E5C496F2A14BF0A2208221BE078225A4984F845202268186812F0800F00F104051D6003D1550601D5038800E00368D00744BF42F0200222605B
:4032C0001BB9226822F0200222601022002084F8430001E049490A226568002DA56008DB206820F0040020602BB9002D7DD175460CE0002B79D07546B3FBF2F002FB103307
:40330000CB5C05F8013D03460028F5D1082A0BD12368DA0708D5236962689A42DEBF302305F8013C05F1FF35C5EB0E0323612EE008681A6810F0800F496903D0101D186019
:40334000136808E010F0400F02F104001860136801D0198000E0196000232361754616E01A68111D1960156800216268284600F049F808B1401B6060636804E004F14205A7
:4033800084F8422001232361002384F84330CDF800803B4603AA21463046FFF797FE013002D14FF0FF3026E023692A4639463046C0470130F5D023689B0710D5002504F108
:4033C000190907E001234A4639463046C0470130E7D00135E368039A9B1A9D42F2DBE068039B9842B8BF184605E00B7804F1420584F842308AE705B0BDE8F083713900009E
:403400008239000010B5C9B202449042034605D01C7801308C42F8D1184610BD002010BD884210B501EB020301D8421E0BE09842FBD28118D21AD34204D013F8014D01F8DC
:40344000014DF8E710BD994204D011F8014B02F8014FF8E710BD000038B50546002944D051F8043C0C1F002BB8BFE41800F0D4F81E4A1368114613B96360146030E0A342A3
:403480000DD92268A018834201BF18685B681218226063600C6023E0A24203D813465A68002AF9D118681918A1420BD12168014458188242196013D11068526801441960B1
:4034C0005A600DE002D90C232B6009E021686018824201BF106852680918216062605C602846BDE8384000F098B838BD8081FF1F70B5CD1C25F0030508350C2D38BF0C2528
:40350000002D064601DBA94202D90C23336046E000F082F8234B1C681A462146A1B10B685B1B0ED40B2B03D90B60CC18CD501EE08C420BBF63684B681360636018BF0C4657
:4035400015E00C464968E9E7174C23681BB9304600F052F820602946304600F04DF8431C18D0C41C24F00304A0420DD12560304600F053F804F10B00231D20F00700C31A0B
:403580000ED05A42E25070BD211A304600F034F80130EBD10C233360304600F03EF8002070BD00BF8081FF1F7C81FF1FF8B5074615460E4621B91146BDE8F840FFF798BFD0
:4035C0001AB9FFF749FF2846F8BD00F027F885420ED929463846FFF78BFF044650B131462A46FFF7EDFB31463846FFF735FF01E03046F8BD2046F8BD38B5064C002305466A
:4036000008462360FDF7C8FE431C02D1236803B12B6038BD1884FF1F7047704751F8040C0028BEBF091851F8043CC0180438704700000000206F00002242000023800000DD
:40364000244000002E400000302A000032640000331400002A2A2A2A2A2A2A2A2A202020204C49533344482054455354202020202A2A2A2A2A2A2A2A2A0D0A0057484F2021
:40368000414D2049205245473A20307825303258205B45787065637465643A20307833335D0D0A002A2A2A2A2A2A2A2A2A2A2A2A2A2A2A2A2A2A2A2A2A2A2A2A2A2A2A2A13
:4036C0002A2A2A2A2A2A2A2A2A0D0A00535441545553205245473A20307825303258200D0A0000004354524C20524547313A20307825303258200D0A000000004354524C8E
:4037000020524547312041465445522057524954453A20307825303258200D0A000000004354524C20524547333A20307825303258200D0A000000004354524C2052454754
:40374000332041465445522057524954453A20307825303258200D0A000000004354524C20524547343A20307825303258200D0A000000004354524C205245473420414634
:403780005445522057524954453A20307825303258200D0A000000004354524C20524547353A20307825303258200D0A000000004354524C205245473520414654455220C1
:4037C00057524954453A20307825303258200D0A000000002D2D2D2D4649464F20464C555348494E472D2D2D2D2D0D0A000000002A2A2A2A2A2A2A2A2A4649464F20464C86
:4038000055534845440D0A004649464F204354524C205245473A20307825303258200D0A000000004649464F204354524C205245472041465445522057524954453A20302B
:403840007825303258200D0A00000000494E543120434647205245473A20307825303258200D0A00494E543120434647205245472041465445522057524954453A2030784F
:4038800025303258200D0A00494E543120544853205245473A20307825303258200D0A00494E543120544853205245472041465445522057524954453A203078253032586A
:4038C000200D0A00494E5431204455524154494F4E205245473A20307825303258200D0A00000000494E5431204455524154494F4E20524547204146544552205752495441
:40390000453A20307825303258200D0A00000000035B00402443004040000000004F00400C00405100403000F0510040100000000140000880080140800700140140000882
:4039400000400140000A004C01400002005001402000000000080140600C004880004300232D302B2000686C4C006566674546470030313233343536373839414243444571
:403980004600303132333435363738396162636465660000F8B500BFF8BC08BC9E4670474D00000015140000F8B500BFF8BC08BC9E46704729000000C8390000C880FF1F5B
:4039C00080000000D8020000000000002084FF1F0000E02EC05D00001800000000366E0101FF000000000000000000000000000000000000000000000000000000000000C3
:403A0000000000005E3900000000000000000000000000000000000000000000000000000000000000000000000000000000000000000000000000000000000000000000EF
:403A400000000000E480FF1F0000000000000000000000000000000000000000000000000000000000000000000000000000000000000000000000000000000000000000C4
:403A80000000000000000000000000000000000000000000000000000000000000000000000000000000000000000000000000000000000000000000000000000000000006
:403AC00000000000000000000000000000000000000000000000000000000000000000000000000000000000000000000000000000000000000000000000000000000000C6
:403B00000000000000000000000000000000000000000000000000000000000000000000000000000000000000000000000000000000000000000000000000000000000085
:403B40000000000000000000000000000000000000000000000000000000000000000000000000000000000000000000000000000000000000000000000000000000000045
:020000040003F7
:0200000480007A
:40000000024F00400652004005640040056500406000014038010140550201403C03014067040140410501406506014056070140140801403C090140020B0140040C014012
:40004000030D01405D1401404B1501404C160140471701405B18014052190140461A01404C1B0140084001400C4101400F4201400E43014004440140084501400646014012
:40008000024701400A48014009490140084C0140084D0140075001400251014001700A870020012018C0194060046188800D810D840D860F880F8438850D870F890F8B7227
:4000C00006010F011102120114061701180619021C041E021F022402260427022A012B01310234013502360637013F404063410245EC4702481349FF4AFF4BFF4F01501847
:4001000052805401580459045A045B045C775D775E805F056040624064406540668068806A806C806E80830287018801941C99039C069E08A00AA214A808A903AA12B21EAA
:40014000B401B503B808BE10C050C104C5D1C720C823C9FFCAFFCBFFCDA0CF04D018D405D804D904DA04DB04DC72DD66DF01E040E2C0E440E540E6C0E8C0EAC0ECC0EEC0A7
:4001800000040320070409200A510E2210101208171119701A011E24212322602404270428102B182D202E103152330436203A803C043E0142044308450149064B104D08D3
:4001C0004E014F01520853085501570259065A805C405F0972C07B208E01C044C2AFC456CA26CC2FCEC8D086D214D6DBDE02E64001010280040108840C84100412801303FF
:400200001460170218041B031C84200A22102480260428562A092C072E38327F3303348038083E10404241054210440645DE46FC470B481F49FF4AFF4BFF4C224EF04F085A
:40024000500454405604580459045A045B045C225D225F0162C0644065016610671168C069016B116C406D016E406F018401870292029304940297019C01A401AF02B001FE
:40028000B101B302B402B504BE01BF04D280D804D904DB04DC77DD60DF01022004A00506088009020A200C800D080E84110817551A801B101D041F1021022210231026087B
:4002C0002A80300831023608371138043D02458047114D264E024F015548565058405A40661167217240900494409602971099089A809E019F19A302A601A710AD01C0F474
:40030000C2FDC4F4CA08CCE3CE82D0B0D230D8F0EE01004D044D05060C920D060E641001110112B2140D15021640170418101A601C021D041E0D1F02204D28722A882C4D81
:40034000308033013470360F37063AA03E013F04404349FF4AFF4BFF4F0150185401580459045A045B045C325D555F016040624064406540668068806A806C806E808133C5
:400380008344851886018D8291C1933895029718999C9B039D189F02A11AA518A702A801AD1AB001B113B3E0B70FBB88C043C9FFCAFFCBFFCD83CE03CF01D018D409D60427
:4003C000D804D904DA04DB04DC26DD25DF01E040E240E440E540E680E880EA80EC80EE8001010321050809010A1510801140120817201A451C40210822802501260B275123
:400400002C812F203004310232803640371539803A043D823E044020410442804420468059855D045E405F12674187409104928094E09606984099089A409C809F5DA1429A
:40044000A302A480A585A663A904AA08B008B120C02DC20FC44BCAD0CCFBCEDAD0C3D6FBD8900C050E0A1301170218021A0D1C031E0C28092A062F013302340F35013A207D
:400480003F10404649FF4AFF4BFF4D834E034F01501856025728580459045A045B045C625D255F016040624064406540668068806A806C806E8080C084A386548C108F023B
:4004C0009210930494109702980299019A1D9C019D019E3AA010A308A463A68CA704A810AD01B0E0B108B302B41FB504B701B802BA20BF44C043C5ECC702C813C9FFCAFF21
:40050000CBFFCD83CE03CF01D018D280D804D904DA04DB04DC61DD55DF01E040E240E440E540E680E880EA80EC80EE8000800102022005400701088009080A040B800E0A28
:40054000111A171019021A041E081F102028220323012728284029482F0232093350350836023A8041044280468049054E085104520867206C506D416E906F24728074803C
:4005800078017901810184408740891094A095C996129701984099089B519C859D059E849F2EA281A302A490A584A660A720A902AA40AC10AD80B108B240B310C08DC2CFFD
:4005C000C44ECA1BCCCFCE08D083D220D840E20AE603E804EC01EE24C004C540C9FFCA07CBFFCC40CD20CEF0CF05D008D409D604DA04DB04DD13DF01E040E1A8E240E320D5
:4006000004080502060A0D080E4A150417211C201D0B1E081F08240C251027702D022F0A37143C803D254040450A47104B024C044D0A4E0250105628570159195B4060024C
:40064000634067046C206D056E626F06744077018201842087428A129802A604A802AA04C0F0C2F0C470CAB0CC60CEF0D0E1D230D60FD829E280E804EA20EE2038203E1036
:4006800058045F011C088804EE01000406020B010C04100115011B021C041F02200123012501260228042C013201340235013604370239203B083E503F404051410342066E
:4006C0004404450C46E0480949FF4AFF4BFF4C624DA04EF04F41500C5418580459045A045B045C335D335F016640670269106A306B106D106E106F1287028901A302A50172
:40070000AE01B502B601B701BF10C010C102C5D2C610C80BC9FFCAFFCBFFCDA0CF04D018D280D405D804D904DA04DB04DC44DD44DF01E040E2C0E440E540E6C0E8C0EAC0FA
:40074000ECC0EEC00082021008800902128A13041740180419041A021D801F4020212104220823042640270828A02F603020324839203E183F08400241044240458046081E
:40078000482149204F095210573058015E805F09600577408120824084F1851088018A418C028D448E829250958097809E40A102A710A820A902AA04B340B680C00DC20913
:4007C000C48FCAC3CC0ECE64D03BD20CD6D1D80CE008E202E60BEA01EE0409020E010F04140219011F082302240125043108320233043401350137025280580459045B04D6
:400800005C445D405F0181048202850189048A048E018F049408950499029D04A204A408A508A901AA01B006B108B302B401B501B608B704BE11BF41C040C106C5D1C65040
:40084000C702C81BC9FFCAFFCBFFCDA0CF04D018D407D804D904DA04DB04DC44DD44DF01E040E2C0E440E540E6C0E8C0EAC0ECC0EEC000400248044009080F2010281280A2
:40088000161019401A441D101E1021882210234224442540271028202A102C202F4030A0330436203780382439413C403F204040482849015008523059415A247780811006
:4008C00083108404854086089020914195809B049C049E049F02A080A280A580AA20AD08B004B204B480B504C08BC224C42ECAC6CC3ECE3FD001D204D60FE268EA02EE01B9
:40090000041C050206020724080C09220A110B080D1D12031409151D1610181419211B021C101D021E0C1F0D2010211D251D2B102D0D2F10301F3320341F3510370F3908F3
:400940003B803F1054405604580459045B045C135D105F0184288611880289028B04900D923096209D0DA00CA211A508A615A701A80DA90DAA10B03CB10CB303B402B60125
:40098000B90ABA02BE50BF01C043C106C5E0C6BCC70EC81EC9FFCAFFCBFFCEF0CF44D00CD401D804D904DA04DB04DC33DD33DF01E6C0EA40EB02010802040514088009086E
:4009C0000A800B020D180E800F0210841210148019401AC41B011E801F2020402108251026842804291C2D052E202F0232403680372438303A103CA440104240451046080E
:400A0000491150805110520459415A045B10640865806608674085048B408E04902491059302944098089A209B24A050A302A804AF01B008B305B512B602B718C066C2FCC7
:400A4000C41ECAF6CC78CE74D003D204D60FD8F0E268E820EA10EC20EE4000200210060308010A0E0C8C0E0310011286168C18401A101E082010226024702870320F348A9D
:400A800036703A2858045C035F0181C08213840C8508880489448C0C8D108E13900893E3940195FF9620981399809A0C9C039D3C9FC2A11CA3E1A402A5E7A718A81FA91807
:400AC000AC0FAE10AF04B020B21CB3C0B40FB538B71FBA28BB80D602D710D804D904DB04DC33DD30DF01000201200211058106200708082009080A400B020C400D040E29AE
:400B00000FA01060112014261602182019341A011E081F2A254026A027202E222F2234243581368037023C803E093FA05C806C206D6074407628770882208406854087286C
:400B400088818A118B208C108D508E018F0291089240930298209A109D14A108A420A8A0AB30B180B220B420C0FFC2FFC4EECAF0CCF0CEF0D610E030E240E6B0E860328005
:400B80003308360837403B208E08CCF0CE10318036205B0266019720A680AB40AF08CC30D640D880EEC0128053205B0187109720A580A6A0AA01AB02C410D420D640E640E2
:400BC000EA20EE8070208620A020A5A0A620A820A920AB20B301DC20E640E820EA80EE2013027F08C408DE01008853108B08A708AB02C00AD404E00447089720B044D00158
:400C0000EA04EE049720AB08252082028308868089808D02A5A0C820E260E6205B086682750299029A829B08D6C0D880DE200B0185019701B310B701C202E804EE0811019E
:400C4000734093409501B340C408DC01E80400EE08C40A6E0C0A101A1A181C0A00FF013F4072200022724C00008104748872400040008800765009220063038CC80000006F
:400C8000C8220000C80000000D2312D80022005080807860071F000000200C00000001016302400005CED0FB3BFFFFFF2200F00C04000000000002240404040411110001D4
:400CC0000000C00040011011C0010011400140010000000000000000000000000000000000606000600000008400508C8C008C00000000008000408B8B0000000000000010
:400D0000140001161200020000000000E00000E0E000E00008000000BB00180100000000000000000000000000000000000000000000000000000000000000000000000018
:400D40000000000000000000000000000000000000000000000000000000000000000000000000000000000000000000000000000000000000000000000000000000000073
:400D80000000000000000000000000000000000000000000000000000000000000000000000000000000000000000000000000000000000000000000000000000000000033
:400DC00000000000000000000000000000000000000000000000000000000000000000000000000000000000000000000000000000000000000000000000000000000000F3
:400E000000000000000000000000000000000000000000000000000000000000000000000000000000000000000000000000000000000000000000000000000000000000B2
:0200000490006A
:0400000000004005B7
:0200000490105A
:04000000BC90ACAF55
:0200000490303A
:02000000075D9A
:0200000490402A
:4000000000000000000000000000000000000000000000000000000000000000000000000000000000000000000000000000000000000000000000000000000000000000C0
:400040000000000000000000000000000000000000000000000000000000000000000000000000000000000000000000000000000000000000000000000000000000000080
:400080000000000000000000000000000000000000000000000000000000000000000000000000000000000000000000000000000000000000000000000000000000000040
:4000C0000000000000000000000000000000000000000000000000000000000000000000000000000000000000000000000000000000000000000000000000000000000000
:0200000490501A
:0C00000000012E16106900012E3017C6FA
:00000001FF