:4000000000800020110000004D0800004D08000008B5044B1A6803F53F5302331A6000F035FC00BFFA46004010B5054C237833B9044B13B10448AFF300800123237010BD9C
:400040004881FF1F00000000A81D0000084B10B51BB108490848AFF300800848036803B910BD074B002BFBD0BDE81040184700BF000000004C81FF1FA81D0000C880FF1F78
:400080000000000008B562B600F0BEFD01F0AAF80A2000F0F5FD00F02FF92D4801F000FA0A2000F0EDFD2B4800F064FC2A4800F06DFD01F0CDF9294B00221A701B78DBB21F
:4000C000274A137000F012F90A2000F0D9FD234B1A78D2B2224B1B78DBB29A4210D01F4B1B7813F0FF0F06D01C4B1B78DBB2012B01D01A4B1B78194B1B78DBB2184A13708B
:40010000184B1B78DBB2012B0BD1174800F03AFA00F050FA0022134B1A70412000F082FDD5E7104B1B7813F0FF0F0BD1AF2000F067F810F0400F05D000F03CFA462000F048
:4001400071FDC4E7AE2000F05BF800F06BFDBEE7F50100006D01000095010000B982FF1FBA82FF1F5182FF1F9081FF1F074B1B78DBB2022B03D00222044B1A7002E0002218
:40018000024B1A700022024B1A707047B982FF1F5082FF1F08B5154B1B7813F0FF0F09D100F026FE00F056FE104A13780133DBB2137008BD00F0E8FDB0F57A7F12D20C4BE0
:4001C0001B78DBB2012B03D10022094B1A7007E0074B1B7813F0FF0F02D10122044B1A7000F0AEFD0022014B1A7008BD5082FF1FB982FF1F0122014B1A7070475182FF1FF1
:4002000010B50446002001F09BF8204600F08EFE002000F08BFE00F061FE10F0010FFAD000F0EEFE00F0ECFE0446012001F088F8204610BD2DE9F04383B006460C4617462B
:400240009846002001F07CF864B2002511E02146082CA8BF0821C9B206EBC50000F04CFF00F03CFE10F0010FFAD0083C64B201356DB2002CEBDC00F04FFF00F0F3FE00266D
:40028000009601964FFA88F820E0C146B8F1080FA8BF4FF008095FFA89F1684600F02CFF00F01CFE10F0010FFAD0002406E004EBC60500F0A5FE78550134E4B24C45F6DBF9
:4002C000A8F108084FFA88F8013676B2B8F1000FDBDC012001F034F800F01EFF00F0C2FE00F0E0FE03B0BDE8F08300BF08B500F0B7FB00F023FC08BD2DE9F0438BB08E48DE
:4003000000F09CFC8F20FFF77BFF8C4C02468C49204601F025F9204600F090FC894D284600F08CFCA720FFF76BFF02468649204601F016F9204600F081FC284600F07EFCBF
:40034000A020FFF75DFF02468049204601F008F9204600F073FC284600F070FCDFF82082C14639F8043BADF8243000260AAF07F8056D33463A46022109A8FFF75BFFA0205D
:40038000FFF73EFF02467249204601F0E9F8204600F054FC284600F051FCA220FFF730FF02466C49204601F0DBF8204600F046FC284600F043FCB9F80030ADF820308DF8E0
:4003C000236033463A46022108A8FFF733FFA220FFF716FF02466049204601F0C1F8204600F02CFC284600F029FCA320FFF708FF02465A49204601F0B3F8204600F01EFC9A
:40040000284600F01BFCB8F80830ADF81C308DF8236033463A46022107A8FFF70BFFA320FFF7EEFE02464E49204601F099F8204600F004FC284600F001FCA420FFF7E0FEE6
:4004400002464849204601F08BF8204600F0F6FB284600F0F3FBB8F80C30ADF818308DF8236033463A46022106A8FFF7E3FEA420FFF7C6FE02463C49204601F071F8204643
:4004800000F0DCFB284600F0D9FB0CE0E8238DF80730062302AA01210DF10700FFF7CAFE324800F0CBFBAF20FFF7AAFE10F0200FECD02F4800F0C2FB2E238DF814300024EC
:4004C0008DF815400AAE06F8054D23463246022105A8FFF7AFFE012000F0E8FBAE20FFF78FFE164D02462349284601F039F8284600F0A4FB134F384600F0A0FB1E4B1B8866
:40050000ADF810308DF8234023463246022104A8FFF790FEAE20FFF773FE02461749284601F01EF8284600F089FB384600F086FB0BB0BDE8F08300BFC01D00005482FF1F34
:40054000E81D0000101E0000381E0000501E0000681E00008C1E0000A41E0000C81E0000E01E0000041F00001C1F0000401F00005C1F0000741F0000BC1D0000901F00005B
:40058000AC1D000030B583B00546E8238DF8073000240AE004EB44035A0006232A4401210DF10700FFF746FE01341F2CF2DD03B030BD00BF30B583B02E238DF804300024BE
:4005C0008DF8054002AD05F8054D23462A46022101A8FFF72FFE012000F068FB064B1B88ADF800308DF8034023462A4602216846FFF720FE03B030BDBC1D0000FEE700BF8B
:40060000F0B40022174611E050F82760F3B226F0FF0608E001EB420511F812406D78A5550132013BDBB2002BF4D101371A2FEBD9F0BC7047064B1B78DBB203F00701054A73
:4006400011701B09013213704422034B1A707047CF0100496E5800407658004008B50A46002100F074FF08BD38B50B222B4B1A8018232B4A1370192502321580023213708C
:40068000EF21023211800232137047F22F52254B1A8002331D70022203F272231A7008224FF040231A70032103F5007319701E4B1B78DBB21D490B701D4B1A8041F2512270
:4006C000023B1A8000240CE01A4B1B7803F0010343EA440404F003044FF4F07000F0F0FE013D0DB1032CEFD115B90320FFF786FF114B4FF480721A8007221A7000220F4984
:400700000A704820023108701A700222033B1A700B4A137843F00F03137038BD80400040824000408C40004008010049A1460040224200402542004004400040064000403D
:40074000A243004008B500F0F7FE08BD38B572B62D4A137843F00403137000240CE02B4D630019194A0011462A44084691882858FFF774FF0134E4B2082CF0D924494FF029
:400780009040FFF73DFF234A137843F0020313701032137843F0020313701F4C237843F040032370A2F58632513A137843F0100313700A2219491A48FFF7C4FF082219498A
:4007C0001948FFF7BFFF0A2218491948FFF7BAFF082218491848FFF7B5FF184A137843F008031370164D61232B70FFF73DFF81232B700122134B1A70FFF71CFF0E2221465E
:400800001148FFF79FFF38BDE8460040B81F00006C00004803500140A043004068070048C051004074070048125100407C07004820510040880700483251004022430040FD
:400840000048004004000840B043004008B500F047FE03680C2B00D1FEE7FEE708B5094B1A681044084BC31A802B02DC054B186005E000F035FE0C2303604FF0FF3210467A
:4008800008BD00BFCC80FF1FE882FF1F08B5104E104D16E029686B68AC68002204E051F8040B43F8040B0432A242F8D1E868002203E0002143F8041B04328242F9D1103578
:4008C000013E002EE6D100F011FEFFF7DBFBFEE7010000004820000008B5104A104B1A60104A136843F40073136000230AE0032B03D80D4A52F8231000E00C490C4A42F82E
:40090000231001332F2BF2D90A4B1A780A4B1A70074A0A4B1A60FFF719FF08BD0004FA050CED00E014ED00E0000000004D0800000080FF1FBC760040C080FF1F08ED00E01D
:40094000014B1B681864704708ED00E04001C0B2014B1870704700BF00E400E00122014B1A60704700E100E00122014B1A60704780E100E010B50446FFF7F6FF2046FFF747
:40098000DFFF0420FFF7E2FFFFF7E8FF10BD00BF024A137843F080031370704772640040014B1870704700BF02640040014B1870704700BF42640040014B1870704700BFAE
:4009C00022640040014B1870704700BF32640040014B1870704700BF82640040014B1878704700BF62640040014B1878704700BF5264004008B501E0FFF7F6FFFFF7EEFF95
:400A000010F0100FF8D108BD10B5134A137803F0C00343F009031370104C237843F001032370FF20FFF7BCFFFF20FFF7BFFF7F20FFF7C2FF3F20FFF7C5FF0020FFF7C8FF34
:400A400000F046FD237843F01003237000F044FDFFF7D0FF10BD00BF726400409264004008B5054B1B7823B9FFF7CEFF0122024B1A70FFF78DFF08BD6481FF1F024A1378A7
:400A800043F080031370704775650040014B1870704700BF03640040014B1870704700BF43640040014B1870704700BF23640040014B1870704700BF84650040014B1878AA
:400AC000704700BF64650040014B1878704700BF5364004008B501E0FFF7F6FFFFF7EEFF10F0100FF8D108BD08B5124A137803F0C00343F009031370E23A137843F001031B
:400B00001370FF20FFF7C2FFFF20FFF7C5FF7F20FFF7C8FF0020FFF7CBFF00F0D9FC064A137843F01003137000F0D6FCFFF7D2FF08BD00BF756500409465004008B5054B71
:400B40001B7823B9FFF7D0FF0122024B1A70FFF795FF08BD6581FF1F014B1B68D864704708ED00E04001C0B2014B1870704700BF03E400E00822014B1A60704700E100E031
:400B80000822014B1A60704780E100E010B50446FFF7F6FF2046FFF7DFFF0520FFF7E2FFFFF7E8FF10BD00BF7222074B1A700023064A13700621623A1170472110321170DF
:400BC000AD3A1370704700BF856400408665004010B500F07DFC04460A4A137843F02003137002F20112137843F010031370FF3A137843F01003137000F032F8204600F039
:400C00006BFC10BD9564004008B5054B1B7823B9FFF7CAFF0122024B1A70FFF7D9FF08BD6681FF1F034B1B7813F0040FFAD1024B18707047676400404464004038B5074BFA
:400C40001B782BB938BDFFF7EDFF0134A4B201E005460024285D0028F5D138BD6681FF1F054A137843F0020313701032137843F002031370704700BFA243004001BE7047B0
:400C800010B5044605E0084B186800F019FCA4F50044B4F5004FF6D8034B586800FB04F000F00EFC10BD00BFD080FF1F08B5034B1B7A00FB03F000F003FC08BDD080FF1F24
:400CC00070B504460E46074B1D680F2802D90020FFF7D4FF04F00F0455F8240045F8246070BD00BF08ED00E070B504460E46074B1D681F2802D90020FFF7C0FF04F01F04BD
:400D0000103455F8240045F8246070BD08ED00E038B504460D46072902D90020FFF7AEFF1F2C02D90020FFF7A9FF04F01F0000F1604000F564406D01EDB2057038BD00BF8C
:400D4000024A136823F001031360704710E000E0024A136843F002031360704710E000E008B5FFF7F5FF034A136843F00103136008BD00BF10E000E020F07F40014B1860A2
:400D8000704700BF14E000E0024B186820F07F40704700BF18E000E0012805D1054A136843F0040313607047024A136823F004031360704710E000E0024B1868C0F3004037
:400DC000704700BF10E000E010B5FFF7F5FF01280BD107E0054B03EB84035B6803B19847013400E00024042CF4D910BD6881FF1F0022014B1A60704718E000E008B5002396
:400E000005E00F4A02EB8302002151600133042BF7D90C490F20FFF753FF0120FFF7BCFF094BDB680948A0FB03308009FFF7A4FFFFF7DEFF4FF40042054B1A6008BD00BFE1
:400E40006881FF1FC90D0000D080FF1FD34D621000E100E008B5054B9B6923B9FFF7CEFF0122024B9A61FFF77BFF08BD6881FF1F2022014B1A60704700E100E01022014B7F
:400E80001A60704700E100E008B500F021FB0C4A137843F020031370023A137843F01003137002F20312137843F01003137000F013FB00F051FAFFF7DBFFFFF7DFFF08BD2E
:400EC000966400402022014B1A60704780E100E01022014B1A60704780E100E010B5FFF7F1FF064B1C78064A137803F009031C4300231370FFF7BCFF204610BD646400406D
:400F0000CC82FF1F10B5FFF7E3FF064B1B78064A147804F040041C4300231370FFF7AEFF204610BD67650040DD82FF1F10B504462B4B1A7802F0FF0312B1013BDBB200E0D5
:400F40000723284A1278D2B29342F1D0FFF7BAFF254B1978254A137803F009030B4313701F4B1A78D2B21F4B1B78DBB29A4207D11E4B1B7813F0040F02D01D4B1C702CE015
:400F8000184A13780133DBB213701378DBB2072B02D90022134B1A70124B1A78D2B2104B1B78DBB29A420ED10D4A13780133DBB213701378DBB2072B02D90022084B1A70DE
:400FC00001220C4B1A70074B1B78DBB20A4AD4540A4A137843F004031370FFF749FF10BDD982FF1FDB82FF1F64640040CC82FF1F47640040D882FF1FC482FF1F8464004001
:4010000010B5FFF765FF134B1A78D2B2124B1B78DBB29A4214D0114B1B7813F0FF0F0CD10C4A13780133DBB213701378DBB2072B06D90022074B1A7002E00022074B1A70D7
:40104000044B1B78DBB2064AD45CE4B2FFF716FF204610BDDC82FF1FDA82FF1FC082FF1FD082FF1F08B501E0094B1B78094B1B7813F0200FF8D1FFF72BFF0023064A13706A
:40108000064A1370064A1370FFF7F8FE08BD00BF5764004067650040C082FF1FDC82FF1FDA82FF1F08B500F013FA0E4B1A7842F001021A701A7802F0FE021A7000F00CFA55
:4010C000FFF700FF0023084A1370084A1370084A1370084A137803F0FB031370FFF7C8FE08BD00BF97640040D882FF1FD982FF1FDB82FF1F8464004070B506460C46002511
:4011000006E0705DFFF712FF0135EDB2013CE4B2002CF6D170BD00BF08B501E00A4B1B780A4B1B7813F0200FF8D100F0D1F9084B1A7842F001021A701A7802F0FE021A7099
:4011400000F0CAF908BD00BF57640040676500409764004038B50F22174B1A70174C2025256007210520FFF7D3FD15490520FFF7BBFD1023236007210420FFF7C9FD114963
:401180000420FFF7B1FDFFF7C7FF00240E4B1C700E4B1C700E4B1C700E4B1C700E4B1C700E4B1C70FFF79AFEFFF7ACFE0C4B1C7003F203131D7038BD8664004080E100E020
:4011C00001120000A1120000C082FF1FDC82FF1FDA82FF1FD882FF1FD982FF1FDB82FF1F8464004008B5054B1B7823B9FFF7B2FF0122024B1A70FFF747FE08BD8481FF1FFF
:4012000028E01F4B19781F4A137803F009030B431370137813F0040F24D01B4B1B7813F0FF0F0CD1194A13780133DBB213701378DBB2072B06D90022144B1A7002E0002201
:40124000114B1A70114B1B78DBB2114AD35CDBB2104A13700D4B1A78D2B20F4B1B78DBB29A42CED1094B1A78D2B20B4B1B78DBB29A4204D1094A137803F0FB03137070471B
:4012800064640040CC82FF1FD882FF1FD982FF1FC482FF1F47640040DB82FF1F84640040204B1A7820490B7803F0400313430B7032E01E4B1A78D2B21D490B780133DBB2AC
:4012C0000B700B78DBB2072B02D90021184B1970174B1978C9B2174B1B78DBB299420ED114490B780133DBB20B700B78DBB2072B02D900210F4B197001210F4B19700C4B06
:401300001B78DBB20D49CA54064B1A7806490B7803F0400313430B70034B1B7813F0200FC7D1704767650040DD82FF1F57640040DA82FF1FDC82FF1FC082FF1FD082FF1FB1
:40134000044A137803F0F703C00000F00800184310707047C0510040054A137843F0010313701032137843F001031370704700BFA2430040084A137843F00103137010327D
:40138000137843F00103137002F64D32137843F001031370704700BFA3430040014B1870704700BF034F0040014B1880704700BF044F0040014B1880704700BF064F0040D8
:4013C00008B5204A137803F0010313701E4B197801F0FC011970117841F0040111701A7802F0F3021A701A7842F00C021A701A7802F07F021A701A7842F080021A701A78C0
:40140000D2B21A7009331A7802F0CF021A701A7842F030021A701A7802F0F0021A701A7842F00F021A70094A137843F001031370C720FFF7B9FFC720FFF7BCFF0820FFF7C1
:40144000ADFF08BD004F0040024F0040014F004008B5054B1B7823B9FFF7B2FF0122024B1A70FFF787FF08BD8581FF1F014B1B685864704708ED00E04001C0B2014B18702B
:40148000704700BF01E400E00222014B1A60704700E100E00222014B1A60704780E100E010B50446FFF7F6FF2046FFF7DFFF0020FFF7E2FFFFF7E8FF10BD00BF0000000019
:4014C0000230800803D000BF01380046FCD17047EFF3108072B6704780F31088704700BF014B1868704700BF4081FF1F0E4B70B51E460E4C0025E41AA410A54204D056F88E
:40150000253098470135F8E700F08CFD084B094C1E46E41AA4100025A54204D056F8253098470135F8E770BD3020000030200000302000003820000010B5431E0A449142F8
:4015400004D011F8014B03F8014FF8E710BD03460244934202D003F8011BFAE7704700000EB400B54FF402719CB0ADF814106FF00041049107914FF6FF711DAB02900690B2
:40158000084853F8042BADF81610006802A9019300F064F8029B00221A701CB05DF804EB03B070474081FF1F2DE9F0478E6882469E420C46914698463ED88A8912F4906FE1
:4015C0003AD02568096902236F1A656905EB450595FBF3F57B1C43449D4238BF1D4653050FD5294600F040FB064698B13A462169FFF7A2FFA38923F4906343F08003A38141
:4016000013E02A4600F08EFB064670B92169504600F0DEFA0C23CAF80030A3894FF0FF3043F04003A381BDE8F08726613E44266046466561ED1BA560464528BF4646494685
:401640003246206800F0A8FAA36800209B1BA36023681E442660BDE8F08700002DE9F04F9DB003938B8980461C060D4616460DD50B695BB9402100F0F7FA2860286118B9F4
:401680000C23C8F80030CDE040236B610023099320238DF82930DFF89CB130238DF82A3037463C4614F8013B1BB9B7EB060910D003E0252BF9D02746F3E74B463246294692
:4016C0004046FFF771FF013000F0A780099B4B4409933B78002B00F0A08000234FF0FF3204930793059206938DF853301A930126052221784E4800F041FA671C049B38B19D
:401700004B4A3C46801A06FA00F018430490EFE7D90644BF20228DF853201A0744BF2B228DF8532022782A2A03D0079A00210A200BE0039A111D12680391002A10DA5242A5
:4017400043F00200079204900BE027463B780134303B092B03D800FB02320121F5E701B107923B782E2B1ED17B782A2B0AD1039B02371A1D1B680392002BB8BF4FF0FF337E
:40178000059310E0002319460593781C0A2407463A780130303A092A03D804FB01210123F5E703B1059103223978224800F0E6F940B14023CBEB000003FA00F0049B0137D5
:4017C00018430490397806221B487E1C8DF8281000F0D4F988B1194B33B9039B073323F007030833039314E003AB00932A46144B04A94046AFF3008007E003AB00932A466A
:401800000F4B04A9404600F093F8B0F1FF3F824603D0099B5344099342E7AB895B0601D4099801E04FF0FF301DB0BDE8F08F00BFF01F0000F61F0000FA1F000000000000DF
:40184000A91500002DE9F04791461F460A698B6806469342B8BF1346C9F8003091F843200C46DDF8208012B10133C9F800302368990642BFD9F800300233C9F8003025685F
:4018800015F0060510D104F1190A07E00123524639463046C04701301AD00135E368D9F800209B1A9D42F1DB94F843302268003318BF012392060FD5E118302081F843005B
:4018C0005A1C94F845102244023382F8431003E04FF0FF30BDE8F08704F1430239463046C0470130F4D02268D9F80050E36802F00602042A08BF5D1B2269A3680CBF25EAC4
:40190000E57500259342C4BF9B1AED184FF000091A344D4509D00123224639463046C0470130D5D009F10109F3E70020BDE8F0872DE9F04317460A7E85B06E2A9846064678
:401940000C460C9B01F1430E00F0AE8011D8632A22D009D8002A00F0BB80582A40F0CA8081F84520834955E0642A1ED0692A1CD0C0E0732A00F0B08009D86F2A2ED0702A2A
:4019800040F0B8800A6842F020020A603EE0752A24D0782A3AD0ADE01A6801F14205111D1960136884F84230A8E021681A6811F0800F02D0111D196008E011F0400F02F113
:4019C0000401196002D0B2F9003000E01368002B3CDA2D225B4284F8432037E021681A6811F0800F02D0111D196007E011F0400F02F10401196001D0138800E01368227E1B
:401A00005C496F2A14BF0A2208221BE078225A4984F845202268186812F0800F00F104051D6003D1550601D5038800E00368D00744BF42F0200222601BB9226822F02002F7
:401A400022601022002084F8430001E049490A226568002DA56008DB206820F0040020602BB9002D7DD175460CE0002B79D07546B3FBF2F002FB1033CB5C05F8013D034686
:401A80000028F5D1082A0BD12368DA0708D5236962689A42DEBF302305F8013C05F1FF35C5EB0E0323612EE008681A6810F0800F496903D0101D1860136808E010F0400FAB
:401AC00002F104001860136801D0198000E0196000232361754616E01A68111D1960156800216268284600F049F808B1401B6060636804E004F1420584F84220012323616C
:401B0000002384F84330CDF800803B4603AA21463046FFF797FE013002D14FF0FF3026E023692A4639463046C0470130F5D023689B0710D5002504F1190907E001234A4669
:401B400039463046C0470130E7D00135E368039A9B1A9D42F2DBE068039B9842B8BF184605E00B7804F1420584F842308AE705B0BDE8F083012000001220000010B5C9B20A
:401B800002449042034605D01C7801308C42F8D1184610BD002010BD884210B501EB020301D8421E0BE09842FBD28118D21AD34204D013F8014D01F8014DF8E710BD99429B
:401BC00004D011F8014B02F8014FF8E710BD000038B50546002944D051F8043C0C1F002BB8BFE41800F0D4F81E4A1368114613B96360146030E0A3420DD92268A018834224
:401C000001BF18685B681218226063600C6023E0A24203D813465A68002AF9D118681918A1420BD12168014458188242196013D110685268014419605A600DE002D90C2385
:401C40002B6009E021686018824201BF106852680918216062605C602846BDE8384000F098B838BD8C81FF1F70B5CD1C25F0030508350C2D38BF0C25002D064601DBA94225
:401C800002D90C23336046E000F082F8234B1C681A462146A1B10B685B1B0ED40B2B03D90B60CC18CD501EE08C420BBF63684B681360636018BF0C4615E00C464968E9E768
:401CC000174C23681BB9304600F052F820602946304600F04DF8431C18D0C41C24F00304A0420DD12560304600F053F804F10B00231D20F00700C31A0ED05A42E25070BD93
:401D0000211A304600F034F80130EBD10C233360304600F03EF8002070BD00BF8C81FF1F8881FF1FF8B5074615460E4621B91146BDE8F840FFF798BF1AB9FFF749FF2846AA
:401D4000F8BD00F027F885420ED929463846FFF78BFF044650B131462A46FFF7EDFB31463846FFF735FF01E03046F8BD2046F8BD38B5064C0023054608462360FEF76EFD50
:401D8000431C02D1236803B12B6038BDE082FF1F7047704751F8040C0028BEBF091851F8043CC0180438704700000000207F00002202000023800000244000002E40000099
:401DC0002A2A2A2A2A2A2A2A2A202020204C49533344482054455354202020202A2A2A2A2A2A2A2A2A0D0A0057484F20414D2049205245473A20307825303258205B4578B5
:401E00007065637465643A20307833335D0D0A002A2A2A2A2A2A2A2A2A2A2A2A2A2A2A2A2A2A2A2A2A2A2A2A2A2A2A2A2A2A2A2A2A2A2A2A2A0D0A005354415455532052D2
:401E400045473A20307825303258200D0A0000004354524C20524547313A20307825303258200D0A000000004354524C20524547312041465445522057524954453A203017
:401E80007825303258200D0A000000004354524C20524547333A20307825303258200D0A000000004354524C20524547332041465445522057524954453A203078253032EA
:401EC00058200D0A000000004354524C20524547343A20307825303258200D0A000000004354524C20524547342041465445522057524954453A20307825303258200D0A18
:401F0000000000004354524C20524547353A20307825303258200D0A000000004354524C20524547352041465445522057524954453A20307825303258200D0A0000000064
:401F40002D2D2D2D4649464F20464C555348494E472D2D2D2D2D0D0A000000002A2A2A2A2A2A2A2A2A4649464F20464C55534845440D0A004649464F204354524C20524501
:401F8000473A20307825303258200D0A000000004649464F204354524C205245472041465445522057524954453A20307825303258200D0A00000000004F004018000051FE
:401FC00000401000405100403000F0510040100000000140001000140140000800400140000A004C014000020050014020004300232D302B2000686C4C0065666745464754
:40200000003031323334353637383941424344454600303132333435363738396162636465660000F8B500BFF8BC08BC9E4670474D000000D9080000F8B500BFF8BC08BC0B
:402040009E4670472900000058200000C880FF1F80000000A001000000000000E882FF1F0000E02EC05D00001800000000366E01000000000000000000000000000000002D
:4020800000000000000000000000000000000000EE1F0000000000000000000000000000000000000000000000000000000000000000000000000000000000000000000013
:4020C00000000000000000000000000000000000E080FF1F000000000000000000000000000000000000000000000000000000000000000000000000000000000000000062
:40210000000000000000000000000000000000000000000000000000000000000000000000000000000000000000000000000000000000000000000000000000000000009F
:40214000000000000000000000000000000000000000000000000000000000000000000000000000000000000000000000000000000000000000000000000000000000005F
:40218000000000000000000000000000000000000000000000000000000000000000000000000000000000000000000000000000000000000000000000000000000000001F
:4021C00000000000000000000000000000000000000000000000000000000000000000000000000000000000000000000000000000000000000000000000000000000000DF
:020000040003F7
:0200000480007A
:40000000044F004004520040046400400265004064020140390301404D040140440501404F0601404D070140020D014061140140491501404E1601404D170140021B014090
:40004000074001400C4101400E4201400743014002440140044501400C48014013490140084D0140055001400251014001300A360D30163618A0192060016180820F857296
:40008000860F870F840D86380001030208040B0416031B0D1E0C23082701300431013201330234083504360237083F104020410645D046204715483A49FF4AFF4BFF4DA016
:4000C0004F04501852805407580459045A045B045C225D225F01604062C06440654066C068C06AC06CC06EC0841186228703882089018AD08C248E4990D8920198089A0455
:400100009C2E9E81A0D9A304A4D9A8D1AA08ACD9B304B4F0B502B60FB701BAE0C030C105C5D1C720C823C9FFCAFFCBFFCDA0CF04D018D804D904DA04DC30DD02DF01E0403D
:40014000E2C0E440E540E6C0E8C0EAC0ECC0EEC001200322040105100A420B080D080F0210281102120119A01A021C411D101E20211423122480271928802E0A371039288C
:400180003C023F2040204710480249024B044D014F20500251015508560A57115C405D015E205F087401830284808701C057C2ABC40FCAC1CC20CEA6D022D228D6F0E60240
:4001C000EE010463060C072009140C010D100E740FAC102212501472150C177118221C231E581F03207221DC23222480285029102A222B402C722D092FD0301F328033E051
:4002000034603601371F38023B083E4440534106450E46B0470C481949FF4AFF4BFF4EF04F44500C54095604580459045A045B045C105D015F0166C06A406B028D0D8F0200
:4002400095069F09A503A70CB108B507B920BF01D602D711D904DB04DD10DF0100400320081009040A420B08100811021221184019541B2220202180228827442A102B41A6
:400280002F203180320835803704382039083B403CC0410C4A2A4B405014581059095B405F20608061406E94748076207708804082048402862087109080910292029314FD
:4002C0009640970899829C209E01A428A501A722C005C20FC40FCA4DCC5ACE1ED002D20CD62FD80900E7021804FF055F081C094F0AE10B100D530EE30F0C1204131314C04A
:400300001504183C19031AC21C101D011F20204421082408254C27132818290C2C802D02312032383340341F351C36C0370F3A203BA03F0456025720580459045B045C1141
:400340005F01C065C102C240C401C5BEC6FDC70CC81FC9FFCAFFCBFFCC22CEF0CF0CD004D401DA04DB04DD10DF01E2C0E440E501E610E711E8C0E901EB11EC40ED01EE40E9
:40038000EF010404068007060C900D020F2014811510160217081E221F10255227242C912D102E282F1034803620370A3C0C3DA03E80404043A049884A044B015110524038
:4003C0005304580259245A8065406C286D0B6E406F10760179207B0483808584908891029214931496409708980299969A209B089C209D099E119F20A0D0A2C4A320A428B4
:40040000A50DA602A741AC80C0F0C2F0C4F0CAF0CCF0CE70D00DD20CD60FD810E602EE0100400301040C06300C0C0E501240140118041A681B011C081E7420022440284060
:400440002C40300232013301367C3A803E053F044006464049FF4A074BFF4C404D204EF04F0550085405580459045A045B045D215F01604061A862406320800183028602EA
:40048000870D8A018E029108960498019B019E04A601B004B108B202B301B401B502B704B8A0BE45C041C102C206C403C5C0C7E0C822C9FFCAFFCBFFCC62CDA0CEF0CF4158
:4004C000D00CD280D804D904DA04DB04DC21DD21DF01E640E702E910EA30EB10ED10EE10EF120080010103200404068A08100A410B100D200E200F211028128117041940DF
:400500001A111B011C041F852204242026202782322034203620370239023C023F044564468049204F2151085210560259025A085B807401801087C08B018E109103924097
:400540009394970A981099229A899B049C209D409E10A068A164A290A320A508AC80AF10C0FDC2EFC42FCCA4CEC1D0F0D224D60BE610EE02011402010349059F060C08347A
:40058000099F0A080C0312031403180819011A301B261D801E1020032438250A2604275128033002311832013360341C35073620378038803E053F045418580459045B049F
:4005C0005C105D105F01850386088714887189138A0E8B048E0C907191139206930C948096139C2C9E43A10AA314AB15AF08B0C0B10FB430B60FB710B822BA80BB22BE1041
:40060000BF40D440D604D804D904DB04DC11DF0100200110021003020404051006410808090A0A010C080E480F0114101509171019201A011B431C441D051F4020082122AD
:40064000224225452620270228082B412F1031023660380839103D023E165E02610462406348670A7A207B10800487409008910B925493159440968099129AC99B149CA0E5
:400680009D419E129F02A078A2D5A324A404A508A622A751B444B520C0F7C2FDC470CA4DCC31CEE6D680D83FEE10E080EE0232803304350437403B20CCF0CE103010810453
:4006C000861097209D049F04A680AB40CC10E240E680EE800102128017045A01860197209A109C109F04A680C010C430D640E2108102972099029A10AC10E420EE401302D0
:40070000C40801208520AB02C00266046A0882208710900197209A10B401D880DA40E220E6405C046001661072207F028004860487028E04900196089A309E04D6C0D88066
:40074000DC80DE20E230E61013027B018B019F02AF02C408DC01E001000F080D0A0310071A0700FF010F00008900548B8B00830000000000000B0B00000000000400000610
:40078000020000000000000000E0E000E000000000000000000000000000000000000000000000000000000000000000000000000000000000000000000000000000000097
:4007C00000000000000000000000000000000000000000000000000000000000000000000000000000000000000000000000000000000000000000000000000000000000F9
:4008000000000000000000000000000000000000000000000000000000000000000000000000000000000000000000000000000000000000000000000000000000000000B8
:400840000000000000000000000000000000000000000000000000000000000000000000000000000000000000000000000000000000000000000000000000000000000078
:400880000000000000000000000000000000000000000000000000000000000000000000000000000000000000000000000000000000000000000000000000000000000038
:0200000490006A
:0400000000004005B7
:0200000490105A
:04000000BC90ACAF55
:0200000490303A
:0200000056D7D1
:0200000490402A
:4000000000000000000000000000000000000000000000000000000000000000000000000000000000000000000000000000000000000000000000000000000000000000C0
:400040000000000000000000000000000000000000000000000000000000000000000000000000000000000000000000000000000000000000000000000000000000000080
:400080000000000000000000000000000000000000000000000000000000000000000000000000000000000000000000000000000000000000000000000000000000000040
:4000C0000000000000000000000000000000000000000000000000000000000000000000000000000000000000000000000000000000000000000000000000000000000000
:0200000490501A
:0C00000000012E16106900012E2467403C
:00000001FF