:400000000080002011000000911300009113000008B5044B1A6803F53F5302331A6001F0D7F900BFFA46004010B5054C237833B9044B13B10448AFF300800123237010BD5E
:400040004881FF1F0000000058360000084B10B51BB108490848AFF300800848036803B910BD074B002BFBD0BDE81040184700BF000000004C81FF1F58360000C880FF1FE6
:40008000000000002DE9F04FBDB062B601F07AFB01F05AFF02F0C0F90A2001F0C3FB00F065FC4C4801F088FD4B4801F005FA4B4801F028FB01F070FC01F056FD02F0D0FA50
:4000C00002F0B6FC00F0A8FB4FF00009444B83F80090444B83F80090434B83F800900A2001F0A0FB00F074FB3D4B1B78DBB2012B02D0022B04D015E03C4800F021FC11E081
:4001000000F090FB05E0484600F00CFF814600F0B5FB00F08FFA0128F5D000F093FB484600F090FA2F4B1B78DBB2012B12D12F4C204600F0E5FD204600F0FAFD00F096FA59
:40014000012802D1204600F075FE00F0A5FE0022244B1A70244B1B78DBB2012BC4D1312000F0FEFB064610F0400FF8D100F0A6FA824600F023FF8346002722E00DAC39468A
:40018000204600F01DFE0DF1700800945B4632465146404600F0F4FE6C4620AD0FCD0FC40FCD0FC495E80F0084E80F0098E80F0000F0BAFA3A4651462CA800F0EDFA01379B
:4001C000FFB2042FDAD90022074B1A7000F064FE8AE700BF91020000F101000049020000D083FF1FD183FF1F6883FF1F8481FF1F10B5144B1B78DBB2022B0AD00222114B3E
:400200001A70012000F002FA00F080FE02F024FC10BD00F0F3F90B4C2070002000F0F6F9237813F0FF0F02D100F05AFE06E0054B1B78DBB2012B01D100F05CFE02F00CFCB9
:4002400010BD00BFD083FF1F08B5104B1B78DBB2012B0AD1002000F0BDF900F0F3FA00F03FFE0022094B1A7008BD084B1B7813F0FF0F09D1012000F0ADF900F0D3FA00F078
:4002800039FE0122014B1A7008BD00BFD083FF1F08B52F2000F064FB10F0400F02D00122054B1A70312000F05BFB10F0400F02D00122024B1A7008BDD183FF1F6883FF1FAE
:4002C00010B50446002001F075FB204601F0E0FC002001F0DDFC01F0B3FC10F0010FFAD001F040FD01F03EFD0446012001F062FB204610BD2DE9F04383B006460C4617461A
:400300009846002001F056FB64B2002511E02146082CA8BF0821C9B206EBC50001F09EFD01F08EFC10F0010FFAD0083C64B201356DB2002CEBDC01F0A1FD01F045FD00268A
:40034000009601964FFA88F820E0C146B8F1080FA8BF4FF008095FFA89F1684601F07EFD01F06EFC10F0010FFAD0002406E004EBC60501F0F7FC78550134E4B24C45F6DB45
:40038000A8F108084FFA88F8013676B2B8F1000FDBDC012001F00EFB01F070FD01F014FD01F032FD03B0BDE8F08300BF10B50446002001F00BFB204601F0D2FE01F0A8FEF4
:4003C00010F0080FFAD001F035FF0446012001F0FDFA204610BD00BF10B50446002001F0F5FA204601F0BCFE002001F0B9FE01F08FFE10F0010FFAD001F01CFF01F01AFF5C
:400400000446012001F0E2FA204610BD2DE9F04383B006460C4617469846002001F0D6FA64B2002511E02146082CA8BF0821C9B206EBC50001F07AFF01F06AFE10F0010FC0
:40044000FAD0083C64B201356DB2002CEBDC01F07DFF01F021FF0026009601964FFA88F820E0C146B8F1080FA8BF4FF008095FFA89F1684601F05AFF01F04AFE10F0010FE4
:40048000FAD0002406E004EBC60501F0D3FE78550134E4B24C45F6DBA8F108084FFA88F8013676B2B8F1000FDBDC012001F08EFA01F04CFF01F0F0FE01F00EFF03B0BDE8A7
:4004C000F08300BF08B50520FFF786FF08BD00BF08B50620FFF76AFF08BD00BF00B583B003218DF80410030A8DF805308DF8060002AA002302F8053D012301A8FFF786FFD9
:400500009DF8030003B05DF804FB00BF30B583B004460D46FFF7DCFF02238DF80430230A8DF805308DF806408DF80750002302AA02F8053D04210DEB0100FFF767FF03B033
:4005400030BD00BF10B582B003248DF80440030A8DF805308DF8060013460A46214601A8FFF754FF02B010BD2DE9F04182B000AF054688461446FFF7ABFF012001F068F967
:40058000E61C04F10A0323F00703ADEB030D02238DF800302B0A8DF801308DF80250224641460DF1030002F01FFC002307F1080202F8013DF1B26846FFF728FF0837BD46CC
:4005C000BDE8F08108B5FFF77DFF10F0010FFAD108BD00BF10B504460020FFF77FFF012C03D140F00101C9B201E000F0FE010020FFF78CFFFFF7E6FF10BD00BF08B5002051
:40060000FFF76CFF00F0010008BD00BF10B504460020FFF763FF012C03D140F00201C9B201E000F0FD010020FFF770FFFFF7CAFF10BD00BF08B50020FFF750FFC0F34000FA
:4006400008BD00BF10B504460020FFF747FF012C03D140F00401C9B201E000F0FB010020FFF754FFFFF7AEFF10BD00BF08B50020FFF734FFC0F3800008BD00BF10B50446A9
:400680000020FFF72BFF012C03D140F00801C9B201E000F0F7010020FFF738FFFFF792FF10BD00BF10B51620FFF718FF000284B20820FFF713FF204380B210BD08B5FFF797
:4006C000F1FF034BA3FB0030C0F3870008BD00BFCDCCCCCC00B583B0FFF7E4FFB0F5007F0DD2013080B28DF80400000A8DF80500022201A90820FFF737FFFFF763FF03B08E
:400700005DF804FB10B50446FFF7CCFF0130800180B247F6BF73984205D840222146FFF723FFFFF74FFF10BD84B000B591B00DF1480E8EE80F007146684600F045FC684652
:40074000FFF7E0FFFFF7C6FF11B05DF804EB04B0704700BF38B50546402405E04034A4B247F6FE739C4206D82046FFF7B7FEA842F4D1204638BD4FF6FF7038BD38B5054609
:4007800014460846FFF7E6FF00EB84104022294680B2FFF7D7FE38BDF0B5A1B0074610A8FFF7ECFF10A9684600F030FC6C463D460DF1400E26460FCE28606960AA60EB60A5
:4007C000344610357645F5D1384621B0F0BD00BF30B591B040220021684602F010FB002425460DE0402269462846FFF7BDFEFFF7E9FE4035ADB2052001F014F80134A4B2A0
:40080000B4F5007FEED30120FFF738FF052001F009F811B030BD00BF08B500F0A5FE00F021FF08BD08B500F089FE10F0800F01D100F0C6FE00F000FF10F0800F01D100F04F
:4008400039FF08BD08B500F079FE10F0800F01D000F048FE00F0F0FE10F0800F01D000F0C5FE08BD10B50446007800F04FFEA07800F052FE607800F0CDFE10BD00B583B0A7
:40088000FF238DF8043001388DF805008DF8063001A8FFF7E7FF03B05DF804FBF0B482B00026ADF80060ADF80260ADF8046015E006EB46056B00013365002B44C75602ABD4
:4008C0002B4433F8085C3D4423F8085C0134E4B200E00024022CEBD90136F6B29642F8D3002309E002A800EB430030F9080C90FBF2F0C8540133DBB2022BF3D902B0F0BCF5
:40090000704700BFC31718445840C0B2704700BF70B50546002410E02E192857FFF7F2FF285510F0800F01D07F232B5533785B00DBB2DB4333700134E4B2022CECD970BD1C
:4009400010B5064C20222146FFF7A8FF2046FFF7DFFF2046FFF786FF10BD00BF4482FF1F08B540F08000FFF7ABFC08BD2DE9F0438DB0CB4800F020FF0F20FFF7F1FFC94CEE
:400980000246C949204602F043FA204600F014FFC64D284600F010FF2720FFF7E1FF0246C349204602F034FA204600F005FF284600F002FF2020FFF7D3FF0246BD492046F3
:4009C00002F026FA204600F0F7FE284600F0F4FEDFF82883C14639F8043BADF82C3000260CAF07F8056D33463A4602210BA8FFF781FC2020FFF7B4FF0246AF49204602F03B
:400A000007FA204600F0D8FE284600F0D5FE2220FFF7A6FF0246A949204602F0F9F9204600F0CAFE284600F0C7FEB9F80030ADF828308DF82B6033463A4602210AA8FFF704
:400A400059FC2220FFF78CFF02469D49204602F0DFF9204600F0B0FE284600F0ADFE2320FFF77EFF02469749204602F0D1F9204600F0A2FE284600F09FFEB8F80830ADF875
:400A800024308DF82B6033463A46022109A8FFF731FC2320FFF764FF02468B49204602F0B7F9204600F088FE284600F085FE2420FFF756FF02468549204602F0A9F9204660
:400AC00000F07AFE284600F077FEB8F80C30ADF820308DF82B6033463A46022108A8FFF709FC2420FFF73CFF02467949204602F08FF9204600F060FE284600F05DFE0CE04B
:400B0000E8238DF80330062301AA01210DF10300FFF7F0FB6F4800F04FFE2F20FFF720FF10F0200FECD06C4800F046FE4FF02E098DF81C9000258DF81D500CAF07F8055D15
:400B40002B463A46022107A8FFF7D4FB012000F07FFE4846FFF704FF524C02465F49204602F056F9204600F027FE504E304600F023FEDFF88881B8F81030ADF818308DF8C1
:400B80002B502B463A46022106A8FFF7B3FB4846FFF7E6FE02465249204602F039F9204600F00AFE304600F007FE3020FFF7D8FE02464C49204602F02BF9204600F0FCFDF2
:400BC000304600F0F9FDB8F81430ADF814308DF82B502B463A46022105A8FFF78BFB3020FFF7BEFE02464049204602F011F9204600F0E2FD304600F0DFFD3220FFF7B0FEDD
:400C000002463A49204602F003F9204600F0D4FD304600F0D1FDB8F81830ADF810308DF82B502B463A46022104A8FFF763FB3220FFF796FE02462E49204602F0E9F820460F
:400C400000F0BAFD304600F0B7FD3320FFF788FE02462849204602F0DBF8204600F0ACFD304600F0A9FDB8F81C30ADF80C308DF82B502B463A46022103A8FFF73BFB3320DA
:400C8000FFF76EFE02461C49204602F0C1F8204600F092FD304600F08FFD0DB0BDE8F0837C3600006C83FF1FA4360000CC360000F43600000C370000243700004837000086
:400CC00060370000843700009C370000C0370000D8370000FC37000018380000303800004C380000743800008C380000B0380000C8380000EC3800000C3900005C36000007
:400D000030B583B00546E8238DF8073000240AE004EB44035A0006232A4401210DF10700FFF7E8FA01341F2CF2DD03B030BD00BFF0B5A5B0002308E000EB4302517824AADB
:400D40001A4402F8601C0133DBB25F2BF4D900211DE001EB41035A0024A8104410F8604C24A8184400F8904C581C541C24AD2C4414F8604C284400F8904C023302322A441B
:400D800012F8602C2B4403F8902C0131C9B20F29DFD90A48A0F13004F022214602F024F86E460CAF35460FCD20606160A260E3602E461034BD42F5D125B0F0BD7882FF1FD9
:400DC00070B50131C9B2052915D104463C22002102F015F8164B204603F130021E685D689C68D968066045608460C160103310309342F3D170BDA1EB01118B0003F590724C
:400E00000B4B134403F130021E685D689C68D968066045608460C160103310309342F3D119685A689B6801604260836070BD00BF4882FF1F10B59AB0A0238DF86030C02359
:400E40008DF86430002308E000EB430251781AAA1A4402F8681C0133DBB25F2BF4D9002415E004EB44031344013B1AA90B4413F8681C1AAB134403F8081C013200E00122A9
:400E8000032AEEDD052118A800F0A8FC01341F2CF5DD1AB010BD00BF30B583B02E238DF8043000248DF8054002AD05F8054D23462A46022101A8FFF71DFA012000F0C8FC83
:400EC000064B1B88ADF800308DF8034023462A4602216846FFF70EFA03B030BD6C36000008B500F0ADFD10F0800F01D000F082FD08BD00BF08B500F0A3FD10F0800F01D11F
:400F000000F0DCFDFF2000F089FD08BD08B500F097FD10F0800F01D100F0D0FD7F2000F07DFD08BD10B5044601F0E6FDFF2802DC002803DA01E0FF2000E00020C0B23F289B
:400F400003D9BE2802D9012400E00024204610BD70B40B46043030311E685D689C68DA68066045608460C260103310308B42F3D119685A689B6801604260836070BC7047A9
:400F8000F0B591B007468DF800108DF80120ADF8023016996846FFF7DBFF6C463D460DF1400E26460FCE28606960AA60EB60344610357645F5D1384611B0F0BD08B501F075
:400FC0005DFBC04380B208BD70B40B7803704B7843704B8883704B881B0AC3700B1D043034311E685D689C68DA68066045608460C260103310308B42F3D119685A689B6861
:4010000001604260836070BC704700BF70B40B7803704B784370CA788B7843EA022343800B1D043034311E685D689C68DA68066045608460C260103310308B42F3D1196846
:401040005A689B6801604260836070BC704700BFFEE700BFF0B40022174611E050F82760F3B226F0FF0608E001EB420511F812406D78A5550132013BDBB2002BF4D1013763
:40108000252FEBD9F0BC70470A4B1B78DBB203F00701094A11701B09013213700822074B1A708023064A1370583213704422054B1A707047CF0100496E5800403D5100402A
:4010C000005B00407658004008B50A46002101F096FE08BD08B501F087FE08BD70B500243D4B1C80502202331A70032602331E8018233A4A1370023216800232137019253C
:401100000232158002321370EF21023211800232137047F22F530232138002321570023213802F4B1D7040F2E73202331A801B2202331A7004222B492B48FFF7CBFF022293
:401140002A4B1A7008224FF040231A7003F500731E70274B1B78DBB226490B70264B1A8041F25122023B1A800CE0244B1B7803F0010343EA440404F003044FF4F07001F034
:40118000F7FD013D0DB1032CEFD115B90320FFF75FFF1B4B4FF480721A8007221A70002218490A704820023108701A700222033B1A7004220A331A7003F297331A78FF223E
:4011C0001A70114A137843F001031370013A137843F08003137070BD80400040864000409A400040F40A0048004100400043004008010049A146004022420040254200406B
:401200000440004006400040A1430040012807D8044B53F820201844017A13780B431370704700BF38390000012808D8044B53F820201844017A137823EA010313707047F4
:401240003839000038B572B63C4A137843F00403137000240BE03A4863001A19510001440A46098AD068FFF72FFF0134E4B2092CF1D900240CE03248A20011194B0003446C
:40128000B3F85020D96C986CFFF724FF0134E4B2012CF0D92B494FF09040FFF7DBFE0A24294B1C70294A03F5284355331A60284A137843F0020313701032137843F00203DB
:4012C0001370244D2B7843F040032B70A2F58632513A137843F01003137008221E491F48FFF7F8FE22461E491E48FFF7F3FE22461D491E48FFF7EEFE22461D491D48FFF7D9
:40130000E9FE22461C491D48FFF7E4FE1C4A137843F0080313701B4C61232370FFF7DEFE812323700122184B1A70FFF7ADFE0E2229461648FFF7CEFE38BD00BFE8460040F1
:401340003839000098000048835800400404048403500140A0430040BC0A004802510040C40A0048C0510040D00A004810510040DC0A004820510040E80A00483051004015
:40138000224300400048004004000840B043004008B501F0FDFC03680C2B00D1FEE7FEE708B5094B1A681044084BC31A802B02DC054B186005E001F0EBFC0C2303604FF0A7
:4013C000FF32104608BD00BFCC80FF1F2084FF1F08B5104E104D16E029686B68AC68002204E051F8040B43F8040B0432A242F8D1E868002203E0002143F8041B043282427B
:40140000F9D11035013E002EE6D101F0C7FCFEF739FEFEE701000000F039000008B5104A104B1A60104A136843F40073136000230AE0032B03D80D4A52F8231000E00C498D
:401440000C4A42F8231001332F2BF2D90A4B1A780A4B1A70074A0A4B1A60FFF7F3FE08BD0004FA050CED00E014ED00E000000000911300000080FF1FBC760040C080FF1FEF
:4014800008ED00E0014B1B681864704708ED00E04001C0B2014B1870704700BF00E400E00122014B1A60704700E100E00122014B1A60704780E100E010B50446FFF7F6FF83
:4014C0002046FFF7DFFF0520FFF7E2FFFFF7E8FF10BD00BF024A137843F080031370704774650040024A137803F07F031370704774650040014B1870704700BF04650040DB
:40150000014B1870704700BF44650040014B1870704700BF24650040014B1870704700BF34650040014B1870704700BF84650040014B1878704700BF64650040014B187898
:40154000704700BF74650040014B1878704700BF5465004008B501E0FFF7F6FFFFF7E8FF10F0100FF8D108BD10B5134A137803F0C00343F009031370104C237843F001032B
:401580002370FF20FFF7B6FFFF20FFF7B9FF0020FFF7BCFF0020FFF7BFFF0020FFF7C2FF01F0EEFB237843F01003237001F0ECFBFFF7D0FF10BD00BF7465004094650040BC
:4015C00008B5054B1B7823B9FFF7CEFF0122024B1A70FFF77FFF08BD6481FF1F024A137843F080031370704775650040024A137803F07F031370704775650040014B187021
:40160000704700BF05650040014B1870704700BF45650040014B1870704700BF25650040014B1870704700BF85650040014B1878704700BF65650040014B1878704700BF20
:4016400075650040014B1878704700BF5565004008B501E0FFF7F6FFFFF7E8FF10F0100FF8D108BD10B5114A137803F0C00343F0090313700E4C237843F001032370FF20F0
:40168000FFF7BCFFFF20FFF7BFFF0020FFF7C2FF0020FFF7C5FF01F073FB237843F01003237001F071FBFFF7D3FF10BD756500409565004008B5054B1B7823B9FFF7D2FF99
:4016C0000122024B1A70FFF789FF08BD6581FF1F014B1B689864704708ED00E04001C0B2014B1870704700BF02E400E00422014B1A60704700E100E00422014B1A60704788
:4017000080E100E010B50446FFF7F6FF2046FFF7DFFF0620FFF7E2FFFFF7E8FF10BD00BF7222074B1A700023064A13700621A632117047211032117050321370704700BF42
:40174000886500408064004010B501F019FB04460B4A137843F020031370A2F58472137843F01003137002F58372137843F01003137000F047F8204601F006FB10BD00BF17
:401780009865004008B5054B1B7823B9FFF7C8FF0122024B1A70FFF7D7FF08BD6681FF1F034B1B7813F0040FFAD1024B18707047666500404664004038B5074B1B782BB92A
:4017C00038BDFFF7EDFF0134A4B201E005460024285D0028F5D138BD6681FF1F084B1B7833B97047305DFFF7DBFF0134E4B203E070B50D4606460024AC42F3D370BD00BFAE
:401800006681FF1F054A137843F0080313701032137843F008031370704700BFA243004001BE704710B5044605E0084B186801F09FFAA4F50044B4F5004FF6D8034B586867
:4018400000FB04F001F094FA10BD00BFD080FF1F08B5034B1B7A00FB03F001F089FA08BDD080FF1F70B504460E46074B1D681F2802D90020FFF7D4FF04F01F04103455F87E
:40188000240045F8246070BD08ED00E038B504460D46072902D90020FFF7C2FF1F2C02D90020FFF7BDFF04F01F0000F1604000F564406D01EDB2057038BD00BF084A13788D
:4018C00043F0010313701032137843F00103137002F64D32137843F001031370704700BFA3430040014B1870704700BF034F0040014B1880704700BF044F0040014B1880A2
:40190000704700BF064F004008B5204A137803F0010313701E4B197801F0FC011970117841F0040111701A7802F0F3021A701A7842F00C021A701A7802F07F021A701A783F
:4019400042F080021A701A78D2B21A7009331A7802F0CF021A701A7842F030021A701A7802F0F0021A701A7842F00F021A70094A137843F001031370C720FFF7B9FFC7207B
:40198000FFF7BCFF0820FFF7ADFF08BD004F0040024F0040014F004008B5054B1B7823B9FFF7B2FF0122024B1A70FFF787FF08BD6881FF1F044A137803F07F03C001C0B251
:4019C00018431070704700BF10510040044A137803F0EF03000100F0100018431070704720510040024A137843F080031370704772640040024A137803F07F031370704790
:401A000072640040014B1870704700BF02640040014B1870704700BF42640040014B1870704700BF22640040014B1870704700BF82640040014B1878704700BF6264004098
:401A4000014B1878704700BF72640040014B1878704700BF5264004008B501E0FFF7F6FFFFF7E8FF10F0100FF8D108BD10B5114A137803F0C00343F0090313700E4C23788B
:401A800043F001032370C820FFF7BCFFC820FFF7BFFF0020FFF7C2FF0020FFF7C5FF01F06FF9237843F01003237001F06DF9FFF7D3FF10BD726400409264004008B5054B64
:401AC0001B7823B9FFF7D2FF0122024B1A70FFF789FF08BD6981FF1F024A137843F080031370704771640040014B1870704700BF81640040014B1878704700BF61640040C9
:401B0000014B1870704700BF21640040014B1878704700BF41640040014B1870704700BF0164004008B501E0FFF7F0FFFFF7E2FF10F0080FF8D108BD08B56320FFF7E0FF5C
:401B40006320FFF7E9FF01F01BF9064A137843F01003137001F018F9FFF7E4FF0120FFF7C3FF08BD9164004008B5054B1B7823B9FFF7E2FF0122024B1A70FFF7ADFF08BDF9
:401B80006A81FF1F014B1B685864704708ED00E04001C0B2014B1870704700BF01E400E00222014B1A60704700E100E00222014B1A60704780E100E010B50446FFF7F6FF05
:401BC0002046FFF7DFFF0720FFF7E2FFFFF7E8FF10BD00BF4022014B1A60704700E100E02022014B1A60704700E100E008B501F0C7F80C4A137843F020031370013A137837
:401C000043F01003137002F20112137843F01003137001F0B9F800F0ADFCFFF7DBFFFFF7DFFF08BD976400404022014B1A60704780E100E02022014B1A60704780E100E081
:401C400010B5FFF7F1FF064B1C78064A137803F009031C4300231370FFF7BCFF204610BD66640040D583FF1F10B5FFF7E3FF064B1B78064A147804F040041C4300231370F7
:401C8000FFF7AEFF204610BD67650040E583FF1F10B504462B4B1A7802F0FF0312B1013BDBB200E00723284A1278D2B29342F1D0FFF7BAFF254B1978254A137803F009035C
:401CC0000B4313701F4B1A78D2B21F4B1B78DBB29A4207D11E4B1B7813F0040F02D01D4B1C702CE0184A13780133DBB213701378DBB2072B02D90022134B1A70124B1A7822
:401D0000D2B2104B1B78DBB29A420ED10D4A13780133DBB213701378DBB2072B02D90022084B1A7001220C4B1A70074B1B78DBB20A4AD4540A4A137843F004031370FFF71B
:401D400049FF10BDD683FF1FD483FF1F66640040D583FF1F47640040D883FF1FDC83FF1F8664004010B5FFF765FF134B1A78D2B2124B1B78DBB29A4214D0114B1B7813F015
:401D8000FF0F0CD10C4A13780133DBB213701378DBB2072B06D90022074B1A7002E00022074B1A70044B1B78DBB2064AD45CE4B2FFF716FF204610BDF083FF1FE483FF1F33
:401DC000D783FF1FE883FF1F08B501E0094B1B78094B1B7813F0200FF8D1FFF72BFF0023064A1370064A1370064A1370FFF7F8FE08BD00BF5764004067650040D783FF1FD0
:401E0000F083FF1FE483FF1F08B500F0B9FF0E4B1A7842F001021A701A7802F0FE021A7000F0B2FFFFF700FF0023084A1370084A1370084A1370084A137803F0FB031370E6
:401E4000FFF7C8FE08BD00BF97640040D883FF1FD683FF1FD483FF1F8664004070B506460C46002506E0705DFFF712FF0135EDB2013CE4B2002CF6D170BD00BF08B501E091
:401E80000A4B1B780A4B1B7813F0200FF8D100F077FF084B1A7842F001021A701A7802F0FE021A7000F070FF08BD00BF57640040676500409764004038B50F22174B1A7010
:401EC000174C4023236004210620FFF7DFFC15490620FFF7C7FC2025256004210520FFF7D5FC11490520FFF7BDFCFFF7C7FF00240E4B1C700E4B1C700E4B1C700E4B1C70C3
:401F00000E4B1C700E4B1C70FFF79AFEFFF7ACFE0C4B1C7003F201131D7038BD8764004080E100E0651F000005200000D783FF1FF083FF1FE483FF1FD883FF1FD683FF1FA8
:401F4000D483FF1F8664004008B5054B1B7823B9FFF7B2FF0122024B1A70FFF747FE08BD6B81FF1F28E01F4B19781F4A137803F009030B431370137813F0040F24D01B4BD9
:401F80001B7813F0FF0F0CD1194A13780133DBB213701378DBB2072B06D90022144B1A7002E00022114B1A70114B1B78DBB2114AD35CDBB2104A13700D4B1A78D2B20F4B18
:401FC0001B78DBB29A42CED1094B1A78D2B20B4B1B78DBB29A4204D1094A137803F0FB031370704766640040D583FF1FD883FF1FD683FF1FDC83FF1F47640040D483FF1F5F
:4020000086640040204B1A7820490B7803F0400313430B7032E01E4B1A78D2B21D490B780133DBB20B700B78DBB2072B02D90021184B1970174B1978C9B2174B1B78DBB2B6
:4020400099420ED114490B780133DBB20B700B78DBB2072B02D900210F4B197001210F4B19700C4B1B78DBB20D49CA54064B1A7806490B7803F0400313430B70034B1B78DC
:4020800013F0200FC7D1704767650040E583FF1F57640040E483FF1FF083FF1FD783FF1FE883FF1F1022014B1A60704700E100E00822014B1A60704700E100E008B500F076
:4020C0005FFE0C4A137843F0200313700132137843F010031370023A137843F01003137000F052FE00F054FAFFF7DCFFFFF7E0FF08BD00BF946400401022014B1A60704723
:4021000080E100E00822014B1A60704780E100E010B5FFF7F1FF064B1C78064A137803F009031C4300231370FFF7BCFF204610BD65640040F483FF1F10B5FFF7E3FF064B97
:402140001B78064A147804F040041C4300231370FFF7AEFF204610BD636400401084FF1F10B504462B4B1A7802F0FF0312B1013BDBB200E00723284A1278D2B29342F1D06D
:40218000FFF7BAFF254B1978254A137803F009030B4313701F4B1A78D2B21F4B1B78DBB29A4207D11E4B1B7813F0040F02D01D4B1C702CE0184A13780133DBB21370137847
:4021C000DBB2072B02D90022134B1A70124B1A78D2B2104B1B78DBB29A420ED10D4A13780133DBB213701378DBB2072B02D90022084B1A7001220C4B1A70074B1B78DBB2D2
:402200000A4AD4540A4A137843F004031370FFF749FF10BD0D84FF1F0E84FF1F65640040F483FF1F446400400084FF1FF883FF1F8564004010B5FFF765FF134B1A78D2B29F
:40224000124B1B78DBB29A4214D0114B1B7813F0FF0F0CD10C4A13780133DBB213701378DBB2072B06D90022074B1A7002E00022074B1A70044B1B78DBB2064AD45CE4B293
:40228000FFF716FF204610BDF583FF1F0F84FF1F0C84FF1F0484FF1F08B501E0094B1B78094B1B7813F0200FF8D1FFF72BFF0023064A1370064A1370064A1370FFF7F8FE36
:4022C00008BD00BF54640040636400400C84FF1FF583FF1F0F84FF1F08B500F051FD0E4B1A7842F001021A701A7802F0FE021A7000F04AFDFFF700FF0023084A1370084A3D
:402300001370084A1370084A137803F0FB031370FFF7C8FE08BD00BF946400400084FF1F0D84FF1F0E84FF1F8564004070B506460C46002506E0705DFFF712FF0135EDB2DB
:40234000013CE4B2002CF6D170BD00BF08B501E00A4B1B780A4B1B7813F0200FF8D100F00FFD084B1A7842F001021A701A7802F0FE021A7000F008FD08BD00BF5464004023
:40238000636400409464004010B50F22174B1A70174C1023236004210846FFF777FA15490420FFF75FFA0823236004210320FFF76DFA11490320FFF755FAFFF7C7FF002443
:4023C0000E4B1C700E4B1C700E4B1C700E4B1C700E4B1C700E4B1C70FFF79AFEFFF7ACFE0C4B1C702022023B1A7010BD8464004080E100E035240000D52400000C84FF1F2F
:40240000F583FF1F0F84FF1F0084FF1F0D84FF1F0E84FF1F8564004008B5054B1B7823B9FFF7B2FF0122024B1A70FFF747FE08BD6C81FF1F28E01F4B19781F4A137803F019
:4024400009030B431370137813F0040F24D01B4B1B7813F0FF0F0CD1194A13780133DBB213701378DBB2072B06D90022144B1A7002E00022114B1A70114B1B78DBB2114ADC
:40248000D35CDBB2104A13700D4B1A78D2B20F4B1B78DBB29A42CED1094B1A78D2B20B4B1B78DBB29A4204D1094A137803F0FB031370704765640040F483FF1F0084FF1F46
:4024C0000D84FF1FF883FF1F446400400E84FF1F85640040204B1A7820490B7803F0400313430B7032E01E4B1A78D2B21D490B780133DBB20B700B78DBB2072B02D90021EF
:40250000184B1970174B1978C9B2174B1B78DBB299420ED114490B780133DBB20B700B78DBB2072B02D900210F4B197001210F4B19700C4B1B78DBB20D49CA54064B1A78F5
:4025400006490B7803F0400313430B70034B1B7813F0200FC7D17047636400401084FF1F546400400F84FF1FF583FF1F0C84FF1F0484FF1F054A137843F0020313701032FD
:40258000137843F002031370704700BFA2430040054A137843F0040313701032137843F004031370704700BFA2430040084A137843F0020313701032137843F0020313705E
:4025C00002F65932137843F001031370704700BFA3430040014B1870704700BF0F4F0040014B1880704700BF104F0040014B1880704700BF124F004008B5164A137803F000
:40260000010313700232137803F0FC031370124B1A7802F0CF021A701A7842F030021A701A7802F0F0021A701A7842F00F021A700A4A137843F0010313704FF6FF70FFF781
:40264000CFFF4FF6FF70FFF7D1FF0020FFF7C2FF08BD00BF0C4F0040174F00400D4F004008B5054B1B7823B9FFF7C6FF0122024B1A70FFF79BFF08BD6D81FF1F024B1B8858
:40268000024B188880B27047124F0040144F004010B59DF80840012C51D1013809282ED8DFE800F0052D2D052D2D0F192D230F2B03D92548007840B222E02448007840B2ED
:4026C0001EE00F2B03D92248007840B218E02148007840B214E00F2B03D91F48007840B20EE01E48007840B20AE00F2B03D91C48007840B204E01B48007840B200E000200F
:4027000001EB401101FB02F1C90B8AB20D2B0BD8C3F10E0289B211418AB2611E124800EB810101338B7005E0631E0F4901EB83030F219970013C0C4B23F8242010BD0020F7
:40274000FFF76EF810BD00BF180100491C010049190100491D0100491A0100491E0100491B0100491F0100497081FF1FF8B5074600F006FB06460D4D2B7843F003032B702E
:402780000B4C237843F0030323700A4B1F700320FFF75EF82B7803F0FC032B70237803F0FC032370304600F0EFFAF8BDF8460040F9460040925800400022314B1A7101283B
:4027C0005CD170B538222F4B1A70042202331A70062201331A70002401331C7001331C700F2201331A7002331C7001331C7001331C7001250A331D70142203F527631A7058
:40280000052601331E70162201331A7001331C70442203331A70482201331A7001331D7002331C7001331C700A2201331A70432201331A705220FFF799FF5822124B1A70F7
:4028400001331C7005331E70022201331A7001331C7001331C70204600F074F933220B4B1A602946304600F091F92946BA2000F011FA07491D20FEF7F5FF70BD704700BFCC
:402880007081FF1F004E0040945800401484FF1F212B0000F0B583B0284D01272F70284E00247471102000F05FF9102000F0E0F907211D20FEF7EAFF0422224B1A700133B5
:4028C0001C7007331C70204A137843F0180313701E4B1C7003F2F5231C7001331C700A22A3F209331A7001331C7002331C70122205331A70132201331A7004331C70142288
:40290000A3F68C231A70009708234FF4004248F66B510220FFF7BCFE2B78013B06EB83039A780B4B1A702B78013B36F82320094B1A802878FFF740FF03B0F0BDE080FF1F79
:402940007081FF1F96580040075B0040935800400E4E00400C4E004070B500F011FA06462A4B1B782A4B1A7842F001021A701A7842F010021A7010331A7842F001021A70E9
:402980001A7842F010021A70224D2B7843F002032B70214C237843F0020323701F4A137843F0030313700320FEF752FF2B7803F0FD032B70237803F0FD032370184A1378A7
:4029C00043F0060313707A22164B1A70164A137843F0010313701032137843F0010313700F3A137843F0010313701032137843F0010313704FF000530C4A1360A2F5C0722C
:402A00001360304600F0C0F970BD00BFE080FF1FAA430040F8460040F9460040915800407758004082580040A143004080E200E008B5084B9B794BB9064BDB7913F0FF0FDA
:402A400001D1FFF727FF0122024B9A71FFF784FF08BD00BF7081FF1F024A137843F0010313707047004E0040024A137803F0FE0313707047004E0040094B1B7913F0FF0F7F
:402A800003D0074B5B79DBB203E0064B1B7803F00103012B01D00028EED01846704700BF7081FF1F014E00400E4B1B7803F00303012B03D80C4B188880B209E00A4A1278A1
:402AC0000A49087842EA0020032B01D1084B1B78084B1B7913F0FF0F02D00022054B5A7100B27047144E0040104E0040114E0040124E00407081FF1F10B5084A137843F0FE
:402B000004031370FFF7A8FF0020FFF7B5FFFFF7CBFF0446FFF7A8FF204610BD014E0040704700BF10B5002404E02046FEF77CFB0134E4B2012CF8D9FF22014B1A7010BD99
:402B4000E180FF1F10B50446FFF7ECFF2046FEF75DFB014B1C7010BDE180FF1F014B188880B2704780400040034B1A7800F0F80010431870704700BF82400040024B187842
:402B800000F00700704700BF8240004070B505460E46FFF7F3FF0446FFF7E0FFA84256D02B4B1B7803F0010294B900B185B938B9284B1D80284A137803F0BF03137070BD2D
:402BC000254A137843F040031370224B1D8070BD22B3002321490B7001240F310C7004310B700C390B7803F07F030B701A4B1B7813F0080F00D08DB9194B18800721013BFD
:402C00001970164B1B7813F0010FFAD110490B7803F0FE030B700021104B19700C4B1B7813F0010F0DD00E4B1D800EB1032200E001220A4B1A70094B1B7813F0010FFAD18E
:402C400070BD044B1D8002490B7813430B7070BDA243004080400040824000400140004002400040014B188880B2704700410040034B1A7800F0F80010431870704700BFD6
:402C800002410040024B187800F00700704700BF0241004070B505460E46FFF7F3FF0446FFF7E0FFA84256D02B4B1B7803F0010294B900B185B938B9284B1D80284A1378B0
:402CC00003F0BF03137070BD254A137843F040031370224B1D8070BD22B3002321490B70012413310C7004390B7008390B7803F07F030B701A4B1B7813F0080F00D08DB9EF
:402D0000194B18800721013B1970164B1B7813F0010FFAD110490B7803F0FE030B700021104B19700C4B1B7813F0010F0DD00E4B1D800EB1032200E001220A4B1A70094B9E
:402D40001B7813F0010FFAD170BD044B1D8002490B7813430B7070BDA143004000410040024100400140004002400040000000000230800803D000BF01380046FCD1704783
:402D8000EFF3108072B6704780F31088704700BF014B1868704700BF4481FF1F0E4B70B51E460E4C0025E41AA410A54204D056F8253098470135F8E700F008FE084B094C19
:402DC0001E46E41AA4100025A54204D056F8253098470135F8E770BDD8390000D8390000D8390000E039000010B5431E0A44914204D011F8014B03F8014FF8E710BD03461D
:402E00000244934202D003F8011BFAE7704700000EB400B54FF402719CB0ADF814106FF00041049107914FF6FF711DAB02900690084853F8042BADF81610006802A9019306
:402E400000F064F8029B00221A701CB05DF804EB03B070474481FF1F2DE9F0478E6882469E420C46914698463ED88A8912F4906F3AD02568096902236F1A656905EB450581
:402E800095FBF3F57B1C43449D4238BF1D4653050FD5294600F040FB064698B13A462169FFF7A2FFA38923F4906343F08003A38113E02A4600F08EFB064670B921695046B6
:402EC00000F0DEFA0C23CAF80030A3894FF0FF3043F04003A381BDE8F08726613E44266046466561ED1BA560464528BF464649463246206800F0A8FAA36800209B1BA360A8
:402F000023681E442660BDE8F08700002DE9F04F9DB003938B8980461C060D4616460DD50B695BB9402100F0F7FA2860286118B90C23C8F80030CDE040236B6100230993D7
:402F400020238DF82930DFF89CB130238DF82A3037463C4614F8013B1BB9B7EB060910D003E0252BF9D02746F3E74B46324629464046FFF771FF013000F0A780099B4B440C
:402F800009933B78002B00F0A08000234FF0FF3204930793059206938DF853301A930126052221784E4800F041FA671C049B38B14B4A3C46801A06FA00F018430490EFE7C5
:402FC000D90644BF20228DF853201A0744BF2B228DF8532022782A2A03D0079A00210A200BE0039A111D12680391002A10DA524243F00200079204900BE027463B78013491
:40300000303B092B03D800FB02320121F5E701B107923B782E2B1ED17B782A2B0AD1039B02371A1D1B680392002BB8BF4FF0FF33059310E0002319460593781C0A24074696
:403040003A780130303A092A03D804FB01210123F5E703B1059103223978224800F0E6F940B14023CBEB000003FA00F0049B013718430490397806221B487E1C8DF828102B
:4030800000F0D4F988B1194B33B9039B073323F007030833039314E003AB00932A46144B04A94046AFF3008007E003AB00932A460F4B04A9404600F093F8B0F1FF3F824664
:4030C00003D0099B5344099342E7AB895B0601D4099801E04FF0FF301DB0BDE8F08F00BF963900009C390000A039000000000000592E00002DE9F04791461F460A698B6800
:4031000006469342B8BF1346C9F8003091F843200C46DDF8208012B10133C9F800302368990642BFD9F800300233C9F80030256815F0060510D104F1190A07E00123524687
:4031400039463046C04701301AD00135E368D9F800209B1A9D42F1DB94F843302268003318BF012392060FD5E118302081F843005A1C94F845102244023382F8431003E08C
:403180004FF0FF30BDE8F08704F1430239463046C0470130F4D02268D9F80050E36802F00602042A08BF5D1B2269A3680CBF25EAE57500259342C4BF9B1AED184FF00009B4
:4031C0001A344D4509D00123224639463046C0470130D5D009F10109F3E70020BDE8F0872DE9F04317460A7E85B06E2A984606460C460C9B01F1430E00F0AE8011D8632AA9
:4032000022D009D8002A00F0BB80582A40F0CA8081F84520834955E0642A1ED0692A1CD0C0E0732A00F0B08009D86F2A2ED0702A40F0B8800A6842F020020A603EE0752ACC
:4032400024D0782A3AD0ADE01A6801F14205111D1960136884F84230A8E021681A6811F0800F02D0111D196008E011F0400F02F10401196002D0B2F9003000E01368002BDE
:403280003CDA2D225B4284F8432037E021681A6811F0800F02D0111D196007E011F0400F02F10401196001D0138800E01368227E5C496F2A14BF0A2208221BE078225A4954
:4032C00084F845202268186812F0800F00F104051D6003D1550601D5038800E00368D00744BF42F0200222601BB9226822F0200222601022002084F8430001E049490A228C
:403300006568002DA56008DB206820F0040020602BB9002D7DD175460CE0002B79D07546B3FBF2F002FB1033CB5C05F8013D03460028F5D1082A0BD12368DA0708D523690E
:4033400062689A42DEBF302305F8013C05F1FF35C5EB0E0323612EE008681A6810F0800F496903D0101D1860136808E010F0400F02F104001860136801D0198000E01960F6
:4033800000232361754616E01A68111D1960156800216268284600F049F808B1401B6060636804E004F1420584F8422001232361002384F84330CDF800803B4603AA214654
:4033C0003046FFF797FE013002D14FF0FF3026E023692A4639463046C0470130F5D023689B0710D5002504F1190907E001234A4639463046C0470130E7D00135E368039A7B
:403400009B1A9D42F2DBE068039B9842B8BF184605E00B7804F1420584F842308AE705B0BDE8F083A7390000B839000010B5C9B202449042034605D01C7801308C42F8D123
:40344000184610BD002010BD884210B501EB020301D8421E0BE09842FBD28118D21AD34204D013F8014D01F8014DF8E710BD994204D011F8014B02F8014FF8E710BD000035
:4034800038B50546002944D051F8043C0C1F002BB8BFE41800F0D4F81E4A1368114613B96360146030E0A3420DD92268A018834201BF18685B681218226063600C6023E089
:4034C000A24203D813465A68002AF9D118681918A1420BD12168014458188242196013D110685268014419605A600DE002D90C232B6009E021686018824201BF1068526863
:403500000918216062605C602846BDE8384000F098B838BD8081FF1F70B5CD1C25F0030508350C2D38BF0C25002D064601DBA94202D90C23336046E000F082F8234B1C6864
:403540001A462146A1B10B685B1B0ED40B2B03D90B60CC18CD501EE08C420BBF63684B681360636018BF0C4615E00C464968E9E7174C23681BB9304600F052F8206029464D
:40358000304600F04DF8431C18D0C41C24F00304A0420DD12560304600F053F804F10B00231D20F00700C31A0ED05A42E25070BD211A304600F034F80130EBD10C2333609F
:4035C000304600F03EF8002070BD00BF8081FF1F7C81FF1FF8B5074615460E4621B91146BDE8F840FFF798BF1AB9FFF749FF2846F8BD00F027F885420ED929463846FFF711
:403600008BFF044650B131462A46FFF7EDFB31463846FFF735FF01E03046F8BD2046F8BD38B5064C0023054608462360FDF7B8FE431C02D1236803B12B6038BD1884FF1FD7
:403640007047704751F8040C0028BEBF091851F8043CC0180438704700000000206F00002242000023800000244000002E400000302A000032640000331400002A2A2A2A22
:403680002A2A2A2A2A202020204C49533344482054455354202020202A2A2A2A2A2A2A2A2A0D0A0057484F20414D2049205245473A20307825303258205B457870656374D8
:4036C00065643A20307833335D0D0A002A2A2A2A2A2A2A2A2A2A2A2A2A2A2A2A2A2A2A2A2A2A2A2A2A2A2A2A2A2A2A2A2A2A2A2A2A0D0A00535441545553205245473A20C0
:40370000307825303258200D0A0000004354524C20524547313A20307825303258200D0A000000004354524C20524547312041465445522057524954453A20307825303225
:4037400058200D0A000000004354524C20524547333A20307825303258200D0A000000004354524C20524547332041465445522057524954453A20307825303258200D0A81
:40378000000000004354524C20524547343A20307825303258200D0A000000004354524C20524547342041465445522057524954453A20307825303258200D0A00000000CE
:4037C0004354524C20524547353A20307825303258200D0A000000004354524C20524547352041465445522057524954453A20307825303258200D0A000000002D2D2D2DD8
:403800004649464F20464C555348494E472D2D2D2D2D0D0A000000002A2A2A2A2A2A2A2A2A4649464F20464C55534845440D0A004649464F204354524C205245473A20300B
:403840007825303258200D0A000000004649464F204354524C205245472041465445522057524954453A20307825303258200D0A00000000494E54312043464720524547E4
:403880003A20307825303258200D0A00494E543120434647205245472041465445522057524954453A20307825303258200D0A00494E543120544853205245473A20307866
:4038C00025303258200D0A00494E543120544853205245472041465445522057524954453A20307825303258200D0A00494E5431204455524154494F4E205245473A20300A
:403900007825303258200D0A00000000494E5431204455524154494F4E205245472041465445522057524954453A20307825303258200D0A00000000035B004024430040BF
:4039400040000000004F00401800405100403000F0510040100000000140000480040140800B00140140000480180140800300400140000A004C01400002005001402000B9
:4039800000040140BC0900488000001801403C0A004880004300232D302B2000686C4C0065666745464700303132333435363738394142434445460030313233343536375E
:4039C000383961626364656600000000F8B500BFF8BC08BC9E4670474D0000001D140000F8B500BFF8BC08BC9E46704729000000003A0000C880FF1F80000000D802000062
:403A0000000000002084FF1F0000E02EC05D00001800000000366E0101FF00000000000000000000000000000000000000000000000000000000000000000000943900000F
:403A4000000000000000000000000000000000000000000000000000000000000000000000000000000000000000000000000000000000000000000000000000E480FF1FC4
:403A80000000000000000000000000000000000000000000000000000000000000000000000000000000000000000000000000000000000000000000000000000000000006
:403AC00000000000000000000000000000000000000000000000000000000000000000000000000000000000000000000000000000000000000000000000000000000000C6
:403B00000000000000000000000000000000000000000000000000000000000000000000000000000000000000000000000000000000000000000000000000000000000085
:403B40000000000000000000000000000000000000000000000000000000000000000000000000000000000000000000000000000000000000000000000000000000000045
:020000040003F7
:0200000480007A
:40000000044F00400652004005640040046500406100014034010140630201404E0301400E04014055050140630601404E07014003090140040A0140030B0140010D01408B
:40004000010F01405B140140461501405716014050170140101801403E1901400B1B0140084001400D410140174201400B43014005440140064501400546014007470140B3
:40008000054801400B4901400A4C0140074D0140065001400251014001600A4B0D70164B0060014018A019806088618C8038810D820D840F870F840F850D860F8872009A1F
:4000C0000360042106D80780083809100AC00C020D10101312641310140215021698171D18FC19101A031C9A1D10214323942498260229A32B4C2C982DC12E022F3A3013ED
:4001000031E032E0331F340F3A283B085418580459045B045C125D305F0182018330850B860287048A018D088F0197309906A105A30AAB10B110B307B401B520B602B7080A
:40014000B988BE10BF11C036C104C5ECC620C80BC9FFCAFFCBFFCF01D018D280D401D804D904DA04DB04DC14DD66DE80DF05E040E240E440E540E680E880EA80EC80EE80B9
:4001800002010368042A09A00A6011441A401B2E1E0621092310268027A829102B812E202F8030A23108340835043720388039123A043C46450147084D014F2456205710F3
:4001C00058015D015F846140622074017C088901C07FC20FC405CAADCC6FCEDFD0C0D220D6D1D80CDE40E2220002051406010729190E1C081E062535270A2D132F24300445
:400200003208330F340235103601372039083E043F504050410345D24601480749FF4AFF4BFF4DA04F04501852805405580459045A045B045C265D555F01604062C0644088
:40024000654066C068C06AC06CC06EC08042814082948411858D862289428B088CE28E188F80908D91029210930D9402960D998D9C9D9D0D9F80A09DA18DA49DA562A714DD
:40028000A81DA98DAA80AC80AD11AE40AF22B0F0B10FB20FB380B570BA0BBB22BF04D440D604D804D904DB04DC21DD20DF01004403800420050907080A100B810E0110A0C5
:4002C0001110120218401A101B011D011E091F0420082132220825102640272028042A022B222F2231023250372039243A413C08470848024B804C114D0254405C805D023F
:400300005E0462586340778081089204931094EE95549620976098209C019D549E059F40A281A336A4A2A5A1A620A781AC21AF10B340C03DC28DC40FCA5FCC2DCE4FD04002
:40034000D210D6D0D80FE604EA20840186029602A602B202B601BE40D409D604D804DB04DC06DD20DF0100440380050409020B010C020D020F2010A01110120214201804CB
:4003800019901A401B881E201F402104220123022A022B2631083211334039A440024104432248044908510952515D285E805F0262086680674069C56AA06B4071807202BB
:4003C0007D027F408404850187408B049040912092019318948E955496A2972198209B809C859D549E579F40A044A110A245A336A4A2A581A622A780AE81C02DC229C42F3E
:40040000CA0FCC0FCE0ED00FD204D6F0D892E28101140602081F111C1302141F15201703180819101A111B0C1C101D091E0D1F10210C23112D10320633203401351F361895
:400440003F0440244101450E46C047B0482949FF4AFF4BFF4EF04F44500C54095604580459045A045B045C365D135F0166C06A406B0289098B368F209502970DA505A73A36
:40048000AD13AE01AF0CB30FB601B730BB08C054C102C210C406C50EC6FDC7CBC83DC9FFCAFFCBFFCC22CEF0CF0CD004D602D728D804D904DA04DB04DC25DD11DF01E2C0DB
:4004C000E440E501E610E711E8C0E901EB11EC40ED01EE40EF0105140D800E28138018021A011D941F1021402208242027042B222E8232083501375439A03F0240454440A5
:400500004602471049A04B044D0851205246562057015C015E505F0463106402660168A26915704073018201852088028B088D409044912092409310948A951097219980BE
:400540009B809C819D449E04A040A215A32AA4A2A62AA910AA80AD21AE01B002C060C2E0C401CA9ACCF2CE8CD0BDD20CD6F0D892E612B440E602EA20B90ABF05D904DF0174
:40058000248027208320E604E20202020A010E020F01110226012706310432013301350236023E444030410645D246504701481B49FF4AFF4BFF4DA04F04501852805407FD
:4005C000580459045A045B045C405D445F01604062C06440654066C068C06AC06CC06EC086098A0C8B0E910897029A029C01A602AA04AF01B001B108B204B302B402B5019B
:40060000B608B704BE10C020C103C5D2C610C80BC9FFCAFFCBFFCDA0CF04D018D280D405D804D904DA04DB04DC44DD44DF01E040E2C0E440E540E6C0E8C0EAC0ECC0EEC0ED
:400640000012030204180C100E020F0410201520170419441E681F802010210222102440251827062B202E803020311237063B403F20401044104510482049114F055004AD
:4006800051105320571059055A605C405E085F0173407680838086108B088D0894089D40A001A201A302A708A880AA01AB31AF04B010B202B702C06BC2C0C464CA12CCC13D
:4006C000CE28D062D204D6DFE610EE08006C018002030315048009030B140C310E0E0F08110A135419531B0C1E132208272028312A462B202D532E4C2F04300F31C03230A8
:40070000330F34803520364A3710380839023A823B083E143F504003460449FF4A074BFF4C404D204EF04F0550085401580459045A045B045C335D335F01604061A8624064
:40074000632080048109850989098D098E07930997149B049E01AB02AF01B002B106B201B301B404B510B708BF45D440D604D804D904DB04DC35DD10DF0100800102058936
:40078000060207200A010C400F021680175019021A201B101D091E081F402001220A230424402660275028082A402D802E042F043012330835013710388039153C403E300F
:4007C0003F02450849804B804F0256805E985F01612062498408870488018A048E10908091159201940999089A609CC09D419E829F50A042A120A201A620AA12AC01B4105F
:40080000C0B9C281C4D0CA7CCCA7CEBFD040D6F0D80FE002E608EA02EC108108893F993F9D019F06A124A311AD12AF21B308B530B707BB02D904DC30DF01041005420610E4
:400840000C810D200E800F10144017181C901D401F28200A2242231025242706288129022C852F0830603240356036023704380239103EA84404450447014D204E024F10E3
:40088000550857015F026C216D107480762877188401868089088B01A440AC40C0F0C2F0C470CAB9CCFCCE75D0E0D230D680E040E280E620EC508A40A640AE12AF20B0841C
:4008C000B301B504E220EA20EC20EE40328137223B2087208980CCF0CE10E24031203710652066809720A180A680AE01B302CC30D680D880EE401280530455805F016302B2
:40090000830187108B01930897209E809F10A180A520A680AD20AF04C410D460D6C0E280E640EE50620883108E809E809F10A208A520AE08D840E220EA1013047C018704D1
:40094000C408DE010144538081409401C00AD404450291049401A780D0018480A502A780B104B401EA04EC0827049F04A520B704C820630266046702830187018E04A92060
:40098000D6C0D880E630EA2008808F809C80A002A780B402B502C202E002EC0A122074028A20A002C408DE04E204007E087E0A6E103A1A3A1C0800FF013F000081007400AA
:4009C00063848C00005600092304D8802201500000600000008000047284000072840000720A00105004220022070038807F018060001F808002000000000544260430005C
:400A0000010EFDCB3DFFFFFF2200F008040000000000022804040404212200010000C00040011011C00100114001400100000000000000000000000000000000840000000F
:400A4000FF020000E70618001E00E140427F0000004FE6201800E731104E0011C6040000080000001879000600400000C0001E070176380820008820000000402605030001
:400A8000040000CE30FFFFFF62A0F0410C000000000002130404040433330001000000000000400200103010001010120000000000000000000000000000000000606000E8
:400AC000600000008400508C8C008C00000000008000408B8B00000000000000140001161200020000000000E00000E0E000E00008000000BB0018010000000000000000AD
:400B000000000000000000000000000000000000000000000000000000000000000000000000000000000000000000000000000000000000000000000000000000000000B5
:400B40000000000000000000000000000000000000000000000000000000000000000000000000000000000000000000000000000000000000000000000000000000000075
:400B80000000000000000000000000000000000000000000000000000000000000000000000000000000000000000000000000000000000000000000000000000000000035
:400BC00000000000000000000000000000000000000000000000000000000000000000000000000000000000000000000000000000000000000000000000000000000000F5
:0200000490006A
:0400000000004005B7
:0200000490105A
:04000000BC90ACAF55
:0200000490303A
:020000003F625D
:0200000490402A
:4000000000000000000000000000000000000000000000000000000000000000000000000000000000000000000000000000000000000000000000000000000000000000C0
:400040000000000000000000000000000000000000000000000000000000000000000000000000000000000000000000000000000000000000000000000000000000000080
:400080000000000000000000000000000000000000000000000000000000000000000000000000000000000000000000000000000000000000000000000000000000000040
:4000C0000000000000000000000000000000000000000000000000000000000000000000000000000000000000000000000000000000000000000000000000000000000000
:0200000490501A
:0C00000000012E16106900012E2F4FCBBE
:00000001FF