:400000000080002011000000D5120000D512000008B5044B1A6803F53F5302331A6001F061F900BFFA46004010B5054C237833B9044B13B10448AFF300800123237010BD4E
:400040004881FF1F00000000602D0000084B10B51BB108490848AFF300800848036803B910BD074B002BFBD0BDE81040184700BF000000004C81FF1F602D0000C880FF1FE8
:40008000000000002DE9F047ACB062B601F006FB01F0EAFE02F050F90A2001F053FB01F00BFC01F0F1FC02F065FA02F041FC00F05FFD00F019FC434801F088F9424801F0F1
:4000C000AFFA424801F008FD414802F0E9FD0A2001F038FB00243F4B1C70204600F0EEFA3D4B1C703D4B1C703D4B1C70394B1B78DBB2012B06D013B1022B07D00EE000F028
:40010000DFFB0BE0374800F06DFC07E0324C207800F08EFE2070207800F004FC2F4B1B78DBB2012B12D12F4C204600F06FFD204600F084FD00F0A6FA012802D1204600F0F2
:40014000FFFD00F02FFE0022244B1A70244B1B78DBB2012BCAD100F00BFB8046312000F051FC814600F0B8FE8246312000F04AFC10F0400FF9D100261CE00DAC314620461E
:4001800000F0A4FD1CAF009453464A464146384600F084FE6C4620AD0FCD0FC40FCD0FC495E80F0084E80F0097E80F0000F016FB0136F6B2042EE0D900F0F4FD0022084B1C
:4001C0001A7093E7E9010000550200009D020000CD0200006283FF1F6183FF1F6383FF1F6083FF1F7C81FF1F10B5184B1B78DBB2022B0FD0154B1B78DBB2012B01D100F065
:4002000073FC0222114B1A70012000F071FA00F003FE10BD00F02EFA0C4C2070002000F067FA237813F0FF0F02D100F0DFFD08E0064B1B78DBB2012B03D100F0E1FD00F038
:400240009DFC034B187800F06DFA10BD6283FF1F6183FF1F08B5104B1B78DBB2012B0AD100F042FC002000F029FA00F0BFFD0022094B1A7008BD084B1B7813F0FF0F09D1FC
:4002800000F07CFC012000F019FA00F0B9FD0122014B1A7008BD00BF6283FF1F08B52F2000F0B0FB10F0400F02D00122054B1A70312000F0A7FB10F0400F02D00122024B53
:4002C0001A7008BD6383FF1F6083FF1F2DE9F041A0B001F0F1F90446012001F033FAA4F143000F2838D8DFE800F013373737373737373719370E3737370800F0C3FA4B20EB
:4003000001F0F0F928E000F033FA01F0EBF923E0002000F033F901F0E5F91DE001F0CCF98046002716E03A464146684600F08EFA6C4610AEB646354620686168A268E3688B
:400340000FC510342E467445F5D110A800F014FE0137FFB2042FE6D920B0BDE8F08100BF10B50446002001F0B5FA204601F020FC002001F01DFC01F0F3FB10F0010FFAD013
:4003800001F080FC01F07EFC0446012001F0A2FA204610BD2DE9F04383B006460C4617469846002001F096FA64B2002511E02146082CA8BF0821C9B206EBC50001F0DEFCF1
:4003C00001F0CEFB10F0010FFAD0083C64B201356DB2002CEBDC01F0E1FC01F085FC0026009601964FFA88F820E0C146B8F1080FA8BF4FF008095FFA89F1684601F0BEFCC1
:4004000001F0AEFB10F0010FFAD0002406E004EBC60501F037FC78550134E4B24C45F6DBA8F108084FFA88F8013676B2B8F1000FDBDC012001F04EFA01F0B0FC01F054FCEE
:4004400001F072FC03B0BDE8F08300BF10B50446002001F04BFA204601F012FE01F0E8FD10F0080FFAD001F075FE0446012001F03DFA204610BD00BF10B50446002001F007
:4004800035FA204601F0FCFD002001F0F9FD01F0CFFD10F0010FFAD001F05CFE01F05AFE0446012001F022FA204610BD2DE9F04383B006460C4617469846002001F016FA6A
:4004C00064B2002511E02146082CA8BF0821C9B206EBC50001F0BAFE01F0AAFD10F0010FFAD0083C64B201356DB2002CEBDC01F0BDFE01F061FE0026009601964FFA88F89F
:4005000020E0C146B8F1080FA8BF4FF008095FFA89F1684601F09AFE01F08AFD10F0010FFAD0002406E004EBC60501F013FE78550134E4B24C45F6DBA8F108084FFA88F8AF
:40054000013676B2B8F1000FDBDC012001F0CEF901F08CFE01F030FE01F04EFE03B0BDE8F08300BF08B50520FFF786FF08BD00BF08B50620FFF76AFF08BD00BF00B583B0E4
:4005800003218DF80410030A8DF805308DF8060002AA002302F8053D012301A8FFF786FF9DF8030003B05DF804FB00BF30B583B004460D46FFF7DCFF02238DF80430230AEA
:4005C0008DF805308DF806408DF80750002302AA02F8053D04210DEB0100FFF767FF03B030BD00BF10B582B003248DF80440030A8DF805308DF8060013460A46214601A8C4
:40060000FFF754FF02B010BD2DE9F04182B000AF054688461446FFF7ABFF012001F0A8F8E61C04F10A0323F00703ADEB030D02238DF800302B0A8DF801308DF80250224638
:4006400041460DF1030002F077FB002307F1080202F8013DF1B26846FFF728FF0837BD46BDE8F08108B5FFF77DFF10F0010FFAD108BD00BF08B50020FFF780FF00F001009A
:4006800008BD00BF08B50020FFF778FFC0F3800008BD00BF10B504460020FFF76FFF012C03D140F00801C9B201E000F0F7010020FFF77CFFFFF7D6FF10BD00BF10B50446AD
:4006C0000020FFF75BFF012C03D140F00104E4B201E000F0FE0421460020FFF767FFFFF7C1FF14F0080F02D00020FFF7D3FF10BD10B504460020FFF741FF012C03D140F01A
:400700000204E4B201E000F0FD0421460020FFF74DFFFFF7A7FF14F0080F02D00020FFF7B9FF10BD10B504460020FFF727FF012C03D140F00404E4B201E000F0FB0421460D
:400740000020FFF733FFFFF78DFF14F0080F02D00020FFF79FFF10BD10B51620FFF70EFF000284B20820FFF709FF204380B210BD08B5FFF7F1FF034BA3FB0030C0F387008A
:4007800008BD00BFCDCCCCCC00B583B0FFF7E4FFB0F5007F0DD2013080B28DF80400000A8DF80500022201A90820FFF72DFFFFF759FF03B05DF804FB10B50446FFF7CCFF03
:4007C0000130800180B247F6BF73984205D840222146FFF719FFFFF745FF10BD84B000B591B00DF1480E8EE80F007146684600F07FFB6846FFF7E0FFFFF7C6FF11B05DF8EB
:4008000004EB04B0704700BF38B50546402405E04034A4B247F6FE739C4206D82046FFF7ADFEA842F4D1204638BD4FF6FF7038BD38B5054614460846FFF7E6FF00EB8410F6
:400840004022294680B2FFF7CDFE38BDF0B5A1B0074610A8FFF7ECFF10A9684600F06AFB6C463D460DF1400E26460FCE28606960AA60EB60344610357645F5D1384621B028
:40088000F0BD00BF30B591B040220021684602F05EFA012400250AE0402269462846FFF7B3FEFFF7DFFE4035ADB20134A4B2B4F5007FF1D30120FFF7EDFE11B030BD00BF44
:4008C00008B500F00DFE10B1002000F0A1FD00F00DFE10B1002000F0A1FD00F081FE10B1002000F01DFE08BD08B500F0A9FD10F0800F01D100F0E6FD00F024FE10F0800F1F
:4009000001D100F05FFEFFF7DBFF08BD10B50446007800F07DFDA07800F080FD607800F0FFFD10BD00B583B000238DF8043040428DF805008DF8063001A8FFF7E7FF03B039
:400940005DF804FBF0B482B00026ADF80060ADF80260ADF8046015E006EB46056B00013365002B44C75602AB2B4433F8085C3D4423F8085C0134E4B200E00024022CEBD9E5
:400980000136F6B29642F8D3002309E002A800EB430030F9080C90FBF2F0C8540133DBB2022BF3D902B0F0BC704700BFC31718445840C0B2704700BF70B5054600240EE045
:4009C0002E192857FFF7F2FF285510F0800F01D07F232B5533785B0033700134E4B2022CEED970BD10B5064C20222146FFF7AAFF2046FFF7E1FF2046FFF788FF10BD00BFAB
:400A00003C82FF1F08B540F08000FFF7A9FC08BD10B582B000248DF8074020238DF8043068238DF8053023460DF10702022101A8FFF7B0FC22238DF804308DF805402346D6
:400A40000DF10702022101A8FFF7A4FC23238DF8043080238DF8053023460DF10702022101A8FFF797FC24238DF8043040238DF8053023460DF10702022101A8FFF78AFC17
:400A80002E238DF804308DF8054023460DF10702022101A8FFF77EFC30238DF804308DF8054023460DF10702022101A8FFF772FC32238DF8043064238DF8053023460DF18A
:400AC0000702022101A8FFF765FC33238DF8043014238DF8053023460DF10702022101A8FFF758FC02B010BD10B582B000248DF8074020238DF8043068238DF80530234634
:400B00000DF10702022101A8FFF744FC22238DF804308DF8054023460DF10702022101A8FFF738FC24238DF804308DF8054023460DF10702022101A8FFF72CFC2E238DF884
:400B400004308DF8054023460DF10702022101A8FFF720FC30238DF804308DF8054023460DF10702022101A8FFF714FC02B010BD08B5FFF74DFFFFF7B7FF08BD30B583B00A
:400B800000248DF8074020238DF804306F238DF8053023460DF10702022101A8FFF7FAFB22238DF8043042238DF8053023460DF10702022101A8FFF7EDFB24238DF804309F
:400BC00040258DF8055023460DF10702022101A8FFF7E0FB2E238DF804308DF8055023460DF10702022101A8FFF7D4FB30238DF804302A238DF8053023460DF1070202211E
:400C000001A8FFF7C7FB03B030BD00BF30B583B00546E8238DF8073000240AE004EB44035A0006232A4401210DF10700FFF7B2FB01341F2CF2DD03B030BD00BFF0B5A5B023
:400C4000002308E000EB4302517824AA1A4402F8601C0133DBB25F2BF4D900211DE001EB41035A0024A8104410F8604C24A8184400F8904C581C541C24AD2C4414F8604C61
:400C8000284400F8904C023302322A4412F8602C2B4403F8902C0131C9B20F29DFD90A48A0F13004F022214602F046F86E460CAF35460FCD20606160A260E3602E46103400
:400CC000BD42F5D125B0F0BD7082FF1F70B50131C9B2052915D104463C22002102F037F8164B204603F130021E685D689C68D968066045608460C160103310309342F3D124
:400D000070BDA1EB01118B0003F590720B4B134403F130021E685D689C68D968066045608460C160103310309342F3D119685A689B6801604260836070BD00BF4082FF1FDC
:400D400010B59AB0A0238DF86030C0238DF86430002308E000EB430251781AAA1A4402F8681C0133DBB25F2BF4D9002415E004EB44031344013B1AA90B4413F8681C1AAB8C
:400D8000134403F8081C013200E00122032AEEDD052118A800F0B2FC01341F2CF5DD1AB010BD00BF30B583B02E238DF8043000248DF8054002AD05F8054D23462A46022159
:400DC00001A8FFF7E7FA012000F0D2FC064B1B88ADF800308DF8034023462A4602216846FFF7D8FA03B030BD642D000008B500F0B7FD10F0800F01D000F08CFD08BD00BFA2
:400E000008B500F0ADFD10F0800F01D100F0E6FDFF2000F093FD08BD08B500F0A1FD10F0800F01D100F0DAFD7F2000F087FD08BD38B5054601F090FD002001F09DFD01F026
:400E4000DBFD044601F090FDFF2C02DC002C03DA01E0FF2400E00024E4B23F2C03D9BE2C02D9012500E00025284638BD70B40B46043030311E685D689C68DA6806604560E2
:400E80008460C260103310308B42F3D119685A689B6801604260836070BC7047F0B591B007468DF800108DF80120ADF8023016996846FFF7DBFF6C463D460DF1400E2646AA
:400EC0000FCE28606960AA60EB60344610357645F5D1384611B0F0BD08B501F01DFBC043024BA3FB0030C0F38F1008BDD34D621070B40B7803704B7843704B8883704B888D
:400F00001B0AC3700B1D043034311E685D689C68DA68066045608460C260103310308B42F3D119685A689B6801604260836070BC704700BF70B40B7803704B784370CA7842
:400F40008B7843EA022343800B1D043034311E685D689C68DA68066045608460C260103310308B42F3D119685A689B6801604260836070BC704700BF00B591B00146684629
:400F8000FFF7B6FF4021684600F0B8FB11B05DF804FB00BFFEE700BFF0B40022174611E050F82760F3B226F0FF0608E001EB420511F812406D78A5550132013BDBB2002B3D
:400FC000F4D10137252FEBD9F0BC70470A4B1B78DBB203F00701094A11701B09013213700822074B1A708023064A1370583213704422054B1A707047CF0100496E580040BC
:401000003D510040005B00407658004008B50A46002101F09CFE08BD08B501F08DFE08BD70B500243D4B1C80502202331A70032602331E8018233A4A1370023216800232E3
:40104000137019250232158002321370EF21023211800232137045F6BF51023211800232137047F22F530232138002321570023213802C4B1D7004222B492C48FFF7CCFF07
:4010800002222B4B1A7008224FF040231A7003F500731E70274B1B78DBB227490B70274B1A8041F25122023B1A800CE0244B1B7803F0010343EA440404F003044FF4F070BF
:4010C00001F0FEFD013D0DB1032CEFD115B90320FFF760FF1B4B4FF480721A8007221A70002219490A704820023108701A700222033B1A7004220A331A7003F297331A7826
:40110000FF221A70114A137843F001031370013A137843F08003137070BD00BF80400040864000409E400040780D0048004100400043004008010049A14600402242004067
:40114000254200400440004006400040A1430040012807D8044B53F820201844017A13780B431370704700BF682D0000012808D8044B53F820201844017A137823EA010324
:4011800013707047682D000038B572B63C4A137843F00403137000240BE03A4863001A19510001440A46098AD068FFF72FFF0134E4B20A2CF1D900240CE03248A200111960
:4011C0004B000344B3F85820596D186DFFF724FF0134E4B2022CF0D92B494FF09040FFF7DBFE0A24294B1C70294A03F52A4355331A60284A137843F0020313701032137835
:4012000043F002031370244D2B7843F040032B70A2F58632513A137843F01003137008221E491F48FFF7F8FE22461E491E48FFF7F3FE22461D491E48FFF7EEFE22461D49BC
:401240001D48FFF7E9FE22461C491D48FFF7E4FE1C4A137843F0080313701B4C61232370FFF7DEFE812323700122184B1A70FFF7ADFE0E2229461648FFF7CEFE38BD00BFC5
:40128000E8460040682D00009800004883580040040404C403500140A0430040400D004802510040480D0048C0510040540D004810510040600D0048205100406C0D004822
:4012C00030510040224300400048004004000840B043004008B501F003FD03680C2B00D1FEE7FEE708B5104E104D16E029686B68AC68002204E051F8040B43F8040B0432D2
:40130000A242F8D1E868002203E0002143F8041B04328242F9D11035013E002EE6D101F0E5FCFEF7AFFEFEE701000000FC2D000008B5104A104B1A60104A136843F4007315
:40134000136000230AE0032B03D80D4A52F8231000E00C490C4A42F8231001332F2BF2D90A4B1A780A4B1A70074A0A4B1A60FFF70BFF08BD0004FA050CED00E014ED00E057
:4013800000000000D51200000080FF1FBC760040C080FF1F08ED00E0014B1B681864704708ED00E04001C0B2014B1870704700BF00E400E00122014B1A60704700E100E00A
:4013C0000122014B1A60704780E100E010B50446FFF7F6FF2046FFF7DFFF0520FFF7E2FFFFF7E8FF10BD00BF024A137843F080031370704776650040014B1870704700BF47
:4014000005650040014B1870704700BF45650040014B1870704700BF25650040014B1870704700BF35650040014B1870704700BF86650040014B1878704700BF66650040C4
:40144000014B1878704700BF76650040014B1878704700BF5565004008B501E0FFF7F6FFFFF7E8FF10F0100FF8D108BD08B5134A137803F0C00343F0240313701F3213788C
:4014800043F001031370FF20FFF7B6FFFF20FFF7B9FFFF20FFF7BCFFFF20FFF7BFFF0020FFF7C2FF01F014FC054A137843F01003137001F011FCFFF7CFFF08BD766500401B
:4014C0009665004008B5054B1B7823B9FFF7CEFF0122024B1A70FFF787FF08BD6481FF1F014B1878704700BF25650040014B1878704700BF35650040024A137843F080035F
:401500001370704774640040014B1870704700BF07650040014B1870704700BF47650040014B1870704700BF27650040014B1870704700BF84640040014B1878704700BF53
:4015400064640040014B1878704700BF74640040014B1878704700BF5765004008B501E0FFF7F6FFFFF7E8FF10F0100FF8D108BD08B5124A137803F0C00343F00C03137079
:4015800002F22312137843F001031370FF20FFF7BBFFFF20FFF7BEFFFF20FFF7C1FF0020FFF7C4FF01F094FB054A137843F01003137001F091FBFFF7D1FF08BD746400402B
:4015C0009464004008B5054B1B7823B9FFF7D0FF0122024B1A70FFF78FFF08BD6581FF1F014B1878704700BF27650040014B1B68D864704708ED00E04001C0B2014B1870EF
:40160000704700BF03E400E00822014B1A60704700E100E00822014B1A60704780E100E010B50446FFF7F6FF2046FFF7DFFF0620FFF7E2FFFFF7E8FF10BD00BF7222084B9C
:401640001A702022063B1A700622A3F5AE731A70472210331A70002203F24B131A7070478B65004010B501F033FB04460A4A137843F020031370063A137843F010031370D2
:40168000013A137843F01003137000F04BF8204601F022FB10BD00BF9B65004008B5054B1B7823B9FFF7CAFF0122024B1A70FFF7D9FF08BD6681FF1F084B1B78DBB213F0E5
:4016C000200F06D0064A1078C0B213F01E0F02D17047002070470020704700BF6565004048650040034B1B7813F0040FFAD1024B18707047646500404A650040084B1B7851
:4017000033B97047305DFFF7EDFF0134E4B203E070B50D4606460024AC42F3D370BD00BF6681FF1F054A137843F0080313701032137843F008031370704700BFA243004098
:4017400001BE704710B5044605E0084B186801F0B7FAA4F50044B4F5004FF6D8034B586800FB04F001F0ACFA10BD00BFCC80FF1F08B5034B1B7A00FB03F001F0A1FA08BD7E
:40178000CC80FF1F70B504460E46074B1D681F2802D90020FFF7D4FF04F01F04103455F8240045F8246070BD08ED00E038B504460D46072902D90020FFF7C2FF1F2C02D9F9
:4017C0000020FFF7BDFF04F01F0000F1604000F564406D01EDB2057038BD00BF084A137843F0010313701032137843F00103137002F64D32137843F001031370704700BF54
:40180000A3430040014B1870704700BF034F0040014B1880704700BF044F0040014B1880704700BF064F004008B5204A137803F0010313701E4B197801F0FC0119701178A4
:4018400041F0040111701A7802F0F3021A701A7842F00C021A701A7802F07F021A701A7842F080021A701A78D2B21A7009331A7802F0CF021A701A7842F030021A701A7826
:4018800002F0F0021A701A7842F00F021A70094A137843F001031370C720FFF7B9FFC720FFF7BCFF0820FFF7ADFF08BD004F0040024F0040014F004008B5054B1B7823B9DB
:4018C000FFF7B2FF0122024B1A70FFF787FF08BD6881FF1F044A137803F07F03C001C0B218431070704700BF10510040044A137803F0EF03000100F010001843107070473B
:4019000020510040024A137843F080031370704770640040024A137803F07F031370704770640040014B1870704700BF01640040014B1870704700BF41640040014B18708F
:40194000704700BF21640040014B1870704700BF81640040014B1878704700BF61640040014B1878704700BF70640040014B1878704700BF5164004008B501E0FFF7F6FF30
:40198000FFF7E8FF10F0100FF8D108BD10B5114A137803F0C00343F0090313700E4C237843F001032370C820FFF7BCFFC820FFF7BFFF0020FFF7C2FF0020FFF7C5FF01F0E4
:4019C00087F9237843F01003237001F085F9FFF7D3FF10BD706400409164004008B5054B1B7823B9FFF7D2FF0122024B1A70FFF789FF08BD6981FF1F024A137843F0800391
:401A00001370704773640040014B1870704700BF83640040014B1878704700BF63640040014B1870704700BF23640040014B1878704700BF43640040014B1870704700BFF7
:401A40000364004008B501E0FFF7F0FFFFF7E2FF10F0080FF8D108BD08B56320FFF7E0FF6320FFF7E9FF01F033F9064A137843F01003137001F030F9FFF7E4FF0120FFF77F
:401A8000C3FF08BD9364004008B5054B1B7823B9FFF7E2FF0122024B1A70FFF7ADFF08BD6A81FF1F014B1B685864704708ED00E04001C0B2014B1870704700BF01E400E0D2
:401AC0000222014B1A60704700E100E00222014B1A60704780E100E010B50446FFF7F6FF2046FFF7DFFF0720FFF7E2FFFFF7E8FF10BD00BF8022014B1A60704700E100E027
:401B00004022014B1A60704700E100E008B501F0DFF80C4A137843F0200313700132137843F010031370FF32137843F01003137001F0D2F800F0AEFCFFF7DCFFFFF7E0FFBF
:401B400008BD00BF986400408022014B1A60704780E100E04022014B1A60704780E100E010B5FFF7F1FF064B1C78064A137803F009031C4300231370FFF7BCFF204610BDD2
:401B8000696400406583FF1F10B5FFF7E3FF064B1B78064A147804F040041C4300231370FFF7AEFF204610BD686500407583FF1F10B504462B4B1A7802F0FF0312B1013B75
:401BC000DBB200E00723284A1278D2B29342F1D0FFF7BAFF254B1978254A137803F009030B4313701F4B1A78D2B21F4B1B78DBB29A4207D11E4B1B7813F0040F02D01D4BB4
:401C00001C702CE0184A13780133DBB213701378DBB2072B02D90022134B1A70124B1A78D2B2104B1B78DBB29A420ED10D4A13780133DBB213701378DBB2072B02D9002296
:401C4000084B1A7001220C4B1A70074B1B78DBB20A4AD4540A4A137843F004031370FFF749FF10BD6683FF1F6483FF1F696400406583FF1F486400406883FF1F6C83FF1FCD
:401C80008964004010B5FFF765FF134B1A78D2B2124B1B78DBB29A4214D0114B1B7813F0FF0F0CD10C4A13780133DBB213701378DBB2072B06D90022074B1A7002E00022FA
:401CC000074B1A70044B1B78DBB2064AD45CE4B2FFF716FF204610BD8083FF1F7483FF1F6783FF1F7883FF1F08B501E0094B1B78094B1B7813F0200FF8D1FFF72BFF002344
:401D0000064A1370064A1370064A1370FFF7F8FE08BD00BF58640040686500406783FF1F8083FF1F7483FF1F08B500F0D1FF0E4B1A7842F001021A701A7802F0FE021A703E
:401D400000F0CAFFFFF700FF0023084A1370084A1370084A1370084A137803F0FB031370FFF7C8FE08BD00BF986400406883FF1F6683FF1F6483FF1F8964004070B5064693
:401D80000C46002506E0705DFFF712FF0135EDB2013CE4B2002CF6D170BD00BF08B501E00A4B1B780A4B1B7813F0200FF8D100F08FFF084B1A7842F001021A701A7802F05C
:401DC000FE021A7000F088FF08BD00BF58640040686500409864004010B50F22174B1A70174C8023236004210720FFF7DFFC15490720FFF7C7FC4023236004210620FFF72C
:401E0000D5FC11490620FFF7BDFCFFF7C7FF00240E4B1C700E4B1C700E4B1C700E4B1C700E4B1C700E4B1C70FFF79AFEFFF7ACFE0C4B1C702022FF331A7010BD886400405C
:401E400080E100E0851E0000251F00006783FF1F8083FF1F7483FF1F6883FF1F6683FF1F6483FF1F8964004008B5054B1B7823B9FFF7B2FF0122024B1A70FFF747FE08BD9D
:401E80006B81FF1F28E01F4B19781F4A137803F009030B431370137813F0040F24D01B4B1B7813F0FF0F0CD1194A13780133DBB213701378DBB2072B06D90022144B1A706F
:401EC00002E00022114B1A70114B1B78DBB2114AD35CDBB2104A13700D4B1A78D2B20F4B1B78DBB29A42CED1094B1A78D2B20B4B1B78DBB29A4204D1094A137803F0FB03C5
:401F000013707047696400406583FF1F6883FF1F6683FF1F6C83FF1F486400406483FF1F89640040204B1A7820490B7803F0400313430B7032E01E4B1A78D2B21D490B78AF
:401F40000133DBB20B700B78DBB2072B02D90021184B1970174B1978C9B2174B1B78DBB299420ED114490B780133DBB20B700B78DBB2072B02D900210F4B197001210F4B98
:401F800019700C4B1B78DBB20D49CA54064B1A7806490B7803F0400313430B70034B1B7813F0200FC7D17047686500407583FF1F586400407483FF1F8083FF1F6783FF1F32
:401FC0007883FF1F2022014B1A60704700E100E01022014B1A60704700E100E008B500F077FE0C4A137843F0200313700432137843F01003137002F20112137843F010039A
:40200000137000F069FE00F053FAFFF7DBFFFFF7DFFF08BD926400402022014B1A60704780E100E01022014B1A60704780E100E010B5FFF7F1FF064B1C78064A137803F09C
:4020400009031C4300231370FFF7BCFF204610BD666400408483FF1F10B5FFF7E3FF064B1B78064A147804F040041C4300231370FFF7AEFF204610BD67650040A083FF1F7F
:4020800010B504462B4B1A7802F0FF0312B1013BDBB200E00723284A1278D2B29342F1D0FFF7BAFF254B1978254A137803F009030B4313701F4B1A78D2B21F4B1B78DBB2E5
:4020C0009A4207D11E4B1B7813F0040F02D01D4B1C702CE0184A13780133DBB213701378DBB2072B02D90022134B1A70124B1A78D2B2104B1B78DBB29A420ED10D4A13785D
:402100000133DBB213701378DBB2072B02D90022084B1A7001220C4B1A70074B1B78DBB20A4AD4540A4A137843F004031370FFF749FF10BD9D83FF1F9E83FF1F6664004017
:402140008483FF1F426400409083FF1F8883FF1F8664004010B5FFF765FF134B1A78D2B2124B1B78DBB29A4214D0114B1B7813F0FF0F0CD10C4A13780133DBB21370137873
:40218000DBB2072B06D90022074B1A7002E00022074B1A70044B1B78DBB2064AD45CE4B2FFF716FF204610BD8583FF1F9F83FF1F9C83FF1F9483FF1F08B501E0094B1B7883
:4021C000094B1B7813F0200FF8D1FFF72BFF0023064A1370064A1370064A1370FFF7F8FE08BD00BF52640040676500409C83FF1F8583FF1F9F83FF1F08B500F069FD0E4BC0
:402200001A7842F001021A701A7802F0FE021A7000F062FDFFF700FF0023084A1370084A1370084A1370084A137803F0FB031370FFF7C8FE08BD00BF926400409083FF1F61
:402240009D83FF1F9E83FF1F8664004070B506460C46002506E0705DFFF712FF0135EDB2013CE4B2002CF6D170BD00BF08B501E00A4B1B780A4B1B7813F0200FF8D100F035
:4022800027FD084B1A7842F001021A701A7802F0FE021A7000F020FD08BD00BF52640040676500409264004038B50F22174B1A70174C2025256004210520FFF777FA154939
:4022C0000520FFF75FFA1023236004210846FFF76DFA11490420FFF755FAFFF7C7FF00240E4B1C700E4B1C700E4B1C700E4B1C700E4B1C700E4B1C70FFF79AFEFFF7ACFEB5
:402300000C4B1C7003F201131D7038BD8264004080E100E055230000F52300009C83FF1F8583FF1F9F83FF1F9083FF1F9D83FF1F9E83FF1F8664004008B5054B1B7823B941
:40234000FFF7B2FF0122024B1A70FFF747FE08BD6C81FF1F28E01F4B19781F4A137803F009030B431370137813F0040F24D01B4B1B7813F0FF0F0CD1194A13780133DBB2BF
:4023800013701378DBB2072B06D90022144B1A7002E00022114B1A70114B1B78DBB2114AD35CDBB2104A13700D4B1A78D2B20F4B1B78DBB29A42CED1094B1A78D2B20B4BE9
:4023C0001B78DBB29A4204D1094A137803F0FB0313707047666400408483FF1F9083FF1F9D83FF1F8883FF1F426400409E83FF1F86640040204B1A7820490B7803F04003CE
:4024000013430B7032E01E4B1A78D2B21D490B780133DBB20B700B78DBB2072B02D90021184B1970174B1978C9B2174B1B78DBB299420ED114490B780133DBB20B700B78A2
:40244000DBB2072B02D900210F4B197001210F4B19700C4B1B78DBB20D49CA54064B1A7806490B7803F0400313430B70034B1B7813F0200FC7D1704767650040A083FF1F63
:40248000526400409F83FF1F8583FF1F9C83FF1F9483FF1F054A137843F0020313701032137843F002031370704700BFA2430040054A137843F0040313701032137843F0FF
:4024C00004031370704700BFA2430040024A137843F080031370704777640040014B1870704700BF87640040014B1878704700BF67640040014B1860704700BF2464004001
:40250000014B1868704700BF44640040014B1860704700BF04640040024B1B78024B1868704700BF046400404464004008B501E0FFF7E6FFFFF7D8FF10F0080FF8D108BDF1
:4025400008B54FF0FF30FFF7D5FF4FF0FF30FFF7DDFF00F0BDFB064A137843F01003137000F0BAFBFFF7E2FF0020FFF7B7FF08BD9764004008B5054B1B7823B9FFF7E0FF41
:402580000122024B1A70FFF7A1FF08BD6D81FF1F10B59DF80840012C51D1013809282ED8DFE800F0052D2D052D2D0F192D230F2B03D92548007840B222E02448007840B2A7
:4025C0001EE00F2B03D92248007840B218E02148007840B214E00F2B03D91F48007840B20EE01E48007840B20AE00F2B03D91C48007840B204E01B48007840B200E0002010
:4026000001EB401101FB02F1C90B8AB20D2B0BD8C3F10E0289B211418AB2611E124800EB810101338B7005E0631E0F4901EB83030F219970013C0C4B23F8242010BD0020F8
:40264000FFF77EF810BD00BF180100491C010049190100491D0100491A0100491E0100491B0100491F0100497081FF1FF8B5074600F02EFB06460D4D2B7843F003032B70F7
:402680000B4C237843F0030323700A4B1F700320FFF76EF82B7803F0FC032B70237803F0FC032370304600F017FBF8BDF8460040F9460040925800400022314B1A71012803
:4026C0005CD170B538222F4B1A70042202331A70062201331A70002401331C7001331C700F2201331A7002331C7001331C7001331C7001250A331D70142203F527631A7059
:40270000052601331E70162201331A7001331C70442203331A70482201331A7001331D7002331C7001331C700A2201331A70432201331A705220FFF799FF5822124B1A70F8
:4027400001331C7005331E70022201331A7001331C7001331C70204600F074F933220B4B1A602946304600F091F92946BA2000F011FA07491D20FFF705F870BD704700BFC3
:402780007081FF1F004E004094580040A483FF1F212A0000F0B583B0284D01272F70284E00247471102000F05FF9102000F0E0F907211D20FEF7FAFF0422224B1A70013318
:4027C0001C7007331C70204A137843F0180313701E4B1C7003F2F5231C7001331C700A22A3F209331A7001331C7002331C70122205331A70132201331A7004331C70142289
:40280000A3F68C231A70009708234FF4004248F66B510220FFF7BCFE2B78013B06EB83039A780B4B1A702B78013B36F82320094B1A802878FFF740FF03B0F0BDDC80FF1F7E
:402840007081FF1F96580040075B0040935800400E4E00400C4E004070B500F039FA06462A4B1B782A4B1A7842F001021A701A7842F010021A7010331A7842F001021A70C2
:402880001A7842F010021A70224D2B7843F002032B70214C237843F0020323701F4A137843F0030313700320FEF762FF2B7803F0FD032B70237803F0FD032370184A137898
:4028C00043F0060313707A22164B1A70164A137843F0010313701032137843F0010313700F3A137843F0010313701032137843F0010313704FF000530C4A1360A2F5C0722D
:402900001360304600F0E8F970BD00BFDC80FF1FAA430040F8460040F9460040915800407758004082580040A143004080E200E008B5084B9B794BB9064BDB7913F0FF0FB7
:4029400001D1FFF727FF0122024B9A71FFF784FF08BD00BF7081FF1F024A137843F0010313707047004E0040024A137803F0FE0313707047004E0040094B1B7913F0FF0F80
:4029800003D0074B5B79DBB203E0064B1B7803F00103012B01D00028EED01846704700BF7081FF1F014E00400E4B1B7803F00303012B03D80C4B188880B209E00A4A1278A2
:4029C0000A49087842EA0020032B01D1084B1B78084B1B7913F0FF0F02D00022054B5A7100B27047144E0040104E0040114E0040124E00407081FF1F10B5084A137843F0FF
:402A000004031370FFF7A8FF0020FFF7B5FFFFF7CBFF0446FFF7A8FF204610BD014E0040704700BF10B5002404E02046FEF79EFB0134E4B2012CF8D9FF22014B1A7010BD78
:402A4000DD80FF1F10B50446FFF7ECFF2046FEF77FFB014B1C7010BDDD80FF1F014B188880B2704780400040034B1A7800F0F80010431870704700BF82400040024B187829
:402A800000F00700704700BF8240004070B505460E46FFF7F3FF0446FFF7E0FFA84256D02B4B1B7803F0010294B900B185B938B9284B1D80284A137803F0BF03137070BD2E
:402AC000254A137843F040031370224B1D8070BD22B3002321490B7001240F310C7004310B700C390B7803F07F030B701A4B1B7813F0080F00D08DB9194B18800721013BFE
:402B00001970164B1B7813F0010FFAD110490B7803F0FE030B700021104B19700C4B1B7813F0010F0DD00E4B1D800EB1032200E001220A4B1A70094B1B7813F0010FFAD18F
:402B400070BD044B1D8002490B7813430B7070BDA243004080400040824000400140004002400040014B188880B2704700410040034B1A7800F0F80010431870704700BFD7
:402B800002410040024B187800F00700704700BF0241004070B505460E46FFF7F3FF0446FFF7E0FFA84256D02B4B1B7803F0010294B900B185B938B9284B1D80284A1378B1
:402BC00003F0BF03137070BD254A137843F040031370224B1D8070BD22B3002321490B70012413310C7004390B7008390B7803F07F030B701A4B1B7813F0080F00D08DB9F0
:402C0000194B18800721013B1970164B1B7813F0010FFAD110490B7803F0FE030B700021104B19700C4B1B7813F0010F0DD00E4B1D800EB1032200E001220A4B1A70094B9F
:402C40001B7813F0010FFAD170BD044B1D8002490B7813430B7070BDA143004000410040024100400140004002400040014B1B689864704708ED00E04001C0B2014B1870F5
:402C8000704700BF02E400E00422014B1A60704700E100E00422014B1A60704780E100E010B50446FFF7F6FF2046FFF7DFFF0720FFF7E2FFFFF7E8FF10BD00BF00000000F5
:402CC0000230800803D000BF01380046FCD17047EFF3108072B6704780F31088704700BF014B1868704700BF4081FF1F0E4B70B51E460E4C0025E41AA410A54204D056F876
:402D0000253098470135F8E700F066F8084B094C1E46E41AA4100025A54204D056F8253098470135F8E770BDE42D0000E42D0000E42D0000EC2D000010B5431E0A44914207
:402D400004D011F8014B03F8014FF8E710BD03460244934202D003F8011BFAE770470000000000002E400000035B00402443004040000000004F00400C00405100403000BF
:402D8000F0510040100000000140800400050140000380080140800700140140000480180140800300400140000A004C01400002005001402000000080040140C00B0048CC
:402DC000800000080140400C0048800000180140C00C004880004300F8B500BFF8BC08BC9E4670474D00000031130000F8B500BFF8BC08BC9E46704729000000102E0000D0
:402E0000C880FF1F800000006002000000000000000000000000E02EC05D00001800000000366E0101FF000000000000000000000000000000000000000000000000000062
:402E40000000000000000000D62D0000000000000000000000000000000000000000000000000000000000000000000000000000000000000000000000000000000000004F
:402E80000000000000000000E080FF1F0000000000000000000000000000000000000000000000000000000000000000000000000000000000000000000000000000000094
:402EC00000000000000000000000000000000000000000000000000000000000000000000000000000000000000000000000000000000000000000000000000000000000D2
:402F00000000000000000000000000000000000000000000000000000000000000000000000000000000000000000000000000000000000000000000000000000000000091
:402F40000000000000000000000000000000000000000000000000000000000000000000000000000000000000000000000000000000000000000000000000000000000051
:402F80000000000000000000000000000000000000000000000000000000000000000000000000000000000000000000000000000000000000000000000000000000000011
:020000040003F7
:0200000480007A
:40000000024F00400752004006640040046500405300014033010140600201404A0301402A040140460501405E0601404E0701401C08014039090140040B0140020D01404B
:400040004B1401405A15014050160140511701401918014056190140501A0140611B01400640014011410140124201400743014004440140064501400846014002470140EE
:400080000D4801400C490140044C01400A4D0140075001400251014001700A36004001601102186019406088618C810D820F830D840D870D880F840F8538860F8B72020263
:4000C000030206080A010B020F02120414061501180619011F0125042B042F013104320133013408350236065280580459045B045C775D605F01811A8504871A89048B0894
:400100008C018D1A8E02900291029201930494039504971098039B01A301A51AA91AAD1AB31EB501B603BB08BF10C020C105C5D0C610C720C82AC9FFCAFFCBFFCDA0CF045A
:40014000D018D405D804D904DA04DB04DC27DD66DF01E040E2C0E440E540E6C0E8C0EAC0ECC0EEC000080120038004400540080109080B840C010D080F04180119241B80C1
:400180001F40204021082210230425042708280129242D802E022F283148321036063720380139203B403D283E4147204C024D02540256125D425F087280C08EC27ECAFEAD
:4001C000CCEECEFDD020D210D6D005E0060309550BAA11331202134C1549179619021A031B0D2C01300333F0350F360339083B20406241054230440445DE46BC470F481FBF
:4002000049FF4AFF4BFF4C224EF04F08500456025724580459045A045B045C225D225F0162C0644065016610671168C069016B116C406D016E406F01820286018F02920256
:40024000A101AA01B001B101B302B402BE10BF01C062C104C5ECC620C80BC9FFCAFFCBFFCF01D018D280D401D804D904DA04DB04DC66DD77DE80DF05E040E240E440E54071
:40028000E680E880EA80EC80EE8002100380040809010B400E8813201740184019101E801F40210223202504261027042A012B8036163A803D284112422043044508464098
:4002C000471049164C044E024F06511053105540571459065A8066206D146E516F29734075807B8081408210874095609641974099209A909D809F20A380A404A510A606AD
:40030000A728B108C02CC258C482CA01CCE0CE68D0E5D234D60BD820DE01E602EE21020403010E101002120C16101A031C0D1E022210240E260130103407350136083880BC
:400340003E01405149FF4AFF4BFF4F01501852805405580459045A045B045C415D455F016040624064406540668068806A806C806E800002020104040580074809800A0445
:400380000BA00E890F20110A1515170118011A841C041D081E42200824482510260627582D802E013682371838023DC53E10438046404B404F40584059015A087001800486
:4003C00089208E02911492119324940896A099A09A119B019F50A141A315A518A606A840AE40B004C0F9C2FFC47CCA90CCF0CEF1D088D218D60BE002E260EA08EC0403013B
:40040000050909010B080F061108130114031502170C1802190E1D021F0C21092D09320233013401370E3B803F04405449FF4AFF4BFF4D834E034F015018540956045804D8
:4004400059045A045B045C245D255F016040624064406540668068806A806C806E80820186048A048B018D02910192019D02A102A602B001B102B404B501B602BE11BF0105
:40048000C051C5ECC602C807C9FFCAFFCBFFCD83CE03CF01D018D280D401D804D904DA04DB04DC66DD55DF01E040E240E440E540E680E880EA80EC80EE80002802400B406C
:4004C0000C080E0812101A8A1E2821012210250826C02B402D802E0131803201368037193A103B803C403D043E103F0243804640490A4B404F4052405380590A5A805C2009
:400500005E425F046602670273408001840187409048914492519304962897C099A09A109B199C409D019E42A004A201A305A401A584A6C0A780AE04B401C00EC268C404C9
:40054000CA91CCF9CEFCD088D218D6FBD890E208E404E608EE10870191029D03A903B703B980BF40C001C540C9FFCA07CBFFCC40CD20CEF0CF05D008D409D604D904DA0401
:40058000DB04DD13DF01E040E1A8E240E32007010D010E820F0817141D091F102001240225602620274229202F82324134303628370238083C803E143F0240014528470218
:4005C00049024D084E884F82500C51045641572459195B406180634067086C406E9E6F9674C07701852087209740C080C2D0C460CA94CCE9CEF2D0E8D230D60FD829E40414
:400600009740E002EA28EC048740EE01000101100402072609260A010B180D080E01111E13201504180619181B261D3E1E0121062401251829012D02300131383301340416
:40064000351E36023BA23E013F045401580459045B045C345D305F01840294019E05A40EB002B208B401B604C040C105C5D0C610C725C83AC9FFCAFFCBFFCDA0CF04D018B9
:40068000D418D604D804DA04DB04DC04DD34DF01E040E2C0E440E540E6C0E8C0EAC0ECC0EEC0000401A003400504081009400B080C080E021220161018041A411D041E8096
:4006C0001FA020022190220628012A092B082C402E0131A0320A388039203A043B024420450147084C024D01540A5610570258205A4A5F02651066428040818082088388DB
:40070000840185208A018B2C8D208F01930895219704980199109A459B429C509E02A141A229A408A5A0A642A702AA04AB40AC80AE02B252B308B740C02FC2A3C424CA0F2B
:40074000CC0FCE0FD080D210D68FD8B0E285E408E603EA01EE0204010C011301230228012F0130013102330139803E013F4452805407580459045B045C405D405F0181383D
:40078000820183C085E6860888108B198D4A8E028F2492049594960197229B199D19A1E6A408A718AA04AD19B008B1E0B206B306B401B501B610B718B920BE54C060C103BC
:4007C000C5D2C701C813C9FFCAFFCBFFCDA0CF04D018D440D604D804D904DA04DB04DC34DD24DF01E040E2C0E440E540E6C0E8C0EAC0ECC0EEC00088012002810448080109
:400800000AA00B80101012081710188019101B481F0120802218230224022501260528802A842D022F0231A0320836013A113B843C203E1042104814490153045D015EA809
:400840006108634A750282208680874089108A808C408D048E4090489402970299209B109C409D01A004A148A210A305A418A504A980AD40B101B420B544B740C0AFC20CB4
:40088000C446CA9BCC8ECE0FD002D204D6F0D80FE208E619EA02EE01801085048A038C14900C9211930298099A109C109D029E0CA501A902AC1CAE02B21FB506B701B92039
:4008C000BF40D804D904DC33DF010090010204280690088009200A800C480F08100115101709181019081D081E412002212025102608272029282C902F023001324136010D
:40090000372439083DA03E043F024440450846084C044D804F08578060086210666067A0808081A0830887C08A108E088F409082910A9204932096829708983099029A60AE
:400940009B049D20A080A140A205A303A608A740AA21AB02AC08B180B510B680C07BC2EBC471CAD6CCE9CEF2D0E0D230D8F0E210E420E640E8200208043106C60C310E4E6C
:400980001A8C1CAC1E431F01265328302A40308A34F03501360F3AA24063410445B046E0470C481A49FF4AFF4BFF4EF04F44500C580459045A045C335D035F0166C06A40E2
:4009C0006B0280638110828C84C0850888108C108D3C8F02932394029527961D971898109B049C109D04A13FA210A4A3A518A654A801A91CAA3AAB21B21FB31FB4E0B538D9
:400A0000B820BA08BB08D602D710D804D904DB04DC31DD30DF010040010203200486070409200A020C800E2811041208142015021720184019201A821B201C041E201F047C
:400A40002220242027082C482D083340340836223740390C3E0A3F804040410448404920520853105E406D106E046F097420750C760A802081048208844086018A848B109E
:400A80008C108E028F409082910A92409420951096829708982899029B649C409D209E809F09A088A120A206A440A708A908AA02AF08B009B209B640B740C0FDC2E3C476BE
:400AC000CAE0CCF8CED0D003D204D610E260E660E820EA10EC20EE803020320437413B20CCF0CE10311032013580631066208601871096089720A420AB40B301CC70D8C098
:400B0000E210E640EE801020504056105A02822087018A018D10960897209D909E20A420C410D460D640E040E220960897209D809F01AE10B440EA4013027F80C408DE016A
:400B400001215301A780AB02C00AD40145088508A780AB01AD01B120D001EA048380A78027016501858087108C01960897209D809F01C820D880E210E6406001670A830100
:400B80008B049001A901AE04D6C0D880E620EA20EE1009208D01C202E208110275029902A501B102B520C408DE04E801EE0200FE08C40A760C0A101E1A1C1C0A00FF01FF95
:400BC00007C0381001C000100A1010C08414000004990022600E00C156E4091884C0000004D08000840000008000040000D00000089880077F7880002000002800004500AF
:400C0000540000000000000000FFFFFF0083030118000000000000000404040022050001400040004040800080008000800080000000000000000000000000000000000010
:400C4000002200000072000000500022037200000063038C002300D800810274030000000072000003000000030000000022005001800100021F00600020000000001501EF
:400C80002604300005CEBDFD3FFFFFFF2200F00C040000000000022404040404101100010000C00040011011C0010011400140010000000000000000000000000000000021
:400CC00002800040019D00000102000D00110022009D0000011D008000E2041801000000029D00000042049402000000008D0010010002F0000F04000000002C000041008C
:400D000063040500020C0E0005FFFFFF62A0F0410C0000004000040004040404131300010000000000004002001030100010101200000000000000000000000000000000AB
:400D400000606000600000008400508C8C008C00000000008000408B8B00000000000000140001161200020000000000E00000E0E000E00008000000BB001801000000006A
:400D80000000000000000000000000000000000000000000000000000000000000000000000000000000000000000000000000000000000000000000000000000000000033
:400DC00000000000000000000000000000000000000000000000000000000000000000000000000000000000000000000000000000000000000000000000000000000000F3
:400E000000000000000000000000000000000000000000000000000000000000000000000000000000000000000000000000000000000000000000000000000000000000B2
:400E40000000000000000000000000000000000000000000000000000000000000000000000000000000000000000000000000000000000000000000000000000000000072
:0200000490006A
:0400000000004005B7
:0200000490105A
:04000000BC90ACAF55
:0200000490303A
:02000000DD75AC
:0200000490402A
:4000000000000000000000000000000000000000000000000000000000000000000000000000000000000000000000000000000000000000000000000000000000000000C0
:400040000000000000000000000000000000000000000000000000000000000000000000000000000000000000000000000000000000000000000000000000000000000080
:400080000000000000000000000000000000000000000000000000000000000000000000000000000000000000000000000000000000000000000000000000000000000040
:4000C0000000000000000000000000000000000000000000000000000000000000000000000000000000000000000000000000000000000000000000000000000000000000
:0200000490501A
:0C00000000012E16106900012E2BEDDE11
:00000001FF